{
  "_format": "hh-sol-artifact-1",
  "contractName": "SupplyChain",
  "sourceName": "contracts/SupplyChain.sol",
  "abi": [
    {
      "inputs": [],
      "stateMutability": "nonpayable",
      "type": "constructor"
    },
    {
      "anonymous": false,
      "inputs": [
        {
          "indexed": true,
          "internalType": "bytes16",
          "name": "batchId",
          "type": "bytes16"
        },
        {
          "indexed": true,
          "internalType": "address",
          "name": "creator",
          "type": "address"
        },
        {
          "indexed": false,
          "internalType": "uint256",
          "name": "quantity",
          "type": "uint256"
        }
      ],
      "name": "BatchCreated",
      "type": "event"
    },
    {
      "anonymous": false,
      "inputs": [
        {
          "indexed": true,
          "internalType": "bytes16",
          "name": "batchId",
          "type": "bytes16"
        },
        {
          "indexed": true,
          "internalType": "address",
          "name": "receiver",
          "type": "address"
        }
      ],
      "name": "BatchReceived",
      "type": "event"
    },
    {
      "anonymous": false,
      "inputs": [
        {
          "indexed": true,
          "internalType": "bytes16",
          "name": "batchId",
          "type": "bytes16"
        },
        {
          "indexed": true,
          "internalType": "address",
          "name": "from",
          "type": "address"
        },
        {
          "indexed": true,
          "internalType": "address",
          "name": "to",
          "type": "address"
        }
      ],
      "name": "BatchTransferred",
      "type": "event"
    },
    {
      "anonymous": false,
      "inputs": [
        {
          "indexed": true,
          "internalType": "address",
          "name": "user",
          "type": "address"
        },
        {
          "indexed": false,
          "internalType": "string",
          "name": "role",
          "type": "string"
        }
      ],
      "name": "RoleGranted",
      "type": "event"
    },
    {
      "anonymous": false,
      "inputs": [
        {
          "indexed": true,
          "internalType": "address",
          "name": "user",
          "type": "address"
        },
        {
          "indexed": false,
          "internalType": "string",
          "name": "role",
          "type": "string"
        }
      ],
      "name": "RoleRevoked",
      "type": "event"
    },
    {
      "inputs": [
        {
          "internalType": "bytes16",
          "name": "_batchId",
          "type": "bytes16"
        },
        {
          "internalType": "uint256",
          "name": "_quantity",
          "type": "uint256"
        },
        {
          "internalType": "string",
          "name": "_ewaybillNo",
          "type": "string"
        },
        {
          "internalType": "uint256",
          "name": "_cost",
          "type": "uint256"
        },
        {
          "internalType": "string",
          "name": "_internalBatchNo",
          "type": "string"
        },
        {
          "internalType": "string",
          "name": "_currentLocation",
          "type": "string"
        }
      ],
      "name": "createBatch",
      "outputs": [],
      "stateMutability": "nonpayable",
      "type": "function"
    },
    {
      "inputs": [
        {
          "internalType": "bytes16",
          "name": "_batchId",
          "type": "bytes16"
        }
      ],
      "name": "getBatch",
      "outputs": [
        {
          "components": [
            {
              "internalType": "bytes16",
              "name": "batchId",
              "type": "bytes16"
            },
            {
              "internalType": "address",
              "name": "creator",
              "type": "address"
            },
            {
              "internalType": "address",
              "name": "currentHolder",
              "type": "address"
            },
            {
              "internalType": "uint256",
              "name": "quantity",
              "type": "uint256"
            },
            {
              "internalType": "string",
              "name": "ewaybillNo",
              "type": "string"
            },
            {
              "internalType": "uint256",
              "name": "cost",
              "type": "uint256"
            },
            {
              "internalType": "string",
              "name": "internalBatchNo",
              "type": "string"
            },
            {
              "internalType": "string",
              "name": "currentLocation",
              "type": "string"
            },
            {
              "internalType": "enum SupplyChain.Status",
              "name": "status",
              "type": "uint8"
            },
            {
              "internalType": "uint256",
              "name": "createdAt",
              "type": "uint256"
            },
            {
              "internalType": "uint256",
              "name": "updatedAt",
              "type": "uint256"
            }
          ],
          "internalType": "struct SupplyChain.Batch",
          "name": "",
          "type": "tuple"
        }
      ],
      "stateMutability": "view",
      "type": "function"
    },
    {
      "inputs": [
        {
          "internalType": "address",
          "name": "_distributor",
          "type": "address"
        }
      ],
      "name": "grantDistributorRole",
      "outputs": [],
      "stateMutability": "nonpayable",
      "type": "function"
    },
    {
      "inputs": [
        {
          "internalType": "address",
          "name": "_manufacturer",
          "type": "address"
        }
      ],
      "name": "grantManufacturerRole",
      "outputs": [],
      "stateMutability": "nonpayable",
      "type": "function"
    },
    {
      "inputs": [
        {
          "internalType": "address",
          "name": "_retailer",
          "type": "address"
        }
      ],
      "name": "grantRetailerRole",
      "outputs": [],
      "stateMutability": "nonpayable",
      "type": "function"
    },
    {
      "inputs": [
        {
          "internalType": "address",
          "name": "",
          "type": "address"
        }
      ],
      "name": "isDistributor",
      "outputs": [
        {
          "internalType": "bool",
          "name": "",
          "type": "bool"
        }
      ],
      "stateMutability": "view",
      "type": "function"
    },
    {
      "inputs": [
        {
          "internalType": "address",
          "name": "",
          "type": "address"
        }
      ],
      "name": "isManufacturer",
      "outputs": [
        {
          "internalType": "bool",
          "name": "",
          "type": "bool"
        }
      ],
      "stateMutability": "view",
      "type": "function"
    },
    {
      "inputs": [
        {
          "internalType": "address",
          "name": "",
          "type": "address"
        }
      ],
      "name": "isRetailer",
      "outputs": [
        {
          "internalType": "bool",
          "name": "",
          "type": "bool"
        }
      ],
      "stateMutability": "view",
      "type": "function"
    },
    {
      "inputs": [
        {
          "internalType": "bytes16",
          "name": "",
          "type": "bytes16"
        }
      ],
      "name": "products",
      "outputs": [
        {
          "internalType": "bytes16",
          "name": "batchId",
          "type": "bytes16"
        },
        {
          "internalType": "address",
          "name": "creator",
          "type": "address"
        },
        {
          "internalType": "address",
          "name": "currentHolder",
          "type": "address"
        },
        {
          "internalType": "uint256",
          "name": "quantity",
          "type": "uint256"
        },
        {
          "internalType": "string",
          "name": "ewaybillNo",
          "type": "string"
        },
        {
          "internalType": "uint256",
          "name": "cost",
          "type": "uint256"
        },
        {
          "internalType": "string",
          "name": "internalBatchNo",
          "type": "string"
        },
        {
          "internalType": "string",
          "name": "currentLocation",
          "type": "string"
        },
        {
          "internalType": "enum SupplyChain.Status",
          "name": "status",
          "type": "uint8"
        },
        {
          "internalType": "uint256",
          "name": "createdAt",
          "type": "uint256"
        },
        {
          "internalType": "uint256",
          "name": "updatedAt",
          "type": "uint256"
        }
      ],
      "stateMutability": "view",
      "type": "function"
    },
    {
      "inputs": [
        {
          "internalType": "bytes16",
          "name": "_batchId",
          "type": "bytes16"
        }
      ],
      "name": "receiveBatch",
      "outputs": [],
      "stateMutability": "nonpayable",
      "type": "function"
    },
    {
      "inputs": [
        {
          "internalType": "address",
          "name": "_distributor",
          "type": "address"
        }
      ],
      "name": "revokeDistributorRole",
      "outputs": [],
      "stateMutability": "nonpayable",
      "type": "function"
    },
    {
      "inputs": [
        {
          "internalType": "address",
          "name": "_retailer",
          "type": "address"
        }
      ],
      "name": "revokeRetailerRole",
      "outputs": [],
      "stateMutability": "nonpayable",
      "type": "function"
    },
    {
      "inputs": [
        {
          "internalType": "bytes16",
          "name": "_batchId",
          "type": "bytes16"
        },
        {
          "internalType": "address",
          "name": "_newHolder",
          "type": "address"
        }
      ],
      "name": "transferBatch",
      "outputs": [],
      "stateMutability": "nonpayable",
      "type": "function"
    }
  ],
  "bytecode": "0x60806040523480156200001157600080fd5b5060016000803373ffffffffffffffffffffffffffffffffffffffff1673ffffffffffffffffffffffffffffffffffffffff16815260200190815260200160002060006101000a81548160ff0219169083151502179055503373ffffffffffffffffffffffffffffffffffffffff167fb710f7d3e79cb091613cfea70444ea824ad23f2b1297bdea427bc6f097e346a8604051620000af906200011e565b60405180910390a262000140565b600082825260208201905092915050565b7f4d616e7566616374757265720000000000000000000000000000000000000000600082015250565b600062000106600c83620000bd565b91506200011382620000ce565b602082019050919050565b600060208201905081810360008301526200013981620000f7565b9050919050565b61295480620001506000396000f3fe608060405234801561001057600080fd5b50600436106100cf5760003560e01c80635e82a7f01161008c5780638f0c86fa116100665780638f0c86fa14610216578063be489acb14610246578063e655806e14610262578063f9f806e114610292576100cf565b80635e82a7f0146101a45780637e485fcf146101c05780638bba2a0a146101fa576100cf565b806317485f42146100d457806317d4a491146100f057806318c8ea30146101205780634fb810fb1461013c57806355c4281e146101585780635da09b8814610174575b600080fd5b6100ee60048036038101906100e99190611b26565b6102ae565b005b61010a60048036038101906101059190611b26565b610419565b6040516101179190611b6e565b60405180910390f35b61013a60048036038101906101359190611b26565b610439565b005b61015660048036038101906101519190611be1565b6105a4565b005b610172600480360381019061016d9190611b26565b61093e565b005b61018e60048036038101906101899190611b26565b610a1d565b60405161019b9190611b6e565b60405180910390f35b6101be60048036038101906101b99190611d9d565b610a3d565b005b6101da60048036038101906101d59190611e7e565b610e94565b6040516101f19b9a99989796959493929190611fce565b60405180910390f35b610214600480360381019061020f9190611b26565b6110e0565b005b610230600480360381019061022b9190611b26565b61124a565b60405161023d9190611b6e565b60405180910390f35b610260600480360381019061025b9190611e7e565b61126a565b005b61027c60048036038101906102779190611e7e565b6114c7565b6040516102899190612211565b60405180910390f35b6102ac60048036038101906102a79190611b26565b61189e565b005b6000803373ffffffffffffffffffffffffffffffffffffffff1673ffffffffffffffffffffffffffffffffffffffff16815260200190815260200160002060009054906101000a900460ff16610339576040517f08c379a00000000000000000000000000000000000000000000000000000000081526004016103309061227f565b60405180910390fd5b600073ffffffffffffffffffffffffffffffffffffffff168173ffffffffffffffffffffffffffffffffffffffff160361037257600080fd5b6000600260008373ffffffffffffffffffffffffffffffffffffffff1673ffffffffffffffffffffffffffffffffffffffff16815260200190815260200160002060006101000a81548160ff0219169083151502179055508073ffffffffffffffffffffffffffffffffffffffff167f9f43a01c0d4ff5aff09b3b9b472df707ceefd3f948f8942f10fa1562a892130460405161040e906122eb565b60405180910390a250565b60006020528060005260406000206000915054906101000a900460ff1681565b6000803373ffffffffffffffffffffffffffffffffffffffff1673ffffffffffffffffffffffffffffffffffffffff16815260200190815260200160002060009054906101000a900460ff166104c4576040517f08c379a00000000000000000000000000000000000000000000000000000000081526004016104bb9061227f565b60405180910390fd5b600073ffffffffffffffffffffffffffffffffffffffff168173ffffffffffffffffffffffffffffffffffffffff16036104fd57600080fd5b6000600160008373ffffffffffffffffffffffffffffffffffffffff1673ffffffffffffffffffffffffffffffffffffffff16815260200190815260200160002060006101000a81548160ff0219169083151502179055508073ffffffffffffffffffffffffffffffffffffffff167f9f43a01c0d4ff5aff09b3b9b472df707ceefd3f948f8942f10fa1562a892130460405161059990612357565b60405180910390a250565b81600060036000836fffffffffffffffffffffffffffffffff19166fffffffffffffffffffffffffffffffff191681526020019081526020016000206009015403610624576040517f08c379a000000000000000000000000000000000000000000000000000000000815260040161061b906123c3565b60405180910390fd5b8260036000826fffffffffffffffffffffffffffffffff19166fffffffffffffffffffffffffffffffff1916815260200190815260200160002060020160009054906101000a900473ffffffffffffffffffffffffffffffffffffffff1673ffffffffffffffffffffffffffffffffffffffff163373ffffffffffffffffffffffffffffffffffffffff16146106ef576040517f08c379a00000000000000000000000000000000000000000000000000000000081526004016106e69061242f565b60405180910390fd5b600073ffffffffffffffffffffffffffffffffffffffff168373ffffffffffffffffffffffffffffffffffffffff160361072857600080fd5b600160008473ffffffffffffffffffffffffffffffffffffffff1673ffffffffffffffffffffffffffffffffffffffff16815260200190815260200160002060009054906101000a900460ff16806107c95750600260008473ffffffffffffffffffffffffffffffffffffffff1673ffffffffffffffffffffffffffffffffffffffff16815260200190815260200160002060009054906101000a900460ff165b6107d257600080fd5b600060036000866fffffffffffffffffffffffffffffffff19166fffffffffffffffffffffffffffffffff19168152602001908152602001600020905060028081111561082257610821611f57565b5b8160080160009054906101000a900460ff16600281111561084657610845611f57565b5b1461085057600080fd5b838160020160006101000a81548173ffffffffffffffffffffffffffffffffffffffff021916908373ffffffffffffffffffffffffffffffffffffffff16021790555060018160080160006101000a81548160ff021916908360028111156108bb576108ba611f57565b5b02179055504281600a01819055508373ffffffffffffffffffffffffffffffffffffffff163373ffffffffffffffffffffffffffffffffffffffff16866fffffffffffffffffffffffffffffffff19167fc26a75d42f427e3bc6902bd22f0f229d7db0dffd0283b57ebe4ad781b751f31660405160405180910390a45050505050565b600073ffffffffffffffffffffffffffffffffffffffff168173ffffffffffffffffffffffffffffffffffffffff160361097757600080fd5b60016000808373ffffffffffffffffffffffffffffffffffffffff1673ffffffffffffffffffffffffffffffffffffffff16815260200190815260200160002060006101000a81548160ff0219169083151502179055508073ffffffffffffffffffffffffffffffffffffffff167fb710f7d3e79cb091613cfea70444ea824ad23f2b1297bdea427bc6f097e346a8604051610a129061249b565b60405180910390a250565b60026020528060005260406000206000915054906101000a900460ff1681565b6000803373ffffffffffffffffffffffffffffffffffffffff1673ffffffffffffffffffffffffffffffffffffffff16815260200190815260200160002060009054906101000a900460ff16610ac8576040517f08c379a0000000000000000000000000000000000000000000000000000000008152600401610abf9061227f565b60405180910390fd5b600060801b6fffffffffffffffffffffffffffffffff1916866fffffffffffffffffffffffffffffffff191603610b34576040517f08c379a0000000000000000000000000000000000000000000000000000000008152600401610b2b90612507565b60405180910390fd5b600060036000886fffffffffffffffffffffffffffffffff19166fffffffffffffffffffffffffffffffff191681526020019081526020016000206009015414610bb3576040517f08c379a0000000000000000000000000000000000000000000000000000000008152600401610baa90612573565b60405180910390fd5b60008511610bf6576040517f08c379a0000000000000000000000000000000000000000000000000000000008152600401610bed90612605565b60405180910390fd5b604051806101600160405280876fffffffffffffffffffffffffffffffff191681526020013373ffffffffffffffffffffffffffffffffffffffff1681526020013373ffffffffffffffffffffffffffffffffffffffff168152602001868152602001858152602001848152602001838152602001828152602001600280811115610c8457610c83611f57565b5b81526020014281526020014281525060036000886fffffffffffffffffffffffffffffffff19166fffffffffffffffffffffffffffffffff1916815260200190815260200160002060008201518160000160006101000a8154816fffffffffffffffffffffffffffffffff021916908360801c021790555060208201518160010160006101000a81548173ffffffffffffffffffffffffffffffffffffffff021916908373ffffffffffffffffffffffffffffffffffffffff16021790555060408201518160020160006101000a81548173ffffffffffffffffffffffffffffffffffffffff021916908373ffffffffffffffffffffffffffffffffffffffff160217905550606082015181600301556080820151816004019081610da99190612831565b5060a0820151816005015560c0820151816006019081610dc99190612831565b5060e0820151816007019081610ddf9190612831565b506101008201518160080160006101000a81548160ff02191690836002811115610e0c57610e0b611f57565b5b0217905550610120820151816009015561014082015181600a01559050503373ffffffffffffffffffffffffffffffffffffffff16866fffffffffffffffffffffffffffffffff19167ff9b4baeb021990e9b06d47874d81cfe51b399445889fb190fb4cfef7fe91723e87604051610e849190612903565b60405180910390a3505050505050565b60036020528060005260406000206000915090508060000160009054906101000a900460801b908060010160009054906101000a900473ffffffffffffffffffffffffffffffffffffffff16908060020160009054906101000a900473ffffffffffffffffffffffffffffffffffffffff1690806003015490806004018054610f1c90612654565b80601f0160208091040260200160405190810160405280929190818152602001828054610f4890612654565b8015610f955780601f10610f6a57610100808354040283529160200191610f95565b820191906000526020600020905b815481529060010190602001808311610f7857829003601f168201915b505050505090806005015490806006018054610fb090612654565b80601f0160208091040260200160405190810160405280929190818152602001828054610fdc90612654565b80156110295780601f10610ffe57610100808354040283529160200191611029565b820191906000526020600020905b81548152906001019060200180831161100c57829003601f168201915b50505050509080600701805461103e90612654565b80601f016020809104026020016040519081016040528092919081815260200182805461106a90612654565b80156110b75780601f1061108c576101008083540402835291602001916110b7565b820191906000526020600020905b81548152906001019060200180831161109a57829003601f168201915b5050505050908060080160009054906101000a900460ff169080600901549080600a015490508b565b6000803373ffffffffffffffffffffffffffffffffffffffff1673ffffffffffffffffffffffffffffffffffffffff16815260200190815260200160002060009054906101000a900460ff1661116b576040517f08c379a00000000000000000000000000000000000000000000000000000000081526004016111629061227f565b60405180910390fd5b600073ffffffffffffffffffffffffffffffffffffffff168173ffffffffffffffffffffffffffffffffffffffff16036111a457600080fd5b60018060008373ffffffffffffffffffffffffffffffffffffffff1673ffffffffffffffffffffffffffffffffffffffff16815260200190815260200160002060006101000a81548160ff0219169083151502179055508073ffffffffffffffffffffffffffffffffffffffff167fb710f7d3e79cb091613cfea70444ea824ad23f2b1297bdea427bc6f097e346a860405161123f90612357565b60405180910390a250565b60016020528060005260406000206000915054906101000a900460ff1681565b80600060036000836fffffffffffffffffffffffffffffffff19166fffffffffffffffffffffffffffffffff1916815260200190815260200160002060090154036112ea576040517f08c379a00000000000000000000000000000000000000000000000000000000081526004016112e1906123c3565b60405180910390fd5b8160036000826fffffffffffffffffffffffffffffffff19166fffffffffffffffffffffffffffffffff1916815260200190815260200160002060020160009054906101000a900473ffffffffffffffffffffffffffffffffffffffff1673ffffffffffffffffffffffffffffffffffffffff163373ffffffffffffffffffffffffffffffffffffffff16146113b5576040517f08c379a00000000000000000000000000000000000000000000000000000000081526004016113ac9061242f565b60405180910390fd5b600060036000856fffffffffffffffffffffffffffffffff19166fffffffffffffffffffffffffffffffff1916815260200190815260200160002090506001600281111561140657611405611f57565b5b8160080160009054906101000a900460ff16600281111561142a57611429611f57565b5b1461143457600080fd5b60028160080160006101000a81548160ff0219169083600281111561145c5761145b611f57565b5b02179055504281600a01819055503373ffffffffffffffffffffffffffffffffffffffff16846fffffffffffffffffffffffffffffffff19167f7469c2db4895aa5df731f69556ac4557e205b92b3f61a44b20a15e302c6bcfd060405160405180910390a350505050565b6114cf611a09565b81600060036000836fffffffffffffffffffffffffffffffff19166fffffffffffffffffffffffffffffffff19168152602001908152602001600020600901540361154f576040517f08c379a0000000000000000000000000000000000000000000000000000000008152600401611546906123c3565b60405180910390fd5b60036000846fffffffffffffffffffffffffffffffff19166fffffffffffffffffffffffffffffffff19168152602001908152602001600020604051806101600160405290816000820160009054906101000a900460801b6fffffffffffffffffffffffffffffffff19166fffffffffffffffffffffffffffffffff191681526020016001820160009054906101000a900473ffffffffffffffffffffffffffffffffffffffff1673ffffffffffffffffffffffffffffffffffffffff1673ffffffffffffffffffffffffffffffffffffffff1681526020016002820160009054906101000a900473ffffffffffffffffffffffffffffffffffffffff1673ffffffffffffffffffffffffffffffffffffffff1673ffffffffffffffffffffffffffffffffffffffff1681526020016003820154815260200160048201805461169790612654565b80601f01602080910402602001604051908101604052809291908181526020018280546116c390612654565b80156117105780601f106116e557610100808354040283529160200191611710565b820191906000526020600020905b8154815290600101906020018083116116f357829003601f168201915b505050505081526020016005820154815260200160068201805461173390612654565b80601f016020809104026020016040519081016040528092919081815260200182805461175f90612654565b80156117ac5780601f10611781576101008083540402835291602001916117ac565b820191906000526020600020905b81548152906001019060200180831161178f57829003601f168201915b505050505081526020016007820180546117c590612654565b80601f01602080910402602001604051908101604052809291908181526020018280546117f190612654565b801561183e5780601f106118135761010080835404028352916020019161183e565b820191906000526020600020905b81548152906001019060200180831161182157829003601f168201915b505050505081526020016008820160009054906101000a900460ff16600281111561186c5761186b611f57565b5b600281111561187e5761187d611f57565b5b815260200160098201548152602001600a82015481525050915050919050565b6000803373ffffffffffffffffffffffffffffffffffffffff1673ffffffffffffffffffffffffffffffffffffffff16815260200190815260200160002060009054906101000a900460ff16611929576040517f08c379a00000000000000000000000000000000000000000000000000000000081526004016119209061227f565b60405180910390fd5b600073ffffffffffffffffffffffffffffffffffffffff168173ffffffffffffffffffffffffffffffffffffffff160361196257600080fd5b6001600260008373ffffffffffffffffffffffffffffffffffffffff1673ffffffffffffffffffffffffffffffffffffffff16815260200190815260200160002060006101000a81548160ff0219169083151502179055508073ffffffffffffffffffffffffffffffffffffffff167fb710f7d3e79cb091613cfea70444ea824ad23f2b1297bdea427bc6f097e346a86040516119fe906122eb565b60405180910390a250565b60405180610160016040528060006fffffffffffffffffffffffffffffffff19168152602001600073ffffffffffffffffffffffffffffffffffffffff168152602001600073ffffffffffffffffffffffffffffffffffffffff168152602001600081526020016060815260200160008152602001606081526020016060815260200160006002811115611aa057611a9f611f57565b5b815260200160008152602001600081525090565b6000604051905090565b600080fd5b600080fd5b600073ffffffffffffffffffffffffffffffffffffffff82169050919050565b6000611af382611ac8565b9050919050565b611b0381611ae8565b8114611b0e57600080fd5b50565b600081359050611b2081611afa565b92915050565b600060208284031215611b3c57611b3b611abe565b5b6000611b4a84828501611b11565b91505092915050565b60008115159050919050565b611b6881611b53565b82525050565b6000602082019050611b836000830184611b5f565b92915050565b60007fffffffffffffffffffffffffffffffff0000000000000000000000000000000082169050919050565b611bbe81611b89565b8114611bc957600080fd5b50565b600081359050611bdb81611bb5565b92915050565b60008060408385031215611bf857611bf7611abe565b5b6000611c0685828601611bcc565b9250506020611c1785828601611b11565b9150509250929050565b6000819050919050565b611c3481611c21565b8114611c3f57600080fd5b50565b600081359050611c5181611c2b565b92915050565b600080fd5b600080fd5b6000601f19601f8301169050919050565b7f4e487b7100000000000000000000000000000000000000000000000000000000600052604160045260246000fd5b611caa82611c61565b810181811067ffffffffffffffff82111715611cc957611cc8611c72565b5b80604052505050565b6000611cdc611ab4565b9050611ce88282611ca1565b919050565b600067ffffffffffffffff821115611d0857611d07611c72565b5b611d1182611c61565b9050602081019050919050565b82818337600083830152505050565b6000611d40611d3b84611ced565b611cd2565b905082815260208101848484011115611d5c57611d5b611c5c565b5b611d67848285611d1e565b509392505050565b600082601f830112611d8457611d83611c57565b5b8135611d94848260208601611d2d565b91505092915050565b60008060008060008060c08789031215611dba57611db9611abe565b5b6000611dc889828a01611bcc565b9650506020611dd989828a01611c42565b955050604087013567ffffffffffffffff811115611dfa57611df9611ac3565b5b611e0689828a01611d6f565b9450506060611e1789828a01611c42565b935050608087013567ffffffffffffffff811115611e3857611e37611ac3565b5b611e4489828a01611d6f565b92505060a087013567ffffffffffffffff811115611e6557611e64611ac3565b5b611e7189828a01611d6f565b9150509295509295509295565b600060208284031215611e9457611e93611abe565b5b6000611ea284828501611bcc565b91505092915050565b611eb481611b89565b82525050565b611ec381611ae8565b82525050565b611ed281611c21565b82525050565b600081519050919050565b600082825260208201905092915050565b60005b83811015611f12578082015181840152602081019050611ef7565b60008484015250505050565b6000611f2982611ed8565b611f338185611ee3565b9350611f43818560208601611ef4565b611f4c81611c61565b840191505092915050565b7f4e487b7100000000000000000000000000000000000000000000000000000000600052602160045260246000fd5b60038110611f9757611f96611f57565b5b50565b6000819050611fa882611f86565b919050565b6000611fb882611f9a565b9050919050565b611fc881611fad565b82525050565b600061016082019050611fe4600083018e611eab565b611ff1602083018d611eba565b611ffe604083018c611eba565b61200b606083018b611ec9565b818103608083015261201d818a611f1e565b905061202c60a0830189611ec9565b81810360c083015261203e8188611f1e565b905081810360e08301526120528187611f1e565b9050612062610100830186611fbf565b612070610120830185611ec9565b61207e610140830184611ec9565b9c9b505050505050505050505050565b61209781611b89565b82525050565b6120a681611ae8565b82525050565b6120b581611c21565b82525050565b600082825260208201905092915050565b60006120d782611ed8565b6120e181856120bb565b93506120f1818560208601611ef4565b6120fa81611c61565b840191505092915050565b61210e81611fad565b82525050565b60006101608301600083015161212d600086018261208e565b506020830151612140602086018261209d565b506040830151612153604086018261209d565b50606083015161216660608601826120ac565b506080830151848203608086015261217e82826120cc565b91505060a083015161219360a08601826120ac565b5060c083015184820360c08601526121ab82826120cc565b91505060e083015184820360e08601526121c582826120cc565b9150506101008301516121dc610100860182612105565b506101208301516121f16101208601826120ac565b506101408301516122066101408601826120ac565b508091505092915050565b6000602082019050818103600083015261222b8184612114565b905092915050565b7f43616c6c6572206973206e6f742061206d616e75666163747572657200000000600082015250565b6000612269601c83611ee3565b915061227482612233565b602082019050919050565b600060208201905081810360008301526122988161225c565b9050919050565b7f52657461696c6572000000000000000000000000000000000000000000000000600082015250565b60006122d5600883611ee3565b91506122e08261229f565b602082019050919050565b60006020820190508181036000830152612304816122c8565b9050919050565b7f4469737472696275746f72000000000000000000000000000000000000000000600082015250565b6000612341600b83611ee3565b915061234c8261230b565b602082019050919050565b6000602082019050818103600083015261237081612334565b9050919050565b7f426174636820646f6573206e6f74206578697374000000000000000000000000600082015250565b60006123ad601483611ee3565b91506123b882612377565b602082019050919050565b600060208201905081810360008301526123dc816123a0565b9050919050565b7f43616c6c6572206973206e6f74207468652063757272656e7420686f6c646572600082015250565b6000612419602083611ee3565b9150612424826123e3565b602082019050919050565b600060208201905081810360008301526124488161240c565b9050919050565b7f4d616e7566616374757265720000000000000000000000000000000000000000600082015250565b6000612485600c83611ee3565b91506124908261244f565b602082019050919050565b600060208201905081810360008301526124b481612478565b9050919050565b7f42617463682049442063616e6e6f7420626520656d7074790000000000000000600082015250565b60006124f1601883611ee3565b91506124fc826124bb565b602082019050919050565b60006020820190508181036000830152612520816124e4565b9050919050565b7f426174636820494420616c726561647920657869737473000000000000000000600082015250565b600061255d601783611ee3565b915061256882612527565b602082019050919050565b6000602082019050818103600083015261258c81612550565b9050919050565b7f5175616e74697479206d7573742062652067726561746572207468616e207a6560008201527f726f000000000000000000000000000000000000000000000000000000000000602082015250565b60006125ef602283611ee3565b91506125fa82612593565b604082019050919050565b6000602082019050818103600083015261261e816125e2565b9050919050565b7f4e487b7100000000000000000000000000000000000000000000000000000000600052602260045260246000fd5b6000600282049050600182168061266c57607f821691505b60208210810361267f5761267e612625565b5b50919050565b60008190508160005260206000209050919050565b60006020601f8301049050919050565b600082821b905092915050565b6000600883026126e77fffffffffffffffffffffffffffffffffffffffffffffffffffffffffffffffff826126aa565b6126f186836126aa565b95508019841693508086168417925050509392505050565b6000819050919050565b600061272e61272961272484611c21565b612709565b611c21565b9050919050565b6000819050919050565b61274883612713565b61275c61275482612735565b8484546126b7565b825550505050565b600090565b612771612764565b61277c81848461273f565b505050565b5b818110156127a057612795600082612769565b600181019050612782565b5050565b601f8211156127e5576127b681612685565b6127bf8461269a565b810160208510156127ce578190505b6127e26127da8561269a565b830182612781565b50505b505050565b600082821c905092915050565b6000612808600019846008026127ea565b1980831691505092915050565b600061282183836127f7565b9150826002028217905092915050565b61283a82611ed8565b67ffffffffffffffff81111561285357612852611c72565b5b61285d8254612654565b6128688282856127a4565b600060209050601f83116001811461289b5760008415612889578287015190505b6128938582612815565b8655506128fb565b601f1984166128a986612685565b60005b828110156128d1578489015182556001820191506020850194506020810190506128ac565b868310156128ee57848901516128ea601f8916826127f7565b8355505b6001600288020188555050505b505050505050565b60006020820190506129186000830184611ec9565b9291505056fea2646970667358221220d27b89c1a316bbe5b7670e3b40ec29b3793e78d7b74bf7219cad865f769efc0164736f6c63430008180033",
  "linkReferences": {},
  "deployedLinkReferences": {}
}