{
  "_format": "hh-sol-artifact-1",
  "contractName": "SupplyChain",
  "sourceName": "contracts/SupplyChain.sol",
  "abi": [
    {
      "inputs": [],
      "stateMutability": "nonpayable",
      "type": "constructor"
    },
    {
      "anonymous": false,
      "inputs": [
        {
          "indexed": true,
          "internalType": "bytes16",
          "name": "batchId",
          "type": "bytes16"
        },
        {
          "indexed": true,
          "internalType": "address",
          "name": "creator",
          "type": "address"
        }
      ],
      "name": "BatchCreated",
      "type": "event"
    },
    {
      "anonymous": false,
      "inputs": [
        {
          "indexed": true,
          "internalType": "bytes16",
          "name": "batchId",
          "type": "bytes16"
        },
        {
          "indexed": true,
          "internalType": "address",
          "name": "receiver",
          "type": "address"
        }
      ],
      "name": "BatchReceived",
      "type": "event"
    },
    {
      "anonymous": false,
      "inputs": [
        {
          "indexed": true,
          "internalType": "bytes16",
          "name": "batchId",
          "type": "bytes16"
        },
        {
          "indexed": true,
          "internalType": "address",
          "name": "from",
          "type": "address"
        },
        {
          "indexed": true,
          "internalType": "address",
          "name": "to",
          "type": "address"
        }
      ],
      "name": "BatchTransferred",
      "type": "event"
    },
    {
      "anonymous": false,
      "inputs": [
        {
          "indexed": true,
          "internalType": "address",
          "name": "user",
          "type": "address"
        },
        {
          "indexed": false,
          "internalType": "string",
          "name": "role",
          "type": "string"
        }
      ],
      "name": "RoleGranted",
      "type": "event"
    },
    {
      "anonymous": false,
      "inputs": [
        {
          "indexed": true,
          "internalType": "address",
          "name": "user",
          "type": "address"
        },
        {
          "indexed": false,
          "internalType": "string",
          "name": "role",
          "type": "string"
        }
      ],
      "name": "RoleRevoked",
      "type": "event"
    },
    {
      "inputs": [
        {
          "internalType": "address",
          "name": "_from",
          "type": "address"
        },
        {
          "internalType": "address",
          "name": "_to",
          "type": "address"
        }
      ],
      "name": "canTransferTo",
      "outputs": [
        {
          "internalType": "bool",
          "name": "",
          "type": "bool"
        }
      ],
      "stateMutability": "view",
      "type": "function"
    },
    {
      "inputs": [
        {
          "internalType": "bytes16",
          "name": "_batchId",
          "type": "bytes16"
        },
        {
          "internalType": "string",
          "name": "_ewaybillNo",
          "type": "string"
        },
        {
          "internalType": "string",
          "name": "_currentLocation",
          "type": "string"
        }
      ],
      "name": "createBatch",
      "outputs": [],
      "stateMutability": "nonpayable",
      "type": "function"
    },
    {
      "inputs": [
        {
          "internalType": "bytes16",
          "name": "_batchId",
          "type": "bytes16"
        }
      ],
      "name": "getBatch",
      "outputs": [
        {
          "components": [
            {
              "internalType": "bytes16",
              "name": "batchId",
              "type": "bytes16"
            },
            {
              "internalType": "address",
              "name": "creator",
              "type": "address"
            },
            {
              "internalType": "address",
              "name": "currentHolder",
              "type": "address"
            },
            {
              "internalType": "address",
              "name": "intendedRecipient",
              "type": "address"
            },
            {
              "internalType": "string",
              "name": "ewaybillNo",
              "type": "string"
            },
            {
              "internalType": "string",
              "name": "currentLocation",
              "type": "string"
            },
            {
              "internalType": "enum SupplyChain.Status",
              "name": "status",
              "type": "uint8"
            },
            {
              "internalType": "uint256",
              "name": "createdAt",
              "type": "uint256"
            },
            {
              "internalType": "uint256",
              "name": "updatedAt",
              "type": "uint256"
            }
          ],
          "internalType": "struct SupplyChain.Batch",
          "name": "",
          "type": "tuple"
        }
      ],
      "stateMutability": "view",
      "type": "function"
    },
    {
      "inputs": [
        {
          "internalType": "address",
          "name": "_user",
          "type": "address"
        }
      ],
      "name": "getUserRole",
      "outputs": [
        {
          "internalType": "string",
          "name": "",
          "type": "string"
        }
      ],
      "stateMutability": "view",
      "type": "function"
    },
    {
      "inputs": [
        {
          "internalType": "address",
          "name": "_distributor",
          "type": "address"
        }
      ],
      "name": "grantDistributorRole",
      "outputs": [],
      "stateMutability": "nonpayable",
      "type": "function"
    },
    {
      "inputs": [
        {
          "internalType": "address",
          "name": "_manufacturer",
          "type": "address"
        }
      ],
      "name": "grantManufacturerRole",
      "outputs": [],
      "stateMutability": "nonpayable",
      "type": "function"
    },
    {
      "inputs": [
        {
          "internalType": "address",
          "name": "_retailer",
          "type": "address"
        }
      ],
      "name": "grantRetailerRole",
      "outputs": [],
      "stateMutability": "nonpayable",
      "type": "function"
    },
    {
      "inputs": [
        {
          "internalType": "address",
          "name": "",
          "type": "address"
        }
      ],
      "name": "isDistributor",
      "outputs": [
        {
          "internalType": "bool",
          "name": "",
          "type": "bool"
        }
      ],
      "stateMutability": "view",
      "type": "function"
    },
    {
      "inputs": [
        {
          "internalType": "address",
          "name": "",
          "type": "address"
        }
      ],
      "name": "isManufacturer",
      "outputs": [
        {
          "internalType": "bool",
          "name": "",
          "type": "bool"
        }
      ],
      "stateMutability": "view",
      "type": "function"
    },
    {
      "inputs": [
        {
          "internalType": "address",
          "name": "",
          "type": "address"
        }
      ],
      "name": "isRetailer",
      "outputs": [
        {
          "internalType": "bool",
          "name": "",
          "type": "bool"
        }
      ],
      "stateMutability": "view",
      "type": "function"
    },
    {
      "inputs": [
        {
          "internalType": "bytes16",
          "name": "",
          "type": "bytes16"
        }
      ],
      "name": "products",
      "outputs": [
        {
          "internalType": "bytes16",
          "name": "batchId",
          "type": "bytes16"
        },
        {
          "internalType": "address",
          "name": "creator",
          "type": "address"
        },
        {
          "internalType": "address",
          "name": "currentHolder",
          "type": "address"
        },
        {
          "internalType": "address",
          "name": "intendedRecipient",
          "type": "address"
        },
        {
          "internalType": "string",
          "name": "ewaybillNo",
          "type": "string"
        },
        {
          "internalType": "string",
          "name": "currentLocation",
          "type": "string"
        },
        {
          "internalType": "enum SupplyChain.Status",
          "name": "status",
          "type": "uint8"
        },
        {
          "internalType": "uint256",
          "name": "createdAt",
          "type": "uint256"
        },
        {
          "internalType": "uint256",
          "name": "updatedAt",
          "type": "uint256"
        }
      ],
      "stateMutability": "view",
      "type": "function"
    },
    {
      "inputs": [
        {
          "internalType": "bytes16",
          "name": "_batchId",
          "type": "bytes16"
        },
        {
          "internalType": "string",
          "name": "_currentLocation",
          "type": "string"
        }
      ],
      "name": "receiveBatch",
      "outputs": [],
      "stateMutability": "nonpayable",
      "type": "function"
    },
    {
      "inputs": [
        {
          "internalType": "address",
          "name": "_distributor",
          "type": "address"
        }
      ],
      "name": "revokeDistributorRole",
      "outputs": [],
      "stateMutability": "nonpayable",
      "type": "function"
    },
    {
      "inputs": [
        {
          "internalType": "address",
          "name": "_retailer",
          "type": "address"
        }
      ],
      "name": "revokeRetailerRole",
      "outputs": [],
      "stateMutability": "nonpayable",
      "type": "function"
    },
    {
      "inputs": [
        {
          "internalType": "bytes16",
          "name": "_batchId",
          "type": "bytes16"
        },
        {
          "internalType": "address",
          "name": "_recipient",
          "type": "address"
        }
      ],
      "name": "transferBatch",
      "outputs": [],
      "stateMutability": "nonpayable",
      "type": "function"
    }
  ],
  "bytecode": "0x60806040523480156200001157600080fd5b5060016000803373ffffffffffffffffffffffffffffffffffffffff1673ffffffffffffffffffffffffffffffffffffffff16815260200190815260200160002060006101000a81548160ff0219169083151502179055503373ffffffffffffffffffffffffffffffffffffffff167fb710f7d3e79cb091613cfea70444ea824ad23f2b1297bdea427bc6f097e346a8604051620000af906200011e565b60405180910390a262000140565b600082825260208201905092915050565b7f4d616e7566616374757265720000000000000000000000000000000000000000600082015250565b600062000106600c83620000bd565b91506200011382620000ce565b602082019050919050565b600060208201905081810360008301526200013981620000f7565b9050919050565b6136db80620001506000396000f3fe608060405234801561001057600080fd5b50600436106100f55760003560e01c80635da09b88116100975780638f0c86fa116100665780638f0c86fa1461029a578063df7c4c39146102ca578063e655806e146102e6578063f9f806e114610316576100f5565b80635da09b88146101fa57806366ea9f001461022a5780637e485fcf146102465780638bba2a0a1461027e576100f5565b806318c8ea30116100d357806318c8ea301461017657806327820851146101925780634fb810fb146101c257806355c4281e146101de576100f5565b806309d612c6146100fa57806317485f421461012a57806317d4a49114610146575b600080fd5b610114600480360381019061010f9190612530565b610332565b604051610121919061258b565b60405180910390f35b610144600480360381019061013f91906125a6565b6105c0565b005b610160600480360381019061015b91906125a6565b61072b565b60405161016d919061258b565b60405180910390f35b610190600480360381019061018b91906125a6565b61074b565b005b6101ac60048036038101906101a791906125a6565b6108b6565b6040516101b99190612663565b60405180910390f35b6101dc60048036038101906101d791906126dd565b610aa2565b005b6101f860048036038101906101f391906125a6565b611266565b005b610214600480360381019061020f91906125a6565b611345565b604051610221919061258b565b60405180910390f35b610244600480360381019061023f9190612852565b611365565b005b610260600480360381019061025b91906128dd565b611791565b604051610275999897969594939291906129b8565b60405180910390f35b610298600480360381019061029391906125a6565b611969565b005b6102b460048036038101906102af91906125a6565b611ad3565b6040516102c1919061258b565b60405180910390f35b6102e460048036038101906102df9190612a53565b611af3565b005b61030060048036038101906102fb91906128dd565b611f19565b60405161030d9190612c01565b60405180910390f35b610330600480360381019061032b91906125a6565b6122a0565b005b60008173ffffffffffffffffffffffffffffffffffffffff168373ffffffffffffffffffffffffffffffffffffffff160361037057600090506105ba565b6000808473ffffffffffffffffffffffffffffffffffffffff1673ffffffffffffffffffffffffffffffffffffffff16815260200190815260200160002060009054906101000a900460ff161561041557600160008373ffffffffffffffffffffffffffffffffffffffff1673ffffffffffffffffffffffffffffffffffffffff16815260200190815260200160002060009054906101000a900460ff1690506105ba565b600160008473ffffffffffffffffffffffffffffffffffffffff1673ffffffffffffffffffffffffffffffffffffffff16815260200190815260200160002060009054906101000a900460ff161561050f57600160008373ffffffffffffffffffffffffffffffffffffffff1673ffffffffffffffffffffffffffffffffffffffff16815260200190815260200160002060009054906101000a900460ff16806105085750600260008373ffffffffffffffffffffffffffffffffffffffff1673ffffffffffffffffffffffffffffffffffffffff16815260200190815260200160002060009054906101000a900460ff165b90506105ba565b600260008473ffffffffffffffffffffffffffffffffffffffff1673ffffffffffffffffffffffffffffffffffffffff16815260200190815260200160002060009054906101000a900460ff16156105b557600260008373ffffffffffffffffffffffffffffffffffffffff1673ffffffffffffffffffffffffffffffffffffffff16815260200190815260200160002060009054906101000a900460ff1690506105ba565b600090505b92915050565b6000803373ffffffffffffffffffffffffffffffffffffffff1673ffffffffffffffffffffffffffffffffffffffff16815260200190815260200160002060009054906101000a900460ff1661064b576040517f08c379a000000000000000000000000000000000000000000000000000000000815260040161064290612c6f565b60405180910390fd5b600073ffffffffffffffffffffffffffffffffffffffff168173ffffffffffffffffffffffffffffffffffffffff160361068457600080fd5b6000600260008373ffffffffffffffffffffffffffffffffffffffff1673ffffffffffffffffffffffffffffffffffffffff16815260200190815260200160002060006101000a81548160ff0219169083151502179055508073ffffffffffffffffffffffffffffffffffffffff167f9f43a01c0d4ff5aff09b3b9b472df707ceefd3f948f8942f10fa1562a892130460405161072090612cdb565b60405180910390a250565b60006020528060005260406000206000915054906101000a900460ff1681565b6000803373ffffffffffffffffffffffffffffffffffffffff1673ffffffffffffffffffffffffffffffffffffffff16815260200190815260200160002060009054906101000a900460ff166107d6576040517f08c379a00000000000000000000000000000000000000000000000000000000081526004016107cd90612c6f565b60405180910390fd5b600073ffffffffffffffffffffffffffffffffffffffff168173ffffffffffffffffffffffffffffffffffffffff160361080f57600080fd5b6000600160008373ffffffffffffffffffffffffffffffffffffffff1673ffffffffffffffffffffffffffffffffffffffff16815260200190815260200160002060006101000a81548160ff0219169083151502179055508073ffffffffffffffffffffffffffffffffffffffff167f9f43a01c0d4ff5aff09b3b9b472df707ceefd3f948f8942f10fa1562a89213046040516108ab90612d47565b60405180910390a250565b60606000808373ffffffffffffffffffffffffffffffffffffffff1673ffffffffffffffffffffffffffffffffffffffff16815260200190815260200160002060009054906101000a900460ff1615610946576040518060400160405280600c81526020017f6d616e75666163747572657200000000000000000000000000000000000000008152509050610a9d565b600160008373ffffffffffffffffffffffffffffffffffffffff1673ffffffffffffffffffffffffffffffffffffffff16815260200190815260200160002060009054906101000a900460ff16156109d5576040518060400160405280600b81526020017f6469737472696275746f720000000000000000000000000000000000000000008152509050610a9d565b600260008373ffffffffffffffffffffffffffffffffffffffff1673ffffffffffffffffffffffffffffffffffffffff16815260200190815260200160002060009054906101000a900460ff1615610a64576040518060400160405280600881526020017f72657461696c65720000000000000000000000000000000000000000000000008152509050610a9d565b6040518060400160405280600481526020017f6e6f6e650000000000000000000000000000000000000000000000000000000081525090505b919050565b81600060036000836fffffffffffffffffffffffffffffffff19166fffffffffffffffffffffffffffffffff191681526020019081526020016000206007015403610b22576040517f08c379a0000000000000000000000000000000000000000000000000000000008152600401610b1990612db3565b60405180910390fd5b8260036000826fffffffffffffffffffffffffffffffff19166fffffffffffffffffffffffffffffffff1916815260200190815260200160002060020160009054906101000a900473ffffffffffffffffffffffffffffffffffffffff1673ffffffffffffffffffffffffffffffffffffffff163373ffffffffffffffffffffffffffffffffffffffff1614610bed576040517f08c379a0000000000000000000000000000000000000000000000000000000008152600401610be490612e1f565b60405180910390fd5b6000803373ffffffffffffffffffffffffffffffffffffffff1673ffffffffffffffffffffffffffffffffffffffff16815260200190815260200160002060009054906101000a900460ff1680610c8d5750600160003373ffffffffffffffffffffffffffffffffffffffff1673ffffffffffffffffffffffffffffffffffffffff16815260200190815260200160002060009054906101000a900460ff165b80610ce15750600260003373ffffffffffffffffffffffffffffffffffffffff1673ffffffffffffffffffffffffffffffffffffffff16815260200190815260200160002060009054906101000a900460ff165b610d20576040517f08c379a0000000000000000000000000000000000000000000000000000000008152600401610d1790612eb1565b60405180910390fd5b600073ffffffffffffffffffffffffffffffffffffffff168373ffffffffffffffffffffffffffffffffffffffff1603610d8f576040517f08c379a0000000000000000000000000000000000000000000000000000000008152600401610d8690612f43565b60405180910390fd5b3373ffffffffffffffffffffffffffffffffffffffff168373ffffffffffffffffffffffffffffffffffffffff1603610dfd576040517f08c379a0000000000000000000000000000000000000000000000000000000008152600401610df490612faf565b60405180910390fd5b6000803373ffffffffffffffffffffffffffffffffffffffff1673ffffffffffffffffffffffffffffffffffffffff16815260200190815260200160002060009054906101000a900460ff1615610edf57600160008473ffffffffffffffffffffffffffffffffffffffff1673ffffffffffffffffffffffffffffffffffffffff16815260200190815260200160002060009054906101000a900460ff16610eda576040517f08c379a0000000000000000000000000000000000000000000000000000000008152600401610ed190613041565b60405180910390fd5b6110f7565b600160003373ffffffffffffffffffffffffffffffffffffffff1673ffffffffffffffffffffffffffffffffffffffff16815260200190815260200160002060009054906101000a900460ff161561101657600160008473ffffffffffffffffffffffffffffffffffffffff1673ffffffffffffffffffffffffffffffffffffffff16815260200190815260200160002060009054906101000a900460ff1680610fd25750600260008473ffffffffffffffffffffffffffffffffffffffff1673ffffffffffffffffffffffffffffffffffffffff16815260200190815260200160002060009054906101000a900460ff165b611011576040517f08c379a0000000000000000000000000000000000000000000000000000000008152600401611008906130d3565b60405180910390fd5b6110f6565b600260003373ffffffffffffffffffffffffffffffffffffffff1673ffffffffffffffffffffffffffffffffffffffff16815260200190815260200160002060009054906101000a900460ff16156110f557600260008473ffffffffffffffffffffffffffffffffffffffff1673ffffffffffffffffffffffffffffffffffffffff16815260200190815260200160002060009054906101000a900460ff166110f4576040517f08c379a00000000000000000000000000000000000000000000000000000000081526004016110eb90613165565b60405180910390fd5b5b5b5b600060036000866fffffffffffffffffffffffffffffffff19166fffffffffffffffffffffffffffffffff191681526020019081526020016000209050838160030160006101000a81548173ffffffffffffffffffffffffffffffffffffffff021916908373ffffffffffffffffffffffffffffffffffffffff16021790555060008160020160006101000a81548173ffffffffffffffffffffffffffffffffffffffff021916908373ffffffffffffffffffffffffffffffffffffffff16021790555060018160060160006101000a81548160ff021916908360028111156111e3576111e2612928565b5b02179055504281600801819055508373ffffffffffffffffffffffffffffffffffffffff163373ffffffffffffffffffffffffffffffffffffffff16866fffffffffffffffffffffffffffffffff19167fc26a75d42f427e3bc6902bd22f0f229d7db0dffd0283b57ebe4ad781b751f31660405160405180910390a45050505050565b600073ffffffffffffffffffffffffffffffffffffffff168173ffffffffffffffffffffffffffffffffffffffff160361129f57600080fd5b60016000808373ffffffffffffffffffffffffffffffffffffffff1673ffffffffffffffffffffffffffffffffffffffff16815260200190815260200160002060006101000a81548160ff0219169083151502179055508073ffffffffffffffffffffffffffffffffffffffff167fb710f7d3e79cb091613cfea70444ea824ad23f2b1297bdea427bc6f097e346a860405161133a906131d1565b60405180910390a250565b60026020528060005260406000206000915054906101000a900460ff1681565b6000803373ffffffffffffffffffffffffffffffffffffffff1673ffffffffffffffffffffffffffffffffffffffff16815260200190815260200160002060009054906101000a900460ff166113f0576040517f08c379a00000000000000000000000000000000000000000000000000000000081526004016113e790612c6f565b60405180910390fd5b600060801b6fffffffffffffffffffffffffffffffff1916836fffffffffffffffffffffffffffffffff19160361145c576040517f08c379a00000000000000000000000000000000000000000000000000000000081526004016114539061323d565b60405180910390fd5b600060036000856fffffffffffffffffffffffffffffffff19166fffffffffffffffffffffffffffffffff1916815260200190815260200160002060070154146114db576040517f08c379a00000000000000000000000000000000000000000000000000000000081526004016114d2906132a9565b60405180910390fd5b604051806101200160405280846fffffffffffffffffffffffffffffffff191681526020013373ffffffffffffffffffffffffffffffffffffffff1681526020013373ffffffffffffffffffffffffffffffffffffffff168152602001600073ffffffffffffffffffffffffffffffffffffffff16815260200183815260200182815260200160028081111561157457611573612928565b5b81526020014281526020014281525060036000856fffffffffffffffffffffffffffffffff19166fffffffffffffffffffffffffffffffff1916815260200190815260200160002060008201518160000160006101000a8154816fffffffffffffffffffffffffffffffff021916908360801c021790555060208201518160010160006101000a81548173ffffffffffffffffffffffffffffffffffffffff021916908373ffffffffffffffffffffffffffffffffffffffff16021790555060408201518160020160006101000a81548173ffffffffffffffffffffffffffffffffffffffff021916908373ffffffffffffffffffffffffffffffffffffffff16021790555060608201518160030160006101000a81548173ffffffffffffffffffffffffffffffffffffffff021916908373ffffffffffffffffffffffffffffffffffffffff16021790555060808201518160040190816116d691906134d5565b5060a08201518160050190816116ec91906134d5565b5060c08201518160060160006101000a81548160ff0219169083600281111561171857611717612928565b5b021790555060e0820151816007015561010082015181600801559050503373ffffffffffffffffffffffffffffffffffffffff16836fffffffffffffffffffffffffffffffff19167f73f2f08f2249372fd110ba62c104c8af385e7b78777e92d90806c8488d1692a860405160405180910390a3505050565b60036020528060005260406000206000915090508060000160009054906101000a900460801b908060010160009054906101000a900473ffffffffffffffffffffffffffffffffffffffff16908060020160009054906101000a900473ffffffffffffffffffffffffffffffffffffffff16908060030160009054906101000a900473ffffffffffffffffffffffffffffffffffffffff1690806004018054611839906132f8565b80601f0160208091040260200160405190810160405280929190818152602001828054611865906132f8565b80156118b25780601f10611887576101008083540402835291602001916118b2565b820191906000526020600020905b81548152906001019060200180831161189557829003601f168201915b5050505050908060050180546118c7906132f8565b80601f01602080910402602001604051908101604052809291908181526020018280546118f3906132f8565b80156119405780601f1061191557610100808354040283529160200191611940565b820191906000526020600020905b81548152906001019060200180831161192357829003601f168201915b5050505050908060060160009054906101000a900460ff16908060070154908060080154905089565b6000803373ffffffffffffffffffffffffffffffffffffffff1673ffffffffffffffffffffffffffffffffffffffff16815260200190815260200160002060009054906101000a900460ff166119f4576040517f08c379a00000000000000000000000000000000000000000000000000000000081526004016119eb90612c6f565b60405180910390fd5b600073ffffffffffffffffffffffffffffffffffffffff168173ffffffffffffffffffffffffffffffffffffffff1603611a2d57600080fd5b60018060008373ffffffffffffffffffffffffffffffffffffffff1673ffffffffffffffffffffffffffffffffffffffff16815260200190815260200160002060006101000a81548160ff0219169083151502179055508073ffffffffffffffffffffffffffffffffffffffff167fb710f7d3e79cb091613cfea70444ea824ad23f2b1297bdea427bc6f097e346a8604051611ac890612d47565b60405180910390a250565b60016020528060005260406000206000915054906101000a900460ff1681565b81600060036000836fffffffffffffffffffffffffffffffff19166fffffffffffffffffffffffffffffffff191681526020019081526020016000206007015403611b73576040517f08c379a0000000000000000000000000000000000000000000000000000000008152600401611b6a90612db3565b60405180910390fd5b6000803373ffffffffffffffffffffffffffffffffffffffff1673ffffffffffffffffffffffffffffffffffffffff16815260200190815260200160002060009054906101000a900460ff1680611c135750600160003373ffffffffffffffffffffffffffffffffffffffff1673ffffffffffffffffffffffffffffffffffffffff16815260200190815260200160002060009054906101000a900460ff165b80611c675750600260003373ffffffffffffffffffffffffffffffffffffffff1673ffffffffffffffffffffffffffffffffffffffff16815260200190815260200160002060009054906101000a900460ff165b611ca6576040517f08c379a0000000000000000000000000000000000000000000000000000000008152600401611c9d90612eb1565b60405180910390fd5b600060036000856fffffffffffffffffffffffffffffffff19166fffffffffffffffffffffffffffffffff1916815260200190815260200160002090508060030160009054906101000a900473ffffffffffffffffffffffffffffffffffffffff1673ffffffffffffffffffffffffffffffffffffffff163373ffffffffffffffffffffffffffffffffffffffff1614611d75576040517f08c379a0000000000000000000000000000000000000000000000000000000008152600401611d6c90613619565b60405180910390fd5b60016002811115611d8957611d88612928565b5b8160060160009054906101000a900460ff166002811115611dad57611dac612928565b5b14611ded576040517f08c379a0000000000000000000000000000000000000000000000000000000008152600401611de490613685565b60405180910390fd5b338160020160006101000a81548173ffffffffffffffffffffffffffffffffffffffff021916908373ffffffffffffffffffffffffffffffffffffffff16021790555082816005019081611e4191906134d5565b5060008160030160006101000a81548173ffffffffffffffffffffffffffffffffffffffff021916908373ffffffffffffffffffffffffffffffffffffffff16021790555060028160060160006101000a81548160ff02191690836002811115611eae57611ead612928565b5b02179055504281600801819055503373ffffffffffffffffffffffffffffffffffffffff16846fffffffffffffffffffffffffffffffff19167f7469c2db4895aa5df731f69556ac4557e205b92b3f61a44b20a15e302c6bcfd060405160405180910390a350505050565b611f2161240b565b81600060036000836fffffffffffffffffffffffffffffffff19166fffffffffffffffffffffffffffffffff191681526020019081526020016000206007015403611fa1576040517f08c379a0000000000000000000000000000000000000000000000000000000008152600401611f9890612db3565b60405180910390fd5b60036000846fffffffffffffffffffffffffffffffff19166fffffffffffffffffffffffffffffffff19168152602001908152602001600020604051806101200160405290816000820160009054906101000a900460801b6fffffffffffffffffffffffffffffffff19166fffffffffffffffffffffffffffffffff191681526020016001820160009054906101000a900473ffffffffffffffffffffffffffffffffffffffff1673ffffffffffffffffffffffffffffffffffffffff1673ffffffffffffffffffffffffffffffffffffffff1681526020016002820160009054906101000a900473ffffffffffffffffffffffffffffffffffffffff1673ffffffffffffffffffffffffffffffffffffffff1673ffffffffffffffffffffffffffffffffffffffff1681526020016003820160009054906101000a900473ffffffffffffffffffffffffffffffffffffffff1673ffffffffffffffffffffffffffffffffffffffff1673ffffffffffffffffffffffffffffffffffffffff168152602001600482018054612135906132f8565b80601f0160208091040260200160405190810160405280929190818152602001828054612161906132f8565b80156121ae5780601f10612183576101008083540402835291602001916121ae565b820191906000526020600020905b81548152906001019060200180831161219157829003601f168201915b505050505081526020016005820180546121c7906132f8565b80601f01602080910402602001604051908101604052809291908181526020018280546121f3906132f8565b80156122405780601f1061221557610100808354040283529160200191612240565b820191906000526020600020905b81548152906001019060200180831161222357829003601f168201915b505050505081526020016006820160009054906101000a900460ff16600281111561226e5761226d612928565b5b60028111156122805761227f612928565b5b815260200160078201548152602001600882015481525050915050919050565b6000803373ffffffffffffffffffffffffffffffffffffffff1673ffffffffffffffffffffffffffffffffffffffff16815260200190815260200160002060009054906101000a900460ff1661232b576040517f08c379a000000000000000000000000000000000000000000000000000000000815260040161232290612c6f565b60405180910390fd5b600073ffffffffffffffffffffffffffffffffffffffff168173ffffffffffffffffffffffffffffffffffffffff160361236457600080fd5b6001600260008373ffffffffffffffffffffffffffffffffffffffff1673ffffffffffffffffffffffffffffffffffffffff16815260200190815260200160002060006101000a81548160ff0219169083151502179055508073ffffffffffffffffffffffffffffffffffffffff167fb710f7d3e79cb091613cfea70444ea824ad23f2b1297bdea427bc6f097e346a860405161240090612cdb565b60405180910390a250565b60405180610120016040528060006fffffffffffffffffffffffffffffffff19168152602001600073ffffffffffffffffffffffffffffffffffffffff168152602001600073ffffffffffffffffffffffffffffffffffffffff168152602001600073ffffffffffffffffffffffffffffffffffffffff1681526020016060815260200160608152602001600060028111156124aa576124a9612928565b5b815260200160008152602001600081525090565b6000604051905090565b600080fd5b600080fd5b600073ffffffffffffffffffffffffffffffffffffffff82169050919050565b60006124fd826124d2565b9050919050565b61250d816124f2565b811461251857600080fd5b50565b60008135905061252a81612504565b92915050565b60008060408385031215612547576125466124c8565b5b60006125558582860161251b565b92505060206125668582860161251b565b9150509250929050565b60008115159050919050565b61258581612570565b82525050565b60006020820190506125a0600083018461257c565b92915050565b6000602082840312156125bc576125bb6124c8565b5b60006125ca8482850161251b565b91505092915050565b600081519050919050565b600082825260208201905092915050565b60005b8381101561260d5780820151818401526020810190506125f2565b60008484015250505050565b6000601f19601f8301169050919050565b6000612635826125d3565b61263f81856125de565b935061264f8185602086016125ef565b61265881612619565b840191505092915050565b6000602082019050818103600083015261267d818461262a565b905092915050565b60007fffffffffffffffffffffffffffffffff0000000000000000000000000000000082169050919050565b6126ba81612685565b81146126c557600080fd5b50565b6000813590506126d7816126b1565b92915050565b600080604083850312156126f4576126f36124c8565b5b6000612702858286016126c8565b92505060206127138582860161251b565b9150509250929050565b600080fd5b600080fd5b7f4e487b7100000000000000000000000000000000000000000000000000000000600052604160045260246000fd5b61275f82612619565b810181811067ffffffffffffffff8211171561277e5761277d612727565b5b80604052505050565b60006127916124be565b905061279d8282612756565b919050565b600067ffffffffffffffff8211156127bd576127bc612727565b5b6127c682612619565b9050602081019050919050565b82818337600083830152505050565b60006127f56127f0846127a2565b612787565b90508281526020810184848401111561281157612810612722565b5b61281c8482856127d3565b509392505050565b600082601f8301126128395761283861271d565b5b81356128498482602086016127e2565b91505092915050565b60008060006060848603121561286b5761286a6124c8565b5b6000612879868287016126c8565b935050602084013567ffffffffffffffff81111561289a576128996124cd565b5b6128a686828701612824565b925050604084013567ffffffffffffffff8111156128c7576128c66124cd565b5b6128d386828701612824565b9150509250925092565b6000602082840312156128f3576128f26124c8565b5b6000612901848285016126c8565b91505092915050565b61291381612685565b82525050565b612922816124f2565b82525050565b7f4e487b7100000000000000000000000000000000000000000000000000000000600052602160045260246000fd5b6003811061296857612967612928565b5b50565b600081905061297982612957565b919050565b60006129898261296b565b9050919050565b6129998161297e565b82525050565b6000819050919050565b6129b28161299f565b82525050565b6000610120820190506129ce600083018c61290a565b6129db602083018b612919565b6129e8604083018a612919565b6129f56060830189612919565b8181036080830152612a07818861262a565b905081810360a0830152612a1b818761262a565b9050612a2a60c0830186612990565b612a3760e08301856129a9565b612a456101008301846129a9565b9a9950505050505050505050565b60008060408385031215612a6a57612a696124c8565b5b6000612a78858286016126c8565b925050602083013567ffffffffffffffff811115612a9957612a986124cd565b5b612aa585828601612824565b9150509250929050565b612ab881612685565b82525050565b612ac7816124f2565b82525050565b600082825260208201905092915050565b6000612ae9826125d3565b612af38185612acd565b9350612b038185602086016125ef565b612b0c81612619565b840191505092915050565b612b208161297e565b82525050565b612b2f8161299f565b82525050565b600061012083016000830151612b4e6000860182612aaf565b506020830151612b616020860182612abe565b506040830151612b746040860182612abe565b506060830151612b876060860182612abe565b5060808301518482036080860152612b9f8282612ade565b91505060a083015184820360a0860152612bb98282612ade565b91505060c0830151612bce60c0860182612b17565b5060e0830151612be160e0860182612b26565b50610100830151612bf6610100860182612b26565b508091505092915050565b60006020820190508181036000830152612c1b8184612b35565b905092915050565b7f43616c6c6572206973206e6f742061206d616e75666163747572657200000000600082015250565b6000612c59601c836125de565b9150612c6482612c23565b602082019050919050565b60006020820190508181036000830152612c8881612c4c565b9050919050565b7f52657461696c6572000000000000000000000000000000000000000000000000600082015250565b6000612cc56008836125de565b9150612cd082612c8f565b602082019050919050565b60006020820190508181036000830152612cf481612cb8565b9050919050565b7f4469737472696275746f72000000000000000000000000000000000000000000600082015250565b6000612d31600b836125de565b9150612d3c82612cfb565b602082019050919050565b60006020820190508181036000830152612d6081612d24565b9050919050565b7f426174636820646f6573206e6f74206578697374000000000000000000000000600082015250565b6000612d9d6014836125de565b9150612da882612d67565b602082019050919050565b60006020820190508181036000830152612dcc81612d90565b9050919050565b7f43616c6c6572206973206e6f74207468652063757272656e7420686f6c646572600082015250565b6000612e096020836125de565b9150612e1482612dd3565b602082019050919050565b60006020820190508181036000830152612e3881612dfc565b9050919050565b7f43616c6c657220646f6573206e6f74206861766520616e792076616c6964207260008201527f6f6c650000000000000000000000000000000000000000000000000000000000602082015250565b6000612e9b6023836125de565b9150612ea682612e3f565b604082019050919050565b60006020820190508181036000830152612eca81612e8e565b9050919050565b7f526563697069656e742063616e6e6f7420626520746865207a65726f2061646460008201527f7265737300000000000000000000000000000000000000000000000000000000602082015250565b6000612f2d6024836125de565b9150612f3882612ed1565b604082019050919050565b60006020820190508181036000830152612f5c81612f20565b9050919050565b7f43616e6e6f74207472616e7366657220746f20796f757273656c660000000000600082015250565b6000612f99601b836125de565b9150612fa482612f63565b602082019050919050565b60006020820190508181036000830152612fc881612f8c565b9050919050565b7f4d616e7566616374757265722063616e206f6e6c79207472616e73666572207460008201527f6f206469737472696275746f7273000000000000000000000000000000000000602082015250565b600061302b602e836125de565b915061303682612fcf565b604082019050919050565b6000602082019050818103600083015261305a8161301e565b9050919050565b7f4469737472696275746f722063616e206f6e6c79207472616e7366657220746f60008201527f206469737472696275746f7273206f722072657461696c657273000000000000602082015250565b60006130bd603a836125de565b91506130c882613061565b604082019050919050565b600060208201905081810360008301526130ec816130b0565b9050919050565b7f52657461696c65722063616e206f6e6c79207472616e7366657220746f206f7460008201527f6865722072657461696c65727300000000000000000000000000000000000000602082015250565b600061314f602d836125de565b915061315a826130f3565b604082019050919050565b6000602082019050818103600083015261317e81613142565b9050919050565b7f4d616e7566616374757265720000000000000000000000000000000000000000600082015250565b60006131bb600c836125de565b91506131c682613185565b602082019050919050565b600060208201905081810360008301526131ea816131ae565b9050919050565b7f42617463682049442063616e6e6f7420626520656d7074790000000000000000600082015250565b60006132276018836125de565b9150613232826131f1565b602082019050919050565b600060208201905081810360008301526132568161321a565b9050919050565b7f426174636820494420616c726561647920657869737473000000000000000000600082015250565b60006132936017836125de565b915061329e8261325d565b602082019050919050565b600060208201905081810360008301526132c281613286565b9050919050565b7f4e487b7100000000000000000000000000000000000000000000000000000000600052602260045260246000fd5b6000600282049050600182168061331057607f821691505b602082108103613323576133226132c9565b5b50919050565b60008190508160005260206000209050919050565b60006020601f8301049050919050565b600082821b905092915050565b60006008830261338b7fffffffffffffffffffffffffffffffffffffffffffffffffffffffffffffffff8261334e565b613395868361334e565b95508019841693508086168417925050509392505050565b6000819050919050565b60006133d26133cd6133c88461299f565b6133ad565b61299f565b9050919050565b6000819050919050565b6133ec836133b7565b6134006133f8826133d9565b84845461335b565b825550505050565b600090565b613415613408565b6134208184846133e3565b505050565b5b818110156134445761343960008261340d565b600181019050613426565b5050565b601f8211156134895761345a81613329565b6134638461333e565b81016020851015613472578190505b61348661347e8561333e565b830182613425565b50505b505050565b600082821c905092915050565b60006134ac6000198460080261348e565b1980831691505092915050565b60006134c5838361349b565b9150826002028217905092915050565b6134de826125d3565b67ffffffffffffffff8111156134f7576134f6612727565b5b61350182546132f8565b61350c828285613448565b600060209050601f83116001811461353f576000841561352d578287015190505b61353785826134b9565b86555061359f565b601f19841661354d86613329565b60005b8281101561357557848901518255600182019150602085019450602081019050613550565b86831015613592578489015161358e601f89168261349b565b8355505b6001600288020188555050505b505050505050565b7f43616c6c6572206973206e6f742074686520696e74656e64656420726563697060008201527f69656e7400000000000000000000000000000000000000000000000000000000602082015250565b60006136036024836125de565b915061360e826135a7565b604082019050919050565b60006020820190508181036000830152613632816135f6565b9050919050565b7f4261746368206973206e6f7420696e207472616e736974000000000000000000600082015250565b600061366f6017836125de565b915061367a82613639565b602082019050919050565b6000602082019050818103600083015261369e81613662565b905091905056fea2646970667358221220a291336948f4ca12bbe74f8de94aa0b0eedbdc5f2a041d0ab51566d94a32ad2664736f6c63430008180033",
  "linkReferences": {},
  "deployedLinkReferences": {}
}