{
  "_format": "hh-sol-artifact-1",
  "contractName": "SupplyChain",
  "sourceName": "contracts/SupplyChain.sol",
  "abi": [
    {
      "inputs": [],
      "stateMutability": "nonpayable",
      "type": "constructor"
    },
    {
      "anonymous": false,
      "inputs": [
        {
          "indexed": true,
          "internalType": "bytes16",
          "name": "batchId",
          "type": "bytes16"
        },
        {
          "indexed": true,
          "internalType": "address",
          "name": "creator",
          "type": "address"
        }
      ],
      "name": "BatchCreated",
      "type": "event"
    },
    {
      "anonymous": false,
      "inputs": [
        {
          "indexed": true,
          "internalType": "bytes16",
          "name": "batchId",
          "type": "bytes16"
        },
        {
          "indexed": true,
          "internalType": "address",
          "name": "receiver",
          "type": "address"
        }
      ],
      "name": "BatchReceived",
      "type": "event"
    },
    {
      "anonymous": false,
      "inputs": [
        {
          "indexed": true,
          "internalType": "bytes16",
          "name": "batchId",
          "type": "bytes16"
        },
        {
          "indexed": true,
          "internalType": "address",
          "name": "from",
          "type": "address"
        },
        {
          "indexed": true,
          "internalType": "address",
          "name": "to",
          "type": "address"
        }
      ],
      "name": "BatchTransferred",
      "type": "event"
    },
    {
      "anonymous": false,
      "inputs": [
        {
          "indexed": true,
          "internalType": "address",
          "name": "user",
          "type": "address"
        },
        {
          "indexed": false,
          "internalType": "string",
          "name": "role",
          "type": "string"
        }
      ],
      "name": "RoleGranted",
      "type": "event"
    },
    {
      "anonymous": false,
      "inputs": [
        {
          "indexed": true,
          "internalType": "address",
          "name": "user",
          "type": "address"
        },
        {
          "indexed": false,
          "internalType": "string",
          "name": "role",
          "type": "string"
        }
      ],
      "name": "RoleRevoked",
      "type": "event"
    },
    {
      "inputs": [
        {
          "internalType": "address",
          "name": "_from",
          "type": "address"
        },
        {
          "internalType": "address",
          "name": "_to",
          "type": "address"
        }
      ],
      "name": "canTransferTo",
      "outputs": [
        {
          "internalType": "bool",
          "name": "",
          "type": "bool"
        }
      ],
      "stateMutability": "view",
      "type": "function"
    },
    {
      "inputs": [
        {
          "internalType": "bytes16",
          "name": "_batchId",
          "type": "bytes16"
        },
        {
          "internalType": "string",
          "name": "_ewaybillNo",
          "type": "string"
        },
        {
          "internalType": "string",
          "name": "_currentLocation",
          "type": "string"
        }
      ],
      "name": "createBatch",
      "outputs": [],
      "stateMutability": "nonpayable",
      "type": "function"
    },
    {
      "inputs": [
        {
          "internalType": "bytes16",
          "name": "_batchId",
          "type": "bytes16"
        }
      ],
      "name": "getBatch",
      "outputs": [
        {
          "components": [
            {
              "internalType": "bytes16",
              "name": "batchId",
              "type": "bytes16"
            },
            {
              "internalType": "address",
              "name": "creator",
              "type": "address"
            },
            {
              "internalType": "address",
              "name": "currentHolder",
              "type": "address"
            },
            {
              "internalType": "address",
              "name": "intendedRecipient",
              "type": "address"
            },
            {
              "internalType": "string",
              "name": "ewaybillNo",
              "type": "string"
            },
            {
              "internalType": "string",
              "name": "currentLocation",
              "type": "string"
            },
            {
              "internalType": "enum SupplyChain.Status",
              "name": "status",
              "type": "uint8"
            },
            {
              "internalType": "uint256",
              "name": "createdAt",
              "type": "uint256"
            },
            {
              "internalType": "uint256",
              "name": "updatedAt",
              "type": "uint256"
            }
          ],
          "internalType": "struct SupplyChain.Batch",
          "name": "",
          "type": "tuple"
        }
      ],
      "stateMutability": "view",
      "type": "function"
    },
    {
      "inputs": [
        {
          "internalType": "address",
          "name": "_user",
          "type": "address"
        }
      ],
      "name": "getUserRole",
      "outputs": [
        {
          "internalType": "string",
          "name": "",
          "type": "string"
        }
      ],
      "stateMutability": "view",
      "type": "function"
    },
    {
      "inputs": [
        {
          "internalType": "address",
          "name": "_distributor",
          "type": "address"
        }
      ],
      "name": "grantDistributorRole",
      "outputs": [],
      "stateMutability": "nonpayable",
      "type": "function"
    },
    {
      "inputs": [
        {
          "internalType": "address",
          "name": "_manufacturer",
          "type": "address"
        }
      ],
      "name": "grantManufacturerRole",
      "outputs": [],
      "stateMutability": "nonpayable",
      "type": "function"
    },
    {
      "inputs": [
        {
          "internalType": "address",
          "name": "_retailer",
          "type": "address"
        }
      ],
      "name": "grantRetailerRole",
      "outputs": [],
      "stateMutability": "nonpayable",
      "type": "function"
    },
    {
      "inputs": [
        {
          "internalType": "address",
          "name": "",
          "type": "address"
        }
      ],
      "name": "isDistributor",
      "outputs": [
        {
          "internalType": "bool",
          "name": "",
          "type": "bool"
        }
      ],
      "stateMutability": "view",
      "type": "function"
    },
    {
      "inputs": [
        {
          "internalType": "address",
          "name": "",
          "type": "address"
        }
      ],
      "name": "isManufacturer",
      "outputs": [
        {
          "internalType": "bool",
          "name": "",
          "type": "bool"
        }
      ],
      "stateMutability": "view",
      "type": "function"
    },
    {
      "inputs": [
        {
          "internalType": "address",
          "name": "",
          "type": "address"
        }
      ],
      "name": "isRetailer",
      "outputs": [
        {
          "internalType": "bool",
          "name": "",
          "type": "bool"
        }
      ],
      "stateMutability": "view",
      "type": "function"
    },
    {
      "inputs": [
        {
          "internalType": "bytes16",
          "name": "",
          "type": "bytes16"
        }
      ],
      "name": "products",
      "outputs": [
        {
          "internalType": "bytes16",
          "name": "batchId",
          "type": "bytes16"
        },
        {
          "internalType": "address",
          "name": "creator",
          "type": "address"
        },
        {
          "internalType": "address",
          "name": "currentHolder",
          "type": "address"
        },
        {
          "internalType": "address",
          "name": "intendedRecipient",
          "type": "address"
        },
        {
          "internalType": "string",
          "name": "ewaybillNo",
          "type": "string"
        },
        {
          "internalType": "string",
          "name": "currentLocation",
          "type": "string"
        },
        {
          "internalType": "enum SupplyChain.Status",
          "name": "status",
          "type": "uint8"
        },
        {
          "internalType": "uint256",
          "name": "createdAt",
          "type": "uint256"
        },
        {
          "internalType": "uint256",
          "name": "updatedAt",
          "type": "uint256"
        }
      ],
      "stateMutability": "view",
      "type": "function"
    },
    {
      "inputs": [
        {
          "internalType": "bytes16",
          "name": "_batchId",
          "type": "bytes16"
        }
      ],
      "name": "receiveBatch",
      "outputs": [],
      "stateMutability": "nonpayable",
      "type": "function"
    },
    {
      "inputs": [
        {
          "internalType": "address",
          "name": "_distributor",
          "type": "address"
        }
      ],
      "name": "revokeDistributorRole",
      "outputs": [],
      "stateMutability": "nonpayable",
      "type": "function"
    },
    {
      "inputs": [
        {
          "internalType": "address",
          "name": "_retailer",
          "type": "address"
        }
      ],
      "name": "revokeRetailerRole",
      "outputs": [],
      "stateMutability": "nonpayable",
      "type": "function"
    },
    {
      "inputs": [
        {
          "internalType": "bytes16",
          "name": "_batchId",
          "type": "bytes16"
        },
        {
          "internalType": "address",
          "name": "_recipient",
          "type": "address"
        }
      ],
      "name": "transferBatch",
      "outputs": [],
      "stateMutability": "nonpayable",
      "type": "function"
    }
  ],
  "bytecode": "0x60806040523480156200001157600080fd5b5060016000803373ffffffffffffffffffffffffffffffffffffffff1673ffffffffffffffffffffffffffffffffffffffff16815260200190815260200160002060006101000a81548160ff0219169083151502179055503373ffffffffffffffffffffffffffffffffffffffff167fb710f7d3e79cb091613cfea70444ea824ad23f2b1297bdea427bc6f097e346a8604051620000af906200011e565b60405180910390a262000140565b600082825260208201905092915050565b7f4d616e7566616374757265720000000000000000000000000000000000000000600082015250565b600062000106600c83620000bd565b91506200011382620000ce565b602082019050919050565b600060208201905081810360008301526200013981620000f7565b9050919050565b61366c80620001506000396000f3fe608060405234801561001057600080fd5b50600436106100f55760003560e01c80635da09b88116100975780638f0c86fa116100665780638f0c86fa1461029a578063be489acb146102ca578063e655806e146102e6578063f9f806e114610316576100f5565b80635da09b88146101fa57806366ea9f001461022a5780637e485fcf146102465780638bba2a0a1461027e576100f5565b806318c8ea30116100d357806318c8ea301461017657806327820851146101925780634fb810fb146101c257806355c4281e146101de576100f5565b806309d612c6146100fa57806317485f421461012a57806317d4a49114610146575b600080fd5b610114600480360381019061010f919061251d565b610332565b6040516101219190612578565b60405180910390f35b610144600480360381019061013f9190612593565b6105c0565b005b610160600480360381019061015b9190612593565b61072b565b60405161016d9190612578565b60405180910390f35b610190600480360381019061018b9190612593565b61074b565b005b6101ac60048036038101906101a79190612593565b6108b6565b6040516101b99190612650565b60405180910390f35b6101dc60048036038101906101d791906126ca565b610aa2565b005b6101f860048036038101906101f39190612593565b611266565b005b610214600480360381019061020f9190612593565b611345565b6040516102219190612578565b60405180910390f35b610244600480360381019061023f919061283f565b611365565b005b610260600480360381019061025b91906128ca565b611791565b604051610275999897969594939291906129a5565b60405180910390f35b61029860048036038101906102939190612593565b611969565b005b6102b460048036038101906102af9190612593565b611ad3565b6040516102c19190612578565b60405180910390f35b6102e460048036038101906102df91906128ca565b611af3565b005b61030060048036038101906102fb91906128ca565b611f06565b60405161030d9190612b92565b60405180910390f35b610330600480360381019061032b9190612593565b61228d565b005b60008173ffffffffffffffffffffffffffffffffffffffff168373ffffffffffffffffffffffffffffffffffffffff160361037057600090506105ba565b6000808473ffffffffffffffffffffffffffffffffffffffff1673ffffffffffffffffffffffffffffffffffffffff16815260200190815260200160002060009054906101000a900460ff161561041557600160008373ffffffffffffffffffffffffffffffffffffffff1673ffffffffffffffffffffffffffffffffffffffff16815260200190815260200160002060009054906101000a900460ff1690506105ba565b600160008473ffffffffffffffffffffffffffffffffffffffff1673ffffffffffffffffffffffffffffffffffffffff16815260200190815260200160002060009054906101000a900460ff161561050f57600160008373ffffffffffffffffffffffffffffffffffffffff1673ffffffffffffffffffffffffffffffffffffffff16815260200190815260200160002060009054906101000a900460ff16806105085750600260008373ffffffffffffffffffffffffffffffffffffffff1673ffffffffffffffffffffffffffffffffffffffff16815260200190815260200160002060009054906101000a900460ff165b90506105ba565b600260008473ffffffffffffffffffffffffffffffffffffffff1673ffffffffffffffffffffffffffffffffffffffff16815260200190815260200160002060009054906101000a900460ff16156105b557600260008373ffffffffffffffffffffffffffffffffffffffff1673ffffffffffffffffffffffffffffffffffffffff16815260200190815260200160002060009054906101000a900460ff1690506105ba565b600090505b92915050565b6000803373ffffffffffffffffffffffffffffffffffffffff1673ffffffffffffffffffffffffffffffffffffffff16815260200190815260200160002060009054906101000a900460ff1661064b576040517f08c379a000000000000000000000000000000000000000000000000000000000815260040161064290612c00565b60405180910390fd5b600073ffffffffffffffffffffffffffffffffffffffff168173ffffffffffffffffffffffffffffffffffffffff160361068457600080fd5b6000600260008373ffffffffffffffffffffffffffffffffffffffff1673ffffffffffffffffffffffffffffffffffffffff16815260200190815260200160002060006101000a81548160ff0219169083151502179055508073ffffffffffffffffffffffffffffffffffffffff167f9f43a01c0d4ff5aff09b3b9b472df707ceefd3f948f8942f10fa1562a892130460405161072090612c6c565b60405180910390a250565b60006020528060005260406000206000915054906101000a900460ff1681565b6000803373ffffffffffffffffffffffffffffffffffffffff1673ffffffffffffffffffffffffffffffffffffffff16815260200190815260200160002060009054906101000a900460ff166107d6576040517f08c379a00000000000000000000000000000000000000000000000000000000081526004016107cd90612c00565b60405180910390fd5b600073ffffffffffffffffffffffffffffffffffffffff168173ffffffffffffffffffffffffffffffffffffffff160361080f57600080fd5b6000600160008373ffffffffffffffffffffffffffffffffffffffff1673ffffffffffffffffffffffffffffffffffffffff16815260200190815260200160002060006101000a81548160ff0219169083151502179055508073ffffffffffffffffffffffffffffffffffffffff167f9f43a01c0d4ff5aff09b3b9b472df707ceefd3f948f8942f10fa1562a89213046040516108ab90612cd8565b60405180910390a250565b60606000808373ffffffffffffffffffffffffffffffffffffffff1673ffffffffffffffffffffffffffffffffffffffff16815260200190815260200160002060009054906101000a900460ff1615610946576040518060400160405280600c81526020017f6d616e75666163747572657200000000000000000000000000000000000000008152509050610a9d565b600160008373ffffffffffffffffffffffffffffffffffffffff1673ffffffffffffffffffffffffffffffffffffffff16815260200190815260200160002060009054906101000a900460ff16156109d5576040518060400160405280600b81526020017f6469737472696275746f720000000000000000000000000000000000000000008152509050610a9d565b600260008373ffffffffffffffffffffffffffffffffffffffff1673ffffffffffffffffffffffffffffffffffffffff16815260200190815260200160002060009054906101000a900460ff1615610a64576040518060400160405280600881526020017f72657461696c65720000000000000000000000000000000000000000000000008152509050610a9d565b6040518060400160405280600481526020017f6e6f6e650000000000000000000000000000000000000000000000000000000081525090505b919050565b81600060036000836fffffffffffffffffffffffffffffffff19166fffffffffffffffffffffffffffffffff191681526020019081526020016000206007015403610b22576040517f08c379a0000000000000000000000000000000000000000000000000000000008152600401610b1990612d44565b60405180910390fd5b8260036000826fffffffffffffffffffffffffffffffff19166fffffffffffffffffffffffffffffffff1916815260200190815260200160002060020160009054906101000a900473ffffffffffffffffffffffffffffffffffffffff1673ffffffffffffffffffffffffffffffffffffffff163373ffffffffffffffffffffffffffffffffffffffff1614610bed576040517f08c379a0000000000000000000000000000000000000000000000000000000008152600401610be490612db0565b60405180910390fd5b6000803373ffffffffffffffffffffffffffffffffffffffff1673ffffffffffffffffffffffffffffffffffffffff16815260200190815260200160002060009054906101000a900460ff1680610c8d5750600160003373ffffffffffffffffffffffffffffffffffffffff1673ffffffffffffffffffffffffffffffffffffffff16815260200190815260200160002060009054906101000a900460ff165b80610ce15750600260003373ffffffffffffffffffffffffffffffffffffffff1673ffffffffffffffffffffffffffffffffffffffff16815260200190815260200160002060009054906101000a900460ff165b610d20576040517f08c379a0000000000000000000000000000000000000000000000000000000008152600401610d1790612e42565b60405180910390fd5b600073ffffffffffffffffffffffffffffffffffffffff168373ffffffffffffffffffffffffffffffffffffffff1603610d8f576040517f08c379a0000000000000000000000000000000000000000000000000000000008152600401610d8690612ed4565b60405180910390fd5b3373ffffffffffffffffffffffffffffffffffffffff168373ffffffffffffffffffffffffffffffffffffffff1603610dfd576040517f08c379a0000000000000000000000000000000000000000000000000000000008152600401610df490612f40565b60405180910390fd5b6000803373ffffffffffffffffffffffffffffffffffffffff1673ffffffffffffffffffffffffffffffffffffffff16815260200190815260200160002060009054906101000a900460ff1615610edf57600160008473ffffffffffffffffffffffffffffffffffffffff1673ffffffffffffffffffffffffffffffffffffffff16815260200190815260200160002060009054906101000a900460ff16610eda576040517f08c379a0000000000000000000000000000000000000000000000000000000008152600401610ed190612fd2565b60405180910390fd5b6110f7565b600160003373ffffffffffffffffffffffffffffffffffffffff1673ffffffffffffffffffffffffffffffffffffffff16815260200190815260200160002060009054906101000a900460ff161561101657600160008473ffffffffffffffffffffffffffffffffffffffff1673ffffffffffffffffffffffffffffffffffffffff16815260200190815260200160002060009054906101000a900460ff1680610fd25750600260008473ffffffffffffffffffffffffffffffffffffffff1673ffffffffffffffffffffffffffffffffffffffff16815260200190815260200160002060009054906101000a900460ff165b611011576040517f08c379a000000000000000000000000000000000000000000000000000000000815260040161100890613064565b60405180910390fd5b6110f6565b600260003373ffffffffffffffffffffffffffffffffffffffff1673ffffffffffffffffffffffffffffffffffffffff16815260200190815260200160002060009054906101000a900460ff16156110f557600260008473ffffffffffffffffffffffffffffffffffffffff1673ffffffffffffffffffffffffffffffffffffffff16815260200190815260200160002060009054906101000a900460ff166110f4576040517f08c379a00000000000000000000000000000000000000000000000000000000081526004016110eb906130f6565b60405180910390fd5b5b5b5b600060036000866fffffffffffffffffffffffffffffffff19166fffffffffffffffffffffffffffffffff191681526020019081526020016000209050838160030160006101000a81548173ffffffffffffffffffffffffffffffffffffffff021916908373ffffffffffffffffffffffffffffffffffffffff16021790555060008160020160006101000a81548173ffffffffffffffffffffffffffffffffffffffff021916908373ffffffffffffffffffffffffffffffffffffffff16021790555060018160060160006101000a81548160ff021916908360028111156111e3576111e2612915565b5b02179055504281600801819055508373ffffffffffffffffffffffffffffffffffffffff163373ffffffffffffffffffffffffffffffffffffffff16866fffffffffffffffffffffffffffffffff19167fc26a75d42f427e3bc6902bd22f0f229d7db0dffd0283b57ebe4ad781b751f31660405160405180910390a45050505050565b600073ffffffffffffffffffffffffffffffffffffffff168173ffffffffffffffffffffffffffffffffffffffff160361129f57600080fd5b60016000808373ffffffffffffffffffffffffffffffffffffffff1673ffffffffffffffffffffffffffffffffffffffff16815260200190815260200160002060006101000a81548160ff0219169083151502179055508073ffffffffffffffffffffffffffffffffffffffff167fb710f7d3e79cb091613cfea70444ea824ad23f2b1297bdea427bc6f097e346a860405161133a90613162565b60405180910390a250565b60026020528060005260406000206000915054906101000a900460ff1681565b6000803373ffffffffffffffffffffffffffffffffffffffff1673ffffffffffffffffffffffffffffffffffffffff16815260200190815260200160002060009054906101000a900460ff166113f0576040517f08c379a00000000000000000000000000000000000000000000000000000000081526004016113e790612c00565b60405180910390fd5b600060801b6fffffffffffffffffffffffffffffffff1916836fffffffffffffffffffffffffffffffff19160361145c576040517f08c379a0000000000000000000000000000000000000000000000000000000008152600401611453906131ce565b60405180910390fd5b600060036000856fffffffffffffffffffffffffffffffff19166fffffffffffffffffffffffffffffffff1916815260200190815260200160002060070154146114db576040517f08c379a00000000000000000000000000000000000000000000000000000000081526004016114d29061323a565b60405180910390fd5b604051806101200160405280846fffffffffffffffffffffffffffffffff191681526020013373ffffffffffffffffffffffffffffffffffffffff1681526020013373ffffffffffffffffffffffffffffffffffffffff168152602001600073ffffffffffffffffffffffffffffffffffffffff16815260200183815260200182815260200160028081111561157457611573612915565b5b81526020014281526020014281525060036000856fffffffffffffffffffffffffffffffff19166fffffffffffffffffffffffffffffffff1916815260200190815260200160002060008201518160000160006101000a8154816fffffffffffffffffffffffffffffffff021916908360801c021790555060208201518160010160006101000a81548173ffffffffffffffffffffffffffffffffffffffff021916908373ffffffffffffffffffffffffffffffffffffffff16021790555060408201518160020160006101000a81548173ffffffffffffffffffffffffffffffffffffffff021916908373ffffffffffffffffffffffffffffffffffffffff16021790555060608201518160030160006101000a81548173ffffffffffffffffffffffffffffffffffffffff021916908373ffffffffffffffffffffffffffffffffffffffff16021790555060808201518160040190816116d69190613466565b5060a08201518160050190816116ec9190613466565b5060c08201518160060160006101000a81548160ff0219169083600281111561171857611717612915565b5b021790555060e0820151816007015561010082015181600801559050503373ffffffffffffffffffffffffffffffffffffffff16836fffffffffffffffffffffffffffffffff19167f73f2f08f2249372fd110ba62c104c8af385e7b78777e92d90806c8488d1692a860405160405180910390a3505050565b60036020528060005260406000206000915090508060000160009054906101000a900460801b908060010160009054906101000a900473ffffffffffffffffffffffffffffffffffffffff16908060020160009054906101000a900473ffffffffffffffffffffffffffffffffffffffff16908060030160009054906101000a900473ffffffffffffffffffffffffffffffffffffffff169080600401805461183990613289565b80601f016020809104026020016040519081016040528092919081815260200182805461186590613289565b80156118b25780601f10611887576101008083540402835291602001916118b2565b820191906000526020600020905b81548152906001019060200180831161189557829003601f168201915b5050505050908060050180546118c790613289565b80601f01602080910402602001604051908101604052809291908181526020018280546118f390613289565b80156119405780601f1061191557610100808354040283529160200191611940565b820191906000526020600020905b81548152906001019060200180831161192357829003601f168201915b5050505050908060060160009054906101000a900460ff16908060070154908060080154905089565b6000803373ffffffffffffffffffffffffffffffffffffffff1673ffffffffffffffffffffffffffffffffffffffff16815260200190815260200160002060009054906101000a900460ff166119f4576040517f08c379a00000000000000000000000000000000000000000000000000000000081526004016119eb90612c00565b60405180910390fd5b600073ffffffffffffffffffffffffffffffffffffffff168173ffffffffffffffffffffffffffffffffffffffff1603611a2d57600080fd5b60018060008373ffffffffffffffffffffffffffffffffffffffff1673ffffffffffffffffffffffffffffffffffffffff16815260200190815260200160002060006101000a81548160ff0219169083151502179055508073ffffffffffffffffffffffffffffffffffffffff167fb710f7d3e79cb091613cfea70444ea824ad23f2b1297bdea427bc6f097e346a8604051611ac890612cd8565b60405180910390a250565b60016020528060005260406000206000915054906101000a900460ff1681565b80600060036000836fffffffffffffffffffffffffffffffff19166fffffffffffffffffffffffffffffffff191681526020019081526020016000206007015403611b73576040517f08c379a0000000000000000000000000000000000000000000000000000000008152600401611b6a90612d44565b60405180910390fd5b6000803373ffffffffffffffffffffffffffffffffffffffff1673ffffffffffffffffffffffffffffffffffffffff16815260200190815260200160002060009054906101000a900460ff1680611c135750600160003373ffffffffffffffffffffffffffffffffffffffff1673ffffffffffffffffffffffffffffffffffffffff16815260200190815260200160002060009054906101000a900460ff165b80611c675750600260003373ffffffffffffffffffffffffffffffffffffffff1673ffffffffffffffffffffffffffffffffffffffff16815260200190815260200160002060009054906101000a900460ff165b611ca6576040517f08c379a0000000000000000000000000000000000000000000000000000000008152600401611c9d90612e42565b60405180910390fd5b600060036000846fffffffffffffffffffffffffffffffff19166fffffffffffffffffffffffffffffffff1916815260200190815260200160002090508060030160009054906101000a900473ffffffffffffffffffffffffffffffffffffffff1673ffffffffffffffffffffffffffffffffffffffff163373ffffffffffffffffffffffffffffffffffffffff1614611d75576040517f08c379a0000000000000000000000000000000000000000000000000000000008152600401611d6c906135aa565b60405180910390fd5b60016002811115611d8957611d88612915565b5b8160060160009054906101000a900460ff166002811115611dad57611dac612915565b5b14611ded576040517f08c379a0000000000000000000000000000000000000000000000000000000008152600401611de490613616565b60405180910390fd5b338160020160006101000a81548173ffffffffffffffffffffffffffffffffffffffff021916908373ffffffffffffffffffffffffffffffffffffffff16021790555060008160030160006101000a81548173ffffffffffffffffffffffffffffffffffffffff021916908373ffffffffffffffffffffffffffffffffffffffff16021790555060028160060160006101000a81548160ff02191690836002811115611e9c57611e9b612915565b5b02179055504281600801819055503373ffffffffffffffffffffffffffffffffffffffff16836fffffffffffffffffffffffffffffffff19167f7469c2db4895aa5df731f69556ac4557e205b92b3f61a44b20a15e302c6bcfd060405160405180910390a3505050565b611f0e6123f8565b81600060036000836fffffffffffffffffffffffffffffffff19166fffffffffffffffffffffffffffffffff191681526020019081526020016000206007015403611f8e576040517f08c379a0000000000000000000000000000000000000000000000000000000008152600401611f8590612d44565b60405180910390fd5b60036000846fffffffffffffffffffffffffffffffff19166fffffffffffffffffffffffffffffffff19168152602001908152602001600020604051806101200160405290816000820160009054906101000a900460801b6fffffffffffffffffffffffffffffffff19166fffffffffffffffffffffffffffffffff191681526020016001820160009054906101000a900473ffffffffffffffffffffffffffffffffffffffff1673ffffffffffffffffffffffffffffffffffffffff1673ffffffffffffffffffffffffffffffffffffffff1681526020016002820160009054906101000a900473ffffffffffffffffffffffffffffffffffffffff1673ffffffffffffffffffffffffffffffffffffffff1673ffffffffffffffffffffffffffffffffffffffff1681526020016003820160009054906101000a900473ffffffffffffffffffffffffffffffffffffffff1673ffffffffffffffffffffffffffffffffffffffff1673ffffffffffffffffffffffffffffffffffffffff16815260200160048201805461212290613289565b80601f016020809104026020016040519081016040528092919081815260200182805461214e90613289565b801561219b5780601f106121705761010080835404028352916020019161219b565b820191906000526020600020905b81548152906001019060200180831161217e57829003601f168201915b505050505081526020016005820180546121b490613289565b80601f01602080910402602001604051908101604052809291908181526020018280546121e090613289565b801561222d5780601f106122025761010080835404028352916020019161222d565b820191906000526020600020905b81548152906001019060200180831161221057829003601f168201915b505050505081526020016006820160009054906101000a900460ff16600281111561225b5761225a612915565b5b600281111561226d5761226c612915565b5b815260200160078201548152602001600882015481525050915050919050565b6000803373ffffffffffffffffffffffffffffffffffffffff1673ffffffffffffffffffffffffffffffffffffffff16815260200190815260200160002060009054906101000a900460ff16612318576040517f08c379a000000000000000000000000000000000000000000000000000000000815260040161230f90612c00565b60405180910390fd5b600073ffffffffffffffffffffffffffffffffffffffff168173ffffffffffffffffffffffffffffffffffffffff160361235157600080fd5b6001600260008373ffffffffffffffffffffffffffffffffffffffff1673ffffffffffffffffffffffffffffffffffffffff16815260200190815260200160002060006101000a81548160ff0219169083151502179055508073ffffffffffffffffffffffffffffffffffffffff167fb710f7d3e79cb091613cfea70444ea824ad23f2b1297bdea427bc6f097e346a86040516123ed90612c6c565b60405180910390a250565b60405180610120016040528060006fffffffffffffffffffffffffffffffff19168152602001600073ffffffffffffffffffffffffffffffffffffffff168152602001600073ffffffffffffffffffffffffffffffffffffffff168152602001600073ffffffffffffffffffffffffffffffffffffffff16815260200160608152602001606081526020016000600281111561249757612496612915565b5b815260200160008152602001600081525090565b6000604051905090565b600080fd5b600080fd5b600073ffffffffffffffffffffffffffffffffffffffff82169050919050565b60006124ea826124bf565b9050919050565b6124fa816124df565b811461250557600080fd5b50565b600081359050612517816124f1565b92915050565b60008060408385031215612534576125336124b5565b5b600061254285828601612508565b925050602061255385828601612508565b9150509250929050565b60008115159050919050565b6125728161255d565b82525050565b600060208201905061258d6000830184612569565b92915050565b6000602082840312156125a9576125a86124b5565b5b60006125b784828501612508565b91505092915050565b600081519050919050565b600082825260208201905092915050565b60005b838110156125fa5780820151818401526020810190506125df565b60008484015250505050565b6000601f19601f8301169050919050565b6000612622826125c0565b61262c81856125cb565b935061263c8185602086016125dc565b61264581612606565b840191505092915050565b6000602082019050818103600083015261266a8184612617565b905092915050565b60007fffffffffffffffffffffffffffffffff0000000000000000000000000000000082169050919050565b6126a781612672565b81146126b257600080fd5b50565b6000813590506126c48161269e565b92915050565b600080604083850312156126e1576126e06124b5565b5b60006126ef858286016126b5565b925050602061270085828601612508565b9150509250929050565b600080fd5b600080fd5b7f4e487b7100000000000000000000000000000000000000000000000000000000600052604160045260246000fd5b61274c82612606565b810181811067ffffffffffffffff8211171561276b5761276a612714565b5b80604052505050565b600061277e6124ab565b905061278a8282612743565b919050565b600067ffffffffffffffff8211156127aa576127a9612714565b5b6127b382612606565b9050602081019050919050565b82818337600083830152505050565b60006127e26127dd8461278f565b612774565b9050828152602081018484840111156127fe576127fd61270f565b5b6128098482856127c0565b509392505050565b600082601f8301126128265761282561270a565b5b81356128368482602086016127cf565b91505092915050565b600080600060608486031215612858576128576124b5565b5b6000612866868287016126b5565b935050602084013567ffffffffffffffff811115612887576128866124ba565b5b61289386828701612811565b925050604084013567ffffffffffffffff8111156128b4576128b36124ba565b5b6128c086828701612811565b9150509250925092565b6000602082840312156128e0576128df6124b5565b5b60006128ee848285016126b5565b91505092915050565b61290081612672565b82525050565b61290f816124df565b82525050565b7f4e487b7100000000000000000000000000000000000000000000000000000000600052602160045260246000fd5b6003811061295557612954612915565b5b50565b600081905061296682612944565b919050565b600061297682612958565b9050919050565b6129868161296b565b82525050565b6000819050919050565b61299f8161298c565b82525050565b6000610120820190506129bb600083018c6128f7565b6129c8602083018b612906565b6129d5604083018a612906565b6129e26060830189612906565b81810360808301526129f48188612617565b905081810360a0830152612a088187612617565b9050612a1760c083018661297d565b612a2460e0830185612996565b612a32610100830184612996565b9a9950505050505050505050565b612a4981612672565b82525050565b612a58816124df565b82525050565b600082825260208201905092915050565b6000612a7a826125c0565b612a848185612a5e565b9350612a948185602086016125dc565b612a9d81612606565b840191505092915050565b612ab18161296b565b82525050565b612ac08161298c565b82525050565b600061012083016000830151612adf6000860182612a40565b506020830151612af26020860182612a4f565b506040830151612b056040860182612a4f565b506060830151612b186060860182612a4f565b5060808301518482036080860152612b308282612a6f565b91505060a083015184820360a0860152612b4a8282612a6f565b91505060c0830151612b5f60c0860182612aa8565b5060e0830151612b7260e0860182612ab7565b50610100830151612b87610100860182612ab7565b508091505092915050565b60006020820190508181036000830152612bac8184612ac6565b905092915050565b7f43616c6c6572206973206e6f742061206d616e75666163747572657200000000600082015250565b6000612bea601c836125cb565b9150612bf582612bb4565b602082019050919050565b60006020820190508181036000830152612c1981612bdd565b9050919050565b7f52657461696c6572000000000000000000000000000000000000000000000000600082015250565b6000612c566008836125cb565b9150612c6182612c20565b602082019050919050565b60006020820190508181036000830152612c8581612c49565b9050919050565b7f4469737472696275746f72000000000000000000000000000000000000000000600082015250565b6000612cc2600b836125cb565b9150612ccd82612c8c565b602082019050919050565b60006020820190508181036000830152612cf181612cb5565b9050919050565b7f426174636820646f6573206e6f74206578697374000000000000000000000000600082015250565b6000612d2e6014836125cb565b9150612d3982612cf8565b602082019050919050565b60006020820190508181036000830152612d5d81612d21565b9050919050565b7f43616c6c6572206973206e6f74207468652063757272656e7420686f6c646572600082015250565b6000612d9a6020836125cb565b9150612da582612d64565b602082019050919050565b60006020820190508181036000830152612dc981612d8d565b9050919050565b7f43616c6c657220646f6573206e6f74206861766520616e792076616c6964207260008201527f6f6c650000000000000000000000000000000000000000000000000000000000602082015250565b6000612e2c6023836125cb565b9150612e3782612dd0565b604082019050919050565b60006020820190508181036000830152612e5b81612e1f565b9050919050565b7f526563697069656e742063616e6e6f7420626520746865207a65726f2061646460008201527f7265737300000000000000000000000000000000000000000000000000000000602082015250565b6000612ebe6024836125cb565b9150612ec982612e62565b604082019050919050565b60006020820190508181036000830152612eed81612eb1565b9050919050565b7f43616e6e6f74207472616e7366657220746f20796f757273656c660000000000600082015250565b6000612f2a601b836125cb565b9150612f3582612ef4565b602082019050919050565b60006020820190508181036000830152612f5981612f1d565b9050919050565b7f4d616e7566616374757265722063616e206f6e6c79207472616e73666572207460008201527f6f206469737472696275746f7273000000000000000000000000000000000000602082015250565b6000612fbc602e836125cb565b9150612fc782612f60565b604082019050919050565b60006020820190508181036000830152612feb81612faf565b9050919050565b7f4469737472696275746f722063616e206f6e6c79207472616e7366657220746f60008201527f206469737472696275746f7273206f722072657461696c657273000000000000602082015250565b600061304e603a836125cb565b915061305982612ff2565b604082019050919050565b6000602082019050818103600083015261307d81613041565b9050919050565b7f52657461696c65722063616e206f6e6c79207472616e7366657220746f206f7460008201527f6865722072657461696c65727300000000000000000000000000000000000000602082015250565b60006130e0602d836125cb565b91506130eb82613084565b604082019050919050565b6000602082019050818103600083015261310f816130d3565b9050919050565b7f4d616e7566616374757265720000000000000000000000000000000000000000600082015250565b600061314c600c836125cb565b915061315782613116565b602082019050919050565b6000602082019050818103600083015261317b8161313f565b9050919050565b7f42617463682049442063616e6e6f7420626520656d7074790000000000000000600082015250565b60006131b86018836125cb565b91506131c382613182565b602082019050919050565b600060208201905081810360008301526131e7816131ab565b9050919050565b7f426174636820494420616c726561647920657869737473000000000000000000600082015250565b60006132246017836125cb565b915061322f826131ee565b602082019050919050565b6000602082019050818103600083015261325381613217565b9050919050565b7f4e487b7100000000000000000000000000000000000000000000000000000000600052602260045260246000fd5b600060028204905060018216806132a157607f821691505b6020821081036132b4576132b361325a565b5b50919050565b60008190508160005260206000209050919050565b60006020601f8301049050919050565b600082821b905092915050565b60006008830261331c7fffffffffffffffffffffffffffffffffffffffffffffffffffffffffffffffff826132df565b61332686836132df565b95508019841693508086168417925050509392505050565b6000819050919050565b600061336361335e6133598461298c565b61333e565b61298c565b9050919050565b6000819050919050565b61337d83613348565b6133916133898261336a565b8484546132ec565b825550505050565b600090565b6133a6613399565b6133b1818484613374565b505050565b5b818110156133d5576133ca60008261339e565b6001810190506133b7565b5050565b601f82111561341a576133eb816132ba565b6133f4846132cf565b81016020851015613403578190505b61341761340f856132cf565b8301826133b6565b50505b505050565b600082821c905092915050565b600061343d6000198460080261341f565b1980831691505092915050565b6000613456838361342c565b9150826002028217905092915050565b61346f826125c0565b67ffffffffffffffff81111561348857613487612714565b5b6134928254613289565b61349d8282856133d9565b600060209050601f8311600181146134d057600084156134be578287015190505b6134c8858261344a565b865550613530565b601f1984166134de866132ba565b60005b82811015613506578489015182556001820191506020850194506020810190506134e1565b86831015613523578489015161351f601f89168261342c565b8355505b6001600288020188555050505b505050505050565b7f43616c6c6572206973206e6f742074686520696e74656e64656420726563697060008201527f69656e7400000000000000000000000000000000000000000000000000000000602082015250565b60006135946024836125cb565b915061359f82613538565b604082019050919050565b600060208201905081810360008301526135c381613587565b9050919050565b7f4261746368206973206e6f7420696e207472616e736974000000000000000000600082015250565b60006136006017836125cb565b915061360b826135ca565b602082019050919050565b6000602082019050818103600083015261362f816135f3565b905091905056fea264697066735822122077856b1896e63a3f4ca285ec1679ac62be9bda34e575dfe47ed712fb07f94e9364736f6c63430008180033",
  "linkReferences": {},
  "deployedLinkReferences": {}
}