{
  "_format": "hh-sol-artifact-1",
  "contractName": "SupplyChain",
  "sourceName": "contracts/SupplyChain.sol",
  "abi": [
    {
      "inputs": [],
      "stateMutability": "nonpayable",
      "type": "constructor"
    },
    {
      "anonymous": false,
      "inputs": [
        {
          "indexed": true,
          "internalType": "bytes16",
          "name": "batchId",
          "type": "bytes16"
        },
        {
          "indexed": true,
          "internalType": "address",
          "name": "creator",
          "type": "address"
        }
      ],
      "name": "BatchCreated",
      "type": "event"
    },
    {
      "anonymous": false,
      "inputs": [
        {
          "indexed": true,
          "internalType": "bytes16",
          "name": "batchId",
          "type": "bytes16"
        },
        {
          "indexed": true,
          "internalType": "address",
          "name": "receiver",
          "type": "address"
        }
      ],
      "name": "BatchReceived",
      "type": "event"
    },
    {
      "anonymous": false,
      "inputs": [
        {
          "indexed": true,
          "internalType": "bytes16",
          "name": "batchId",
          "type": "bytes16"
        },
        {
          "indexed": true,
          "internalType": "address",
          "name": "from",
          "type": "address"
        },
        {
          "indexed": true,
          "internalType": "address",
          "name": "to",
          "type": "address"
        }
      ],
      "name": "BatchTransferred",
      "type": "event"
    },
    {
      "anonymous": false,
      "inputs": [
        {
          "indexed": true,
          "internalType": "address",
          "name": "user",
          "type": "address"
        },
        {
          "indexed": false,
          "internalType": "string",
          "name": "role",
          "type": "string"
        }
      ],
      "name": "RoleGranted",
      "type": "event"
    },
    {
      "anonymous": false,
      "inputs": [
        {
          "indexed": true,
          "internalType": "address",
          "name": "user",
          "type": "address"
        },
        {
          "indexed": false,
          "internalType": "string",
          "name": "role",
          "type": "string"
        }
      ],
      "name": "RoleRevoked",
      "type": "event"
    },
    {
      "inputs": [
        {
          "internalType": "bytes16",
          "name": "_batchId",
          "type": "bytes16"
        },
        {
          "internalType": "string",
          "name": "_ewaybillNo",
          "type": "string"
        },
        {
          "internalType": "string",
          "name": "_currentLocation",
          "type": "string"
        }
      ],
      "name": "createBatch",
      "outputs": [],
      "stateMutability": "nonpayable",
      "type": "function"
    },
    {
      "inputs": [
        {
          "internalType": "bytes16",
          "name": "_batchId",
          "type": "bytes16"
        }
      ],
      "name": "getBatch",
      "outputs": [
        {
          "components": [
            {
              "internalType": "bytes16",
              "name": "batchId",
              "type": "bytes16"
            },
            {
              "internalType": "address",
              "name": "creator",
              "type": "address"
            },
            {
              "internalType": "address",
              "name": "currentHolder",
              "type": "address"
            },
            {
              "internalType": "address",
              "name": "intendedRecipient",
              "type": "address"
            },
            {
              "internalType": "string",
              "name": "ewaybillNo",
              "type": "string"
            },
            {
              "internalType": "string",
              "name": "currentLocation",
              "type": "string"
            },
            {
              "internalType": "enum SupplyChain.Status",
              "name": "status",
              "type": "uint8"
            },
            {
              "internalType": "uint256",
              "name": "createdAt",
              "type": "uint256"
            },
            {
              "internalType": "uint256",
              "name": "updatedAt",
              "type": "uint256"
            }
          ],
          "internalType": "struct SupplyChain.Batch",
          "name": "",
          "type": "tuple"
        }
      ],
      "stateMutability": "view",
      "type": "function"
    },
    {
      "inputs": [
        {
          "internalType": "address",
          "name": "_distributor",
          "type": "address"
        }
      ],
      "name": "grantDistributorRole",
      "outputs": [],
      "stateMutability": "nonpayable",
      "type": "function"
    },
    {
      "inputs": [
        {
          "internalType": "address",
          "name": "_manufacturer",
          "type": "address"
        }
      ],
      "name": "grantManufacturerRole",
      "outputs": [],
      "stateMutability": "nonpayable",
      "type": "function"
    },
    {
      "inputs": [
        {
          "internalType": "address",
          "name": "_retailer",
          "type": "address"
        }
      ],
      "name": "grantRetailerRole",
      "outputs": [],
      "stateMutability": "nonpayable",
      "type": "function"
    },
    {
      "inputs": [
        {
          "internalType": "address",
          "name": "",
          "type": "address"
        }
      ],
      "name": "isDistributor",
      "outputs": [
        {
          "internalType": "bool",
          "name": "",
          "type": "bool"
        }
      ],
      "stateMutability": "view",
      "type": "function"
    },
    {
      "inputs": [
        {
          "internalType": "address",
          "name": "",
          "type": "address"
        }
      ],
      "name": "isManufacturer",
      "outputs": [
        {
          "internalType": "bool",
          "name": "",
          "type": "bool"
        }
      ],
      "stateMutability": "view",
      "type": "function"
    },
    {
      "inputs": [
        {
          "internalType": "address",
          "name": "",
          "type": "address"
        }
      ],
      "name": "isRetailer",
      "outputs": [
        {
          "internalType": "bool",
          "name": "",
          "type": "bool"
        }
      ],
      "stateMutability": "view",
      "type": "function"
    },
    {
      "inputs": [
        {
          "internalType": "bytes16",
          "name": "",
          "type": "bytes16"
        }
      ],
      "name": "products",
      "outputs": [
        {
          "internalType": "bytes16",
          "name": "batchId",
          "type": "bytes16"
        },
        {
          "internalType": "address",
          "name": "creator",
          "type": "address"
        },
        {
          "internalType": "address",
          "name": "currentHolder",
          "type": "address"
        },
        {
          "internalType": "address",
          "name": "intendedRecipient",
          "type": "address"
        },
        {
          "internalType": "string",
          "name": "ewaybillNo",
          "type": "string"
        },
        {
          "internalType": "string",
          "name": "currentLocation",
          "type": "string"
        },
        {
          "internalType": "enum SupplyChain.Status",
          "name": "status",
          "type": "uint8"
        },
        {
          "internalType": "uint256",
          "name": "createdAt",
          "type": "uint256"
        },
        {
          "internalType": "uint256",
          "name": "updatedAt",
          "type": "uint256"
        }
      ],
      "stateMutability": "view",
      "type": "function"
    },
    {
      "inputs": [
        {
          "internalType": "bytes16",
          "name": "_batchId",
          "type": "bytes16"
        }
      ],
      "name": "receiveBatch",
      "outputs": [],
      "stateMutability": "nonpayable",
      "type": "function"
    },
    {
      "inputs": [
        {
          "internalType": "address",
          "name": "_distributor",
          "type": "address"
        }
      ],
      "name": "revokeDistributorRole",
      "outputs": [],
      "stateMutability": "nonpayable",
      "type": "function"
    },
    {
      "inputs": [
        {
          "internalType": "address",
          "name": "_retailer",
          "type": "address"
        }
      ],
      "name": "revokeRetailerRole",
      "outputs": [],
      "stateMutability": "nonpayable",
      "type": "function"
    },
    {
      "inputs": [
        {
          "internalType": "bytes16",
          "name": "_batchId",
          "type": "bytes16"
        },
        {
          "internalType": "address",
          "name": "_recipient",
          "type": "address"
        }
      ],
      "name": "transferBatch",
      "outputs": [],
      "stateMutability": "nonpayable",
      "type": "function"
    }
  ],
  "bytecode": "0x60806040523480156200001157600080fd5b5060016000803373ffffffffffffffffffffffffffffffffffffffff1673ffffffffffffffffffffffffffffffffffffffff16815260200190815260200160002060006101000a81548160ff0219169083151502179055503373ffffffffffffffffffffffffffffffffffffffff167fb710f7d3e79cb091613cfea70444ea824ad23f2b1297bdea427bc6f097e346a8604051620000af906200011e565b60405180910390a262000140565b600082825260208201905092915050565b7f4d616e7566616374757265720000000000000000000000000000000000000000600082015250565b600062000106600c83620000bd565b91506200011382620000ce565b602082019050919050565b600060208201905081810360008301526200013981620000f7565b9050919050565b61291680620001506000396000f3fe608060405234801561001057600080fd5b50600436106100cf5760003560e01c806366ea9f001161008c5780638f0c86fa116100665780638f0c86fa14610214578063be489acb14610244578063e655806e14610260578063f9f806e114610290576100cf565b806366ea9f00146101a45780637e485fcf146101c05780638bba2a0a146101f8576100cf565b806317485f42146100d457806317d4a491146100f057806318c8ea30146101205780634fb810fb1461013c57806355c4281e146101585780635da09b8814610174575b600080fd5b6100ee60048036038101906100e99190611ab7565b6102ac565b005b61010a60048036038101906101059190611ab7565b610417565b6040516101179190611aff565b60405180910390f35b61013a60048036038101906101359190611ab7565b610437565b005b61015660048036038101906101519190611b72565b6105a2565b005b610172600480360381019061016d9190611ab7565b6109ab565b005b61018e60048036038101906101899190611ab7565b610a8a565b60405161019b9190611aff565b60405180910390f35b6101be60048036038101906101b99190611cf8565b610aaa565b005b6101da60048036038101906101d59190611d83565b610ed6565b6040516101ef99989796959493929190611edd565b60405180910390f35b610212600480360381019061020d9190611ab7565b6110ae565b005b61022e60048036038101906102299190611ab7565b611218565b60405161023b9190611aff565b60405180910390f35b61025e60048036038101906102599190611d83565b611238565b005b61027a60048036038101906102759190611d83565b6114a0565b60405161028791906120ca565b60405180910390f35b6102aa60048036038101906102a59190611ab7565b611827565b005b6000803373ffffffffffffffffffffffffffffffffffffffff1673ffffffffffffffffffffffffffffffffffffffff16815260200190815260200160002060009054906101000a900460ff16610337576040517f08c379a000000000000000000000000000000000000000000000000000000000815260040161032e90612138565b60405180910390fd5b600073ffffffffffffffffffffffffffffffffffffffff168173ffffffffffffffffffffffffffffffffffffffff160361037057600080fd5b6000600260008373ffffffffffffffffffffffffffffffffffffffff1673ffffffffffffffffffffffffffffffffffffffff16815260200190815260200160002060006101000a81548160ff0219169083151502179055508073ffffffffffffffffffffffffffffffffffffffff167f9f43a01c0d4ff5aff09b3b9b472df707ceefd3f948f8942f10fa1562a892130460405161040c906121a4565b60405180910390a250565b60006020528060005260406000206000915054906101000a900460ff1681565b6000803373ffffffffffffffffffffffffffffffffffffffff1673ffffffffffffffffffffffffffffffffffffffff16815260200190815260200160002060009054906101000a900460ff166104c2576040517f08c379a00000000000000000000000000000000000000000000000000000000081526004016104b990612138565b60405180910390fd5b600073ffffffffffffffffffffffffffffffffffffffff168173ffffffffffffffffffffffffffffffffffffffff16036104fb57600080fd5b6000600160008373ffffffffffffffffffffffffffffffffffffffff1673ffffffffffffffffffffffffffffffffffffffff16815260200190815260200160002060006101000a81548160ff0219169083151502179055508073ffffffffffffffffffffffffffffffffffffffff167f9f43a01c0d4ff5aff09b3b9b472df707ceefd3f948f8942f10fa1562a892130460405161059790612210565b60405180910390a250565b81600060036000836fffffffffffffffffffffffffffffffff19166fffffffffffffffffffffffffffffffff191681526020019081526020016000206007015403610622576040517f08c379a00000000000000000000000000000000000000000000000000000000081526004016106199061227c565b60405180910390fd5b8260036000826fffffffffffffffffffffffffffffffff19166fffffffffffffffffffffffffffffffff1916815260200190815260200160002060020160009054906101000a900473ffffffffffffffffffffffffffffffffffffffff1673ffffffffffffffffffffffffffffffffffffffff163373ffffffffffffffffffffffffffffffffffffffff16146106ed576040517f08c379a00000000000000000000000000000000000000000000000000000000081526004016106e4906122e8565b60405180910390fd5b600073ffffffffffffffffffffffffffffffffffffffff168373ffffffffffffffffffffffffffffffffffffffff160361075c576040517f08c379a00000000000000000000000000000000000000000000000000000000081526004016107539061237a565b60405180910390fd5b600160008473ffffffffffffffffffffffffffffffffffffffff1673ffffffffffffffffffffffffffffffffffffffff16815260200190815260200160002060009054906101000a900460ff16806107fd5750600260008473ffffffffffffffffffffffffffffffffffffffff1673ffffffffffffffffffffffffffffffffffffffff16815260200190815260200160002060009054906101000a900460ff165b61083c576040517f08c379a00000000000000000000000000000000000000000000000000000000081526004016108339061240c565b60405180910390fd5b600060036000866fffffffffffffffffffffffffffffffff19166fffffffffffffffffffffffffffffffff191681526020019081526020016000209050838160030160006101000a81548173ffffffffffffffffffffffffffffffffffffffff021916908373ffffffffffffffffffffffffffffffffffffffff16021790555060008160020160006101000a81548173ffffffffffffffffffffffffffffffffffffffff021916908373ffffffffffffffffffffffffffffffffffffffff16021790555060018160060160006101000a81548160ff0219169083600281111561092857610927611e4d565b5b02179055504281600801819055508373ffffffffffffffffffffffffffffffffffffffff163373ffffffffffffffffffffffffffffffffffffffff16866fffffffffffffffffffffffffffffffff19167fc26a75d42f427e3bc6902bd22f0f229d7db0dffd0283b57ebe4ad781b751f31660405160405180910390a45050505050565b600073ffffffffffffffffffffffffffffffffffffffff168173ffffffffffffffffffffffffffffffffffffffff16036109e457600080fd5b60016000808373ffffffffffffffffffffffffffffffffffffffff1673ffffffffffffffffffffffffffffffffffffffff16815260200190815260200160002060006101000a81548160ff0219169083151502179055508073ffffffffffffffffffffffffffffffffffffffff167fb710f7d3e79cb091613cfea70444ea824ad23f2b1297bdea427bc6f097e346a8604051610a7f90612478565b60405180910390a250565b60026020528060005260406000206000915054906101000a900460ff1681565b6000803373ffffffffffffffffffffffffffffffffffffffff1673ffffffffffffffffffffffffffffffffffffffff16815260200190815260200160002060009054906101000a900460ff16610b35576040517f08c379a0000000000000000000000000000000000000000000000000000000008152600401610b2c90612138565b60405180910390fd5b600060801b6fffffffffffffffffffffffffffffffff1916836fffffffffffffffffffffffffffffffff191603610ba1576040517f08c379a0000000000000000000000000000000000000000000000000000000008152600401610b98906124e4565b60405180910390fd5b600060036000856fffffffffffffffffffffffffffffffff19166fffffffffffffffffffffffffffffffff191681526020019081526020016000206007015414610c20576040517f08c379a0000000000000000000000000000000000000000000000000000000008152600401610c1790612550565b60405180910390fd5b604051806101200160405280846fffffffffffffffffffffffffffffffff191681526020013373ffffffffffffffffffffffffffffffffffffffff1681526020013373ffffffffffffffffffffffffffffffffffffffff168152602001600073ffffffffffffffffffffffffffffffffffffffff168152602001838152602001828152602001600280811115610cb957610cb8611e4d565b5b81526020014281526020014281525060036000856fffffffffffffffffffffffffffffffff19166fffffffffffffffffffffffffffffffff1916815260200190815260200160002060008201518160000160006101000a8154816fffffffffffffffffffffffffffffffff021916908360801c021790555060208201518160010160006101000a81548173ffffffffffffffffffffffffffffffffffffffff021916908373ffffffffffffffffffffffffffffffffffffffff16021790555060408201518160020160006101000a81548173ffffffffffffffffffffffffffffffffffffffff021916908373ffffffffffffffffffffffffffffffffffffffff16021790555060608201518160030160006101000a81548173ffffffffffffffffffffffffffffffffffffffff021916908373ffffffffffffffffffffffffffffffffffffffff1602179055506080820151816004019081610e1b919061277c565b5060a0820151816005019081610e31919061277c565b5060c08201518160060160006101000a81548160ff02191690836002811115610e5d57610e5c611e4d565b5b021790555060e0820151816007015561010082015181600801559050503373ffffffffffffffffffffffffffffffffffffffff16836fffffffffffffffffffffffffffffffff19167f73f2f08f2249372fd110ba62c104c8af385e7b78777e92d90806c8488d1692a860405160405180910390a3505050565b60036020528060005260406000206000915090508060000160009054906101000a900460801b908060010160009054906101000a900473ffffffffffffffffffffffffffffffffffffffff16908060020160009054906101000a900473ffffffffffffffffffffffffffffffffffffffff16908060030160009054906101000a900473ffffffffffffffffffffffffffffffffffffffff1690806004018054610f7e9061259f565b80601f0160208091040260200160405190810160405280929190818152602001828054610faa9061259f565b8015610ff75780601f10610fcc57610100808354040283529160200191610ff7565b820191906000526020600020905b815481529060010190602001808311610fda57829003601f168201915b50505050509080600501805461100c9061259f565b80601f01602080910402602001604051908101604052809291908181526020018280546110389061259f565b80156110855780601f1061105a57610100808354040283529160200191611085565b820191906000526020600020905b81548152906001019060200180831161106857829003601f168201915b5050505050908060060160009054906101000a900460ff16908060070154908060080154905089565b6000803373ffffffffffffffffffffffffffffffffffffffff1673ffffffffffffffffffffffffffffffffffffffff16815260200190815260200160002060009054906101000a900460ff16611139576040517f08c379a000000000000000000000000000000000000000000000000000000000815260040161113090612138565b60405180910390fd5b600073ffffffffffffffffffffffffffffffffffffffff168173ffffffffffffffffffffffffffffffffffffffff160361117257600080fd5b60018060008373ffffffffffffffffffffffffffffffffffffffff1673ffffffffffffffffffffffffffffffffffffffff16815260200190815260200160002060006101000a81548160ff0219169083151502179055508073ffffffffffffffffffffffffffffffffffffffff167fb710f7d3e79cb091613cfea70444ea824ad23f2b1297bdea427bc6f097e346a860405161120d90612210565b60405180910390a250565b60016020528060005260406000206000915054906101000a900460ff1681565b80600060036000836fffffffffffffffffffffffffffffffff19166fffffffffffffffffffffffffffffffff1916815260200190815260200160002060070154036112b8576040517f08c379a00000000000000000000000000000000000000000000000000000000081526004016112af9061227c565b60405180910390fd5b600060036000846fffffffffffffffffffffffffffffffff19166fffffffffffffffffffffffffffffffff1916815260200190815260200160002090508060030160009054906101000a900473ffffffffffffffffffffffffffffffffffffffff1673ffffffffffffffffffffffffffffffffffffffff163373ffffffffffffffffffffffffffffffffffffffff1614611387576040517f08c379a000000000000000000000000000000000000000000000000000000000815260040161137e906128c0565b60405180910390fd5b338160020160006101000a81548173ffffffffffffffffffffffffffffffffffffffff021916908373ffffffffffffffffffffffffffffffffffffffff16021790555060008160030160006101000a81548173ffffffffffffffffffffffffffffffffffffffff021916908373ffffffffffffffffffffffffffffffffffffffff16021790555060028160060160006101000a81548160ff0219169083600281111561143657611435611e4d565b5b02179055504281600801819055503373ffffffffffffffffffffffffffffffffffffffff16836fffffffffffffffffffffffffffffffff19167f7469c2db4895aa5df731f69556ac4557e205b92b3f61a44b20a15e302c6bcfd060405160405180910390a3505050565b6114a8611992565b81600060036000836fffffffffffffffffffffffffffffffff19166fffffffffffffffffffffffffffffffff191681526020019081526020016000206007015403611528576040517f08c379a000000000000000000000000000000000000000000000000000000000815260040161151f9061227c565b60405180910390fd5b60036000846fffffffffffffffffffffffffffffffff19166fffffffffffffffffffffffffffffffff19168152602001908152602001600020604051806101200160405290816000820160009054906101000a900460801b6fffffffffffffffffffffffffffffffff19166fffffffffffffffffffffffffffffffff191681526020016001820160009054906101000a900473ffffffffffffffffffffffffffffffffffffffff1673ffffffffffffffffffffffffffffffffffffffff1673ffffffffffffffffffffffffffffffffffffffff1681526020016002820160009054906101000a900473ffffffffffffffffffffffffffffffffffffffff1673ffffffffffffffffffffffffffffffffffffffff1673ffffffffffffffffffffffffffffffffffffffff1681526020016003820160009054906101000a900473ffffffffffffffffffffffffffffffffffffffff1673ffffffffffffffffffffffffffffffffffffffff1673ffffffffffffffffffffffffffffffffffffffff1681526020016004820180546116bc9061259f565b80601f01602080910402602001604051908101604052809291908181526020018280546116e89061259f565b80156117355780601f1061170a57610100808354040283529160200191611735565b820191906000526020600020905b81548152906001019060200180831161171857829003601f168201915b5050505050815260200160058201805461174e9061259f565b80601f016020809104026020016040519081016040528092919081815260200182805461177a9061259f565b80156117c75780601f1061179c576101008083540402835291602001916117c7565b820191906000526020600020905b8154815290600101906020018083116117aa57829003601f168201915b505050505081526020016006820160009054906101000a900460ff1660028111156117f5576117f4611e4d565b5b600281111561180757611806611e4d565b5b815260200160078201548152602001600882015481525050915050919050565b6000803373ffffffffffffffffffffffffffffffffffffffff1673ffffffffffffffffffffffffffffffffffffffff16815260200190815260200160002060009054906101000a900460ff166118b2576040517f08c379a00000000000000000000000000000000000000000000000000000000081526004016118a990612138565b60405180910390fd5b600073ffffffffffffffffffffffffffffffffffffffff168173ffffffffffffffffffffffffffffffffffffffff16036118eb57600080fd5b6001600260008373ffffffffffffffffffffffffffffffffffffffff1673ffffffffffffffffffffffffffffffffffffffff16815260200190815260200160002060006101000a81548160ff0219169083151502179055508073ffffffffffffffffffffffffffffffffffffffff167fb710f7d3e79cb091613cfea70444ea824ad23f2b1297bdea427bc6f097e346a8604051611987906121a4565b60405180910390a250565b60405180610120016040528060006fffffffffffffffffffffffffffffffff19168152602001600073ffffffffffffffffffffffffffffffffffffffff168152602001600073ffffffffffffffffffffffffffffffffffffffff168152602001600073ffffffffffffffffffffffffffffffffffffffff168152602001606081526020016060815260200160006002811115611a3157611a30611e4d565b5b815260200160008152602001600081525090565b6000604051905090565b600080fd5b600080fd5b600073ffffffffffffffffffffffffffffffffffffffff82169050919050565b6000611a8482611a59565b9050919050565b611a9481611a79565b8114611a9f57600080fd5b50565b600081359050611ab181611a8b565b92915050565b600060208284031215611acd57611acc611a4f565b5b6000611adb84828501611aa2565b91505092915050565b60008115159050919050565b611af981611ae4565b82525050565b6000602082019050611b146000830184611af0565b92915050565b60007fffffffffffffffffffffffffffffffff0000000000000000000000000000000082169050919050565b611b4f81611b1a565b8114611b5a57600080fd5b50565b600081359050611b6c81611b46565b92915050565b60008060408385031215611b8957611b88611a4f565b5b6000611b9785828601611b5d565b9250506020611ba885828601611aa2565b9150509250929050565b600080fd5b600080fd5b6000601f19601f8301169050919050565b7f4e487b7100000000000000000000000000000000000000000000000000000000600052604160045260246000fd5b611c0582611bbc565b810181811067ffffffffffffffff82111715611c2457611c23611bcd565b5b80604052505050565b6000611c37611a45565b9050611c438282611bfc565b919050565b600067ffffffffffffffff821115611c6357611c62611bcd565b5b611c6c82611bbc565b9050602081019050919050565b82818337600083830152505050565b6000611c9b611c9684611c48565b611c2d565b905082815260208101848484011115611cb757611cb6611bb7565b5b611cc2848285611c79565b509392505050565b600082601f830112611cdf57611cde611bb2565b5b8135611cef848260208601611c88565b91505092915050565b600080600060608486031215611d1157611d10611a4f565b5b6000611d1f86828701611b5d565b935050602084013567ffffffffffffffff811115611d4057611d3f611a54565b5b611d4c86828701611cca565b925050604084013567ffffffffffffffff811115611d6d57611d6c611a54565b5b611d7986828701611cca565b9150509250925092565b600060208284031215611d9957611d98611a4f565b5b6000611da784828501611b5d565b91505092915050565b611db981611b1a565b82525050565b611dc881611a79565b82525050565b600081519050919050565b600082825260208201905092915050565b60005b83811015611e08578082015181840152602081019050611ded565b60008484015250505050565b6000611e1f82611dce565b611e298185611dd9565b9350611e39818560208601611dea565b611e4281611bbc565b840191505092915050565b7f4e487b7100000000000000000000000000000000000000000000000000000000600052602160045260246000fd5b60038110611e8d57611e8c611e4d565b5b50565b6000819050611e9e82611e7c565b919050565b6000611eae82611e90565b9050919050565b611ebe81611ea3565b82525050565b6000819050919050565b611ed781611ec4565b82525050565b600061012082019050611ef3600083018c611db0565b611f00602083018b611dbf565b611f0d604083018a611dbf565b611f1a6060830189611dbf565b8181036080830152611f2c8188611e14565b905081810360a0830152611f408187611e14565b9050611f4f60c0830186611eb5565b611f5c60e0830185611ece565b611f6a610100830184611ece565b9a9950505050505050505050565b611f8181611b1a565b82525050565b611f9081611a79565b82525050565b600082825260208201905092915050565b6000611fb282611dce565b611fbc8185611f96565b9350611fcc818560208601611dea565b611fd581611bbc565b840191505092915050565b611fe981611ea3565b82525050565b611ff881611ec4565b82525050565b6000610120830160008301516120176000860182611f78565b50602083015161202a6020860182611f87565b50604083015161203d6040860182611f87565b5060608301516120506060860182611f87565b50608083015184820360808601526120688282611fa7565b91505060a083015184820360a08601526120828282611fa7565b91505060c083015161209760c0860182611fe0565b5060e08301516120aa60e0860182611fef565b506101008301516120bf610100860182611fef565b508091505092915050565b600060208201905081810360008301526120e48184611ffe565b905092915050565b7f43616c6c6572206973206e6f742061206d616e75666163747572657200000000600082015250565b6000612122601c83611dd9565b915061212d826120ec565b602082019050919050565b6000602082019050818103600083015261215181612115565b9050919050565b7f52657461696c6572000000000000000000000000000000000000000000000000600082015250565b600061218e600883611dd9565b915061219982612158565b602082019050919050565b600060208201905081810360008301526121bd81612181565b9050919050565b7f4469737472696275746f72000000000000000000000000000000000000000000600082015250565b60006121fa600b83611dd9565b9150612205826121c4565b602082019050919050565b60006020820190508181036000830152612229816121ed565b9050919050565b7f426174636820646f6573206e6f74206578697374000000000000000000000000600082015250565b6000612266601483611dd9565b915061227182612230565b602082019050919050565b6000602082019050818103600083015261229581612259565b9050919050565b7f43616c6c6572206973206e6f74207468652063757272656e7420686f6c646572600082015250565b60006122d2602083611dd9565b91506122dd8261229c565b602082019050919050565b60006020820190508181036000830152612301816122c5565b9050919050565b7f526563697069656e742063616e6e6f7420626520746865207a65726f2061646460008201527f7265737300000000000000000000000000000000000000000000000000000000602082015250565b6000612364602483611dd9565b915061236f82612308565b604082019050919050565b6000602082019050818103600083015261239381612357565b9050919050565b7f526563697069656e74206973206e6f742061206469737472696275746f72206f60008201527f722072657461696c657200000000000000000000000000000000000000000000602082015250565b60006123f6602a83611dd9565b91506124018261239a565b604082019050919050565b60006020820190508181036000830152612425816123e9565b9050919050565b7f4d616e7566616374757265720000000000000000000000000000000000000000600082015250565b6000612462600c83611dd9565b915061246d8261242c565b602082019050919050565b6000602082019050818103600083015261249181612455565b9050919050565b7f42617463682049442063616e6e6f7420626520656d7074790000000000000000600082015250565b60006124ce601883611dd9565b91506124d982612498565b602082019050919050565b600060208201905081810360008301526124fd816124c1565b9050919050565b7f426174636820494420616c726561647920657869737473000000000000000000600082015250565b600061253a601783611dd9565b915061254582612504565b602082019050919050565b600060208201905081810360008301526125698161252d565b9050919050565b7f4e487b7100000000000000000000000000000000000000000000000000000000600052602260045260246000fd5b600060028204905060018216806125b757607f821691505b6020821081036125ca576125c9612570565b5b50919050565b60008190508160005260206000209050919050565b60006020601f8301049050919050565b600082821b905092915050565b6000600883026126327fffffffffffffffffffffffffffffffffffffffffffffffffffffffffffffffff826125f5565b61263c86836125f5565b95508019841693508086168417925050509392505050565b6000819050919050565b600061267961267461266f84611ec4565b612654565b611ec4565b9050919050565b6000819050919050565b6126938361265e565b6126a761269f82612680565b848454612602565b825550505050565b600090565b6126bc6126af565b6126c781848461268a565b505050565b5b818110156126eb576126e06000826126b4565b6001810190506126cd565b5050565b601f82111561273057612701816125d0565b61270a846125e5565b81016020851015612719578190505b61272d612725856125e5565b8301826126cc565b50505b505050565b600082821c905092915050565b600061275360001984600802612735565b1980831691505092915050565b600061276c8383612742565b9150826002028217905092915050565b61278582611dce565b67ffffffffffffffff81111561279e5761279d611bcd565b5b6127a8825461259f565b6127b38282856126ef565b600060209050601f8311600181146127e657600084156127d4578287015190505b6127de8582612760565b865550612846565b601f1984166127f4866125d0565b60005b8281101561281c578489015182556001820191506020850194506020810190506127f7565b868310156128395784890151612835601f891682612742565b8355505b6001600288020188555050505b505050505050565b7f43616c6c6572206973206e6f742074686520696e74656e64656420726563697060008201527f69656e7400000000000000000000000000000000000000000000000000000000602082015250565b60006128aa602483611dd9565b91506128b58261284e565b604082019050919050565b600060208201905081810360008301526128d98161289d565b905091905056fea26469706673582212209daf10920f01d4577094ec1cb80e2c3349b1ecbd9ea65ab9dc517049443b7c9a64736f6c63430008180033",
  "linkReferences": {},
  "deployedLinkReferences": {}
}