{
  "_format": "hh-sol-artifact-1",
  "contractName": "SupplyChain",
  "sourceName": "contracts/SupplyChain.sol",
  "abi": [
    {
      "inputs": [
        {
          "internalType": "address",
          "name": "_distributor",
          "type": "address"
        },
        {
          "internalType": "address",
          "name": "_retailer",
          "type": "address"
        }
      ],
      "stateMutability": "nonpayable",
      "type": "constructor"
    },
    {
      "anonymous": false,
      "inputs": [
        {
          "indexed": false,
          "internalType": "uint256",
          "name": "id",
          "type": "uint256"
        },
        {
          "indexed": false,
          "internalType": "string",
          "name": "name",
          "type": "string"
        },
        {
          "indexed": false,
          "internalType": "uint256",
          "name": "quantity",
          "type": "uint256"
        },
        {
          "indexed": false,
          "internalType": "address",
          "name": "owner",
          "type": "address"
        }
      ],
      "name": "ProductCreated",
      "type": "event"
    },
    {
      "anonymous": false,
      "inputs": [
        {
          "indexed": false,
          "internalType": "uint256",
          "name": "id",
          "type": "uint256"
        },
        {
          "indexed": false,
          "internalType": "address",
          "name": "from",
          "type": "address"
        },
        {
          "indexed": false,
          "internalType": "address",
          "name": "to",
          "type": "address"
        }
      ],
      "name": "ProductTransferred",
      "type": "event"
    },
    {
      "anonymous": false,
      "inputs": [
        {
          "indexed": false,
          "internalType": "uint256",
          "name": "id",
          "type": "uint256"
        },
        {
          "indexed": false,
          "internalType": "string",
          "name": "action",
          "type": "string"
        },
        {
          "indexed": false,
          "internalType": "address",
          "name": "by",
          "type": "address"
        }
      ],
      "name": "ProductUpdated",
      "type": "event"
    },
    {
      "inputs": [
        {
          "internalType": "string",
          "name": "_name",
          "type": "string"
        },
        {
          "internalType": "uint256",
          "name": "_quantity",
          "type": "uint256"
        },
        {
          "internalType": "string",
          "name": "_batchNumber",
          "type": "string"
        }
      ],
      "name": "createProduct",
      "outputs": [],
      "stateMutability": "nonpayable",
      "type": "function"
    },
    {
      "inputs": [],
      "name": "distributor",
      "outputs": [
        {
          "internalType": "address",
          "name": "",
          "type": "address"
        }
      ],
      "stateMutability": "view",
      "type": "function"
    },
    {
      "inputs": [
        {
          "internalType": "uint256",
          "name": "_productId",
          "type": "uint256"
        }
      ],
      "name": "getProduct",
      "outputs": [
        {
          "internalType": "uint256",
          "name": "id",
          "type": "uint256"
        },
        {
          "internalType": "string",
          "name": "name",
          "type": "string"
        },
        {
          "internalType": "uint256",
          "name": "quantity",
          "type": "uint256"
        },
        {
          "internalType": "address",
          "name": "currentOwner",
          "type": "address"
        },
        {
          "internalType": "string",
          "name": "batchNumber",
          "type": "string"
        },
        {
          "internalType": "uint256",
          "name": "productionDate",
          "type": "uint256"
        },
        {
          "internalType": "string[]",
          "name": "history",
          "type": "string[]"
        }
      ],
      "stateMutability": "view",
      "type": "function"
    },
    {
      "inputs": [],
      "name": "getProductCount",
      "outputs": [
        {
          "internalType": "uint256",
          "name": "",
          "type": "uint256"
        }
      ],
      "stateMutability": "view",
      "type": "function"
    },
    {
      "inputs": [
        {
          "internalType": "uint256",
          "name": "_productId",
          "type": "uint256"
        }
      ],
      "name": "getProductHistory",
      "outputs": [
        {
          "internalType": "string[]",
          "name": "",
          "type": "string[]"
        }
      ],
      "stateMutability": "view",
      "type": "function"
    },
    {
      "inputs": [],
      "name": "manufacturer",
      "outputs": [
        {
          "internalType": "address",
          "name": "",
          "type": "address"
        }
      ],
      "stateMutability": "view",
      "type": "function"
    },
    {
      "inputs": [],
      "name": "nextProductId",
      "outputs": [
        {
          "internalType": "uint256",
          "name": "",
          "type": "uint256"
        }
      ],
      "stateMutability": "view",
      "type": "function"
    },
    {
      "inputs": [
        {
          "internalType": "uint256",
          "name": "_productId",
          "type": "uint256"
        },
        {
          "internalType": "string",
          "name": "_event",
          "type": "string"
        }
      ],
      "name": "recordRetailEvent",
      "outputs": [],
      "stateMutability": "nonpayable",
      "type": "function"
    },
    {
      "inputs": [],
      "name": "retailer",
      "outputs": [
        {
          "internalType": "address",
          "name": "",
          "type": "address"
        }
      ],
      "stateMutability": "view",
      "type": "function"
    },
    {
      "inputs": [
        {
          "internalType": "address",
          "name": "_newDistributor",
          "type": "address"
        }
      ],
      "name": "setDistributor",
      "outputs": [],
      "stateMutability": "nonpayable",
      "type": "function"
    },
    {
      "inputs": [
        {
          "internalType": "address",
          "name": "_newRetailer",
          "type": "address"
        }
      ],
      "name": "setRetailer",
      "outputs": [],
      "stateMutability": "nonpayable",
      "type": "function"
    },
    {
      "inputs": [
        {
          "internalType": "uint256",
          "name": "_productId",
          "type": "uint256"
        },
        {
          "internalType": "address",
          "name": "_to",
          "type": "address"
        },
        {
          "internalType": "string",
          "name": "_action",
          "type": "string"
        }
      ],
      "name": "transferProduct",
      "outputs": [],
      "stateMutability": "nonpayable",
      "type": "function"
    }
  ],
  "bytecode": "0x6080604052600160035534801561001557600080fd5b50604051611d60380380611d6083398181016040528101906100379190610163565b336000806101000a81548173ffffffffffffffffffffffffffffffffffffffff021916908373ffffffffffffffffffffffffffffffffffffffff16021790555081600160006101000a81548173ffffffffffffffffffffffffffffffffffffffff021916908373ffffffffffffffffffffffffffffffffffffffff16021790555080600260006101000a81548173ffffffffffffffffffffffffffffffffffffffff021916908373ffffffffffffffffffffffffffffffffffffffff16021790555050506101a3565b600080fd5b600073ffffffffffffffffffffffffffffffffffffffff82169050919050565b600061013082610105565b9050919050565b61014081610125565b811461014b57600080fd5b50565b60008151905061015d81610137565b92915050565b6000806040838503121561017a57610179610100565b5b60006101888582860161014e565b92505060206101998582860161014e565b9150509250929050565b611bae806101b26000396000f3fe608060405234801561001057600080fd5b50600436106100b45760003560e01c80636a04dddb116100715780636a04dddb1461017b578063747542821461019757806375619ab5146101b5578063b9db15b4146101d1578063bfe1092814610207578063ff38ec0f14610225576100b4565b8063293bb2c1146100b95780634a1f6125146100d55780634a348da9146100f15780634c1249fc1461010f5780634de91a631461012d57806357a096a11461014b575b600080fd5b6100d360048036038101906100ce9190610f8d565b610241565b005b6100ef60048036038101906100ea9190610ffc565b6104c8565b005b6100f961059a565b6040516101069190611038565b60405180910390f35b6101176105b0565b6040516101249190611062565b60405180910390f35b6101356105d6565b6040516101429190611038565b60405180910390f35b6101656004803603810190610160919061107d565b6105dc565b60405161017291906111eb565b60405180910390f35b6101956004803603810190610190919061120d565b6106cb565b005b61019f6107e9565b6040516101ac9190611062565b60405180910390f35b6101cf60048036038101906101ca9190610ffc565b61080d565b005b6101eb60048036038101906101e6919061107d565b6108df565b6040516101fe97969594939291906112b3565b60405180910390f35b61020f610b48565b60405161021c9190611062565b60405180910390f35b61023f600480360381019061023a9190611337565b610b6e565b005b60006004600085815260200190815260200160002090508060030160009054906101000a900473ffffffffffffffffffffffffffffffffffffffff1673ffffffffffffffffffffffffffffffffffffffff163373ffffffffffffffffffffffffffffffffffffffff16146102ea576040517f08c379a00000000000000000000000000000000000000000000000000000000081526004016102e190611434565b60405180910390fd5b600160009054906101000a900473ffffffffffffffffffffffffffffffffffffffff1673ffffffffffffffffffffffffffffffffffffffff168373ffffffffffffffffffffffffffffffffffffffff1614806103935750600260009054906101000a900473ffffffffffffffffffffffffffffffffffffffff1673ffffffffffffffffffffffffffffffffffffffff168373ffffffffffffffffffffffffffffffffffffffff16145b6103d2576040517f08c379a00000000000000000000000000000000000000000000000000000000081526004016103c9906114c6565b60405180910390fd5b828160030160006101000a81548173ffffffffffffffffffffffffffffffffffffffff021916908373ffffffffffffffffffffffffffffffffffffffff160217905550806006018290806001815401808255809150506001900390600052602060002001600090919091909150908161044b91906116f2565b507fcef86d37ba3dc1d682967cde44d8050488734bf53166725b220b4d2e515e9e9384338560405161047f939291906117c4565b60405180910390a17f6599e0074698ba3478733fbb2dac5ef719075c18d140e6c6ad768d8f970b22c58483336040516104ba939291906117fb565b60405180910390a150505050565b60008054906101000a900473ffffffffffffffffffffffffffffffffffffffff1673ffffffffffffffffffffffffffffffffffffffff163373ffffffffffffffffffffffffffffffffffffffff1614610556576040517f08c379a000000000000000000000000000000000000000000000000000000000815260040161054d906118ab565b60405180910390fd5b80600260006101000a81548173ffffffffffffffffffffffffffffffffffffffff021916908373ffffffffffffffffffffffffffffffffffffffff16021790555050565b600060016003546105ab91906118fa565b905090565b600260009054906101000a900473ffffffffffffffffffffffffffffffffffffffff1681565b60035481565b606060046000838152602001908152602001600020600601805480602002602001604051908101604052809291908181526020016000905b828210156106c057838290600052602060002001805461063390611515565b80601f016020809104026020016040519081016040528092919081815260200182805461065f90611515565b80156106ac5780601f10610681576101008083540402835291602001916106ac565b820191906000526020600020905b81548152906001019060200180831161068f57829003601f168201915b505050505081526020019060010190610614565b505050509050919050565b600260009054906101000a900473ffffffffffffffffffffffffffffffffffffffff1673ffffffffffffffffffffffffffffffffffffffff163373ffffffffffffffffffffffffffffffffffffffff161461075b576040517f08c379a0000000000000000000000000000000000000000000000000000000008152600401610752906119a0565b60405180910390fd5b600060046000848152602001908152602001600020905080600601829080600181540180825580915050600190039060005260206000200160009091909190915090816107a891906116f2565b507f6599e0074698ba3478733fbb2dac5ef719075c18d140e6c6ad768d8f970b22c58383336040516107dc939291906117fb565b60405180910390a1505050565b60008054906101000a900473ffffffffffffffffffffffffffffffffffffffff1681565b60008054906101000a900473ffffffffffffffffffffffffffffffffffffffff1673ffffffffffffffffffffffffffffffffffffffff163373ffffffffffffffffffffffffffffffffffffffff161461089b576040517f08c379a000000000000000000000000000000000000000000000000000000000815260040161089290611a32565b60405180910390fd5b80600160006101000a81548173ffffffffffffffffffffffffffffffffffffffff021916908373ffffffffffffffffffffffffffffffffffffffff16021790555050565b600060606000806060600060606000600460008a8152602001908152602001600020905080600001548160010182600201548360030160009054906101000a900473ffffffffffffffffffffffffffffffffffffffff168460040185600501548660060185805461094f90611515565b80601f016020809104026020016040519081016040528092919081815260200182805461097b90611515565b80156109c85780601f1061099d576101008083540402835291602001916109c8565b820191906000526020600020905b8154815290600101906020018083116109ab57829003601f168201915b505050505095508280546109db90611515565b80601f0160208091040260200160405190810160405280929190818152602001828054610a0790611515565b8015610a545780601f10610a2957610100808354040283529160200191610a54565b820191906000526020600020905b815481529060010190602001808311610a3757829003601f168201915b5050505050925080805480602002602001604051908101604052809291908181526020016000905b82821015610b28578382906000526020600020018054610a9b90611515565b80601f0160208091040260200160405190810160405280929190818152602001828054610ac790611515565b8015610b145780601f10610ae957610100808354040283529160200191610b14565b820191906000526020600020905b815481529060010190602001808311610af757829003601f168201915b505050505081526020019060010190610a7c565b505050509050975097509750975097509750975050919395979092949650565b600160009054906101000a900473ffffffffffffffffffffffffffffffffffffffff1681565b60008054906101000a900473ffffffffffffffffffffffffffffffffffffffff1673ffffffffffffffffffffffffffffffffffffffff163373ffffffffffffffffffffffffffffffffffffffff1614610bfc576040517f08c379a0000000000000000000000000000000000000000000000000000000008152600401610bf390611ac4565b60405180910390fd5b60006004600060035481526020019081526020016000209050600354816000018190555083816001019081610c3191906116f2565b5082816002018190555060008054906101000a900473ffffffffffffffffffffffffffffffffffffffff168160030160006101000a81548173ffffffffffffffffffffffffffffffffffffffff021916908373ffffffffffffffffffffffffffffffffffffffff16021790555081816004019081610caf91906116f2565b504281600501819055508060060180600181540180825580915050600190039060005260206000200160006040518060400160405280601881526020017f50726f6475636564206279206d616e756661637475726572000000000000000081525090919091509081610d2191906116f2565b507f2e87df3c8f53fb06266ed52023929f5fab9f24130224ef6538b665d9cac82530600354858560008054906101000a900473ffffffffffffffffffffffffffffffffffffffff16604051610d799493929190611ae4565b60405180910390a160036000815480929190610d9490611b30565b919050555050505050565b6000604051905090565b600080fd5b600080fd5b6000819050919050565b610dc681610db3565b8114610dd157600080fd5b50565b600081359050610de381610dbd565b92915050565b600073ffffffffffffffffffffffffffffffffffffffff82169050919050565b6000610e1482610de9565b9050919050565b610e2481610e09565b8114610e2f57600080fd5b50565b600081359050610e4181610e1b565b92915050565b600080fd5b600080fd5b6000601f19601f8301169050919050565b7f4e487b7100000000000000000000000000000000000000000000000000000000600052604160045260246000fd5b610e9a82610e51565b810181811067ffffffffffffffff82111715610eb957610eb8610e62565b5b80604052505050565b6000610ecc610d9f565b9050610ed88282610e91565b919050565b600067ffffffffffffffff821115610ef857610ef7610e62565b5b610f0182610e51565b9050602081019050919050565b82818337600083830152505050565b6000610f30610f2b84610edd565b610ec2565b905082815260208101848484011115610f4c57610f4b610e4c565b5b610f57848285610f0e565b509392505050565b600082601f830112610f7457610f73610e47565b5b8135610f84848260208601610f1d565b91505092915050565b600080600060608486031215610fa657610fa5610da9565b5b6000610fb486828701610dd4565b9350506020610fc586828701610e32565b925050604084013567ffffffffffffffff811115610fe657610fe5610dae565b5b610ff286828701610f5f565b9150509250925092565b60006020828403121561101257611011610da9565b5b600061102084828501610e32565b91505092915050565b61103281610db3565b82525050565b600060208201905061104d6000830184611029565b92915050565b61105c81610e09565b82525050565b60006020820190506110776000830184611053565b92915050565b60006020828403121561109357611092610da9565b5b60006110a184828501610dd4565b91505092915050565b600081519050919050565b600082825260208201905092915050565b6000819050602082019050919050565b600081519050919050565b600082825260208201905092915050565b60005b838110156111105780820151818401526020810190506110f5565b60008484015250505050565b6000611127826110d6565b61113181856110e1565b93506111418185602086016110f2565b61114a81610e51565b840191505092915050565b6000611161838361111c565b905092915050565b6000602082019050919050565b6000611181826110aa565b61118b81856110b5565b93508360208202850161119d856110c6565b8060005b858110156111d957848403895281516111ba8582611155565b94506111c583611169565b925060208a019950506001810190506111a1565b50829750879550505050505092915050565b600060208201905081810360008301526112058184611176565b905092915050565b6000806040838503121561122457611223610da9565b5b600061123285828601610dd4565b925050602083013567ffffffffffffffff81111561125357611252610dae565b5b61125f85828601610f5f565b9150509250929050565b600082825260208201905092915050565b6000611285826110d6565b61128f8185611269565b935061129f8185602086016110f2565b6112a881610e51565b840191505092915050565b600060e0820190506112c8600083018a611029565b81810360208301526112da818961127a565b90506112e96040830188611029565b6112f66060830187611053565b8181036080830152611308818661127a565b905061131760a0830185611029565b81810360c08301526113298184611176565b905098975050505050505050565b6000806000606084860312156113505761134f610da9565b5b600084013567ffffffffffffffff81111561136e5761136d610dae565b5b61137a86828701610f5f565b935050602061138b86828701610dd4565b925050604084013567ffffffffffffffff8111156113ac576113ab610dae565b5b6113b886828701610f5f565b9150509250925092565b7f4f6e6c79207468652063757272656e74206f776e65722063616e207472616e7360008201527f6665720000000000000000000000000000000000000000000000000000000000602082015250565b600061141e602383611269565b9150611429826113c2565b604082019050919050565b6000602082019050818103600083015261144d81611411565b9050919050565b7f496e76616c696420726563697069656e743a206d75737420626520646973747260008201527f696275746f72206f722072657461696c65720000000000000000000000000000602082015250565b60006114b0603283611269565b91506114bb82611454565b604082019050919050565b600060208201905081810360008301526114df816114a3565b9050919050565b7f4e487b7100000000000000000000000000000000000000000000000000000000600052602260045260246000fd5b6000600282049050600182168061152d57607f821691505b6020821081036115405761153f6114e6565b5b50919050565b60008190508160005260206000209050919050565b60006020601f8301049050919050565b600082821b905092915050565b6000600883026115a87fffffffffffffffffffffffffffffffffffffffffffffffffffffffffffffffff8261156b565b6115b2868361156b565b95508019841693508086168417925050509392505050565b6000819050919050565b60006115ef6115ea6115e584610db3565b6115ca565b610db3565b9050919050565b6000819050919050565b611609836115d4565b61161d611615826115f6565b848454611578565b825550505050565b600090565b611632611625565b61163d818484611600565b505050565b5b818110156116615761165660008261162a565b600181019050611643565b5050565b601f8211156116a65761167781611546565b6116808461155b565b8101602085101561168f578190505b6116a361169b8561155b565b830182611642565b50505b505050565b600082821c905092915050565b60006116c9600019846008026116ab565b1980831691505092915050565b60006116e283836116b8565b9150826002028217905092915050565b6116fb826110d6565b67ffffffffffffffff81111561171457611713610e62565b5b61171e8254611515565b611729828285611665565b600060209050601f83116001811461175c576000841561174a578287015190505b61175485826116d6565b8655506117bc565b601f19841661176a86611546565b60005b828110156117925784890151825560018201915060208501945060208101905061176d565b868310156117af57848901516117ab601f8916826116b8565b8355505b6001600288020188555050505b505050505050565b60006060820190506117d96000830186611029565b6117e66020830185611053565b6117f36040830184611053565b949350505050565b60006060820190506118106000830186611029565b8181036020830152611822818561127a565b90506118316040830184611053565b949350505050565b7f4f6e6c79206d616e7566616374757265722063616e206368616e67652074686560008201527f2072657461696c65720000000000000000000000000000000000000000000000602082015250565b6000611895602983611269565b91506118a082611839565b604082019050919050565b600060208201905081810360008301526118c481611888565b9050919050565b7f4e487b7100000000000000000000000000000000000000000000000000000000600052601160045260246000fd5b600061190582610db3565b915061191083610db3565b9250828203905081811115611928576119276118cb565b5b92915050565b7f4f6e6c79207468652072657461696c65722063616e207265636f72642072657460008201527f61696c206576656e747300000000000000000000000000000000000000000000602082015250565b600061198a602a83611269565b91506119958261192e565b604082019050919050565b600060208201905081810360008301526119b98161197d565b9050919050565b7f4f6e6c79206d616e7566616374757265722063616e206368616e67652074686560008201527f206469737472696275746f720000000000000000000000000000000000000000602082015250565b6000611a1c602c83611269565b9150611a27826119c0565b604082019050919050565b60006020820190508181036000830152611a4b81611a0f565b9050919050565b7f4f6e6c79206d616e7566616374757265722063616e206372656174652070726f60008201527f6475637473000000000000000000000000000000000000000000000000000000602082015250565b6000611aae602583611269565b9150611ab982611a52565b604082019050919050565b60006020820190508181036000830152611add81611aa1565b9050919050565b6000608082019050611af96000830187611029565b8181036020830152611b0b818661127a565b9050611b1a6040830185611029565b611b276060830184611053565b95945050505050565b6000611b3b82610db3565b91507fffffffffffffffffffffffffffffffffffffffffffffffffffffffffffffffff8203611b6d57611b6c6118cb565b5b60018201905091905056fea26469706673582212209f12cbd43315deb8df4ad239ce1fc03ad732df5c228726d1c4b5efaec89915e164736f6c634300081c0033",
  "linkReferences": {},
  "deployedLinkReferences": {}
}