{
  "_format": "hh-sol-artifact-1",
  "contractName": "SupplyChain",
  "sourceName": "contracts/SupplyChain.sol",
  "abi": [
    {
      "inputs": [],
      "stateMutability": "nonpayable",
      "type": "constructor"
    },
    {
      "anonymous": false,
      "inputs": [
        {
          "indexed": true,
          "internalType": "bytes16",
          "name": "batchId",
          "type": "bytes16"
        },
        {
          "indexed": true,
          "internalType": "address",
          "name": "creator",
          "type": "address"
        }
      ],
      "name": "BatchCreated",
      "type": "event"
    },
    {
      "anonymous": false,
      "inputs": [
        {
          "indexed": true,
          "internalType": "bytes16",
          "name": "batchId",
          "type": "bytes16"
        },
        {
          "indexed": true,
          "internalType": "address",
          "name": "receiver",
          "type": "address"
        }
      ],
      "name": "BatchReceived",
      "type": "event"
    },
    {
      "anonymous": false,
      "inputs": [
        {
          "indexed": true,
          "internalType": "bytes16",
          "name": "batchId",
          "type": "bytes16"
        },
        {
          "indexed": true,
          "internalType": "address",
          "name": "from",
          "type": "address"
        },
        {
          "indexed": true,
          "internalType": "address",
          "name": "to",
          "type": "address"
        }
      ],
      "name": "BatchTransferred",
      "type": "event"
    },
    {
      "anonymous": false,
      "inputs": [
        {
          "indexed": true,
          "internalType": "address",
          "name": "user",
          "type": "address"
        },
        {
          "indexed": false,
          "internalType": "string",
          "name": "role",
          "type": "string"
        }
      ],
      "name": "RoleGranted",
      "type": "event"
    },
    {
      "anonymous": false,
      "inputs": [
        {
          "indexed": true,
          "internalType": "address",
          "name": "user",
          "type": "address"
        },
        {
          "indexed": false,
          "internalType": "string",
          "name": "role",
          "type": "string"
        }
      ],
      "name": "RoleRevoked",
      "type": "event"
    },
    {
      "inputs": [
        {
          "internalType": "bytes16",
          "name": "",
          "type": "bytes16"
        },
        {
          "internalType": "uint256",
          "name": "",
          "type": "uint256"
        }
      ],
      "name": "batchHistory",
      "outputs": [
        {
          "internalType": "uint256",
          "name": "timestamp",
          "type": "uint256"
        },
        {
          "internalType": "string",
          "name": "eventDescription",
          "type": "string"
        },
        {
          "internalType": "string",
          "name": "location",
          "type": "string"
        },
        {
          "internalType": "address",
          "name": "actor",
          "type": "address"
        }
      ],
      "stateMutability": "view",
      "type": "function"
    },
    {
      "inputs": [
        {
          "internalType": "address",
          "name": "_from",
          "type": "address"
        },
        {
          "internalType": "address",
          "name": "_to",
          "type": "address"
        }
      ],
      "name": "canTransferTo",
      "outputs": [
        {
          "internalType": "bool",
          "name": "",
          "type": "bool"
        }
      ],
      "stateMutability": "view",
      "type": "function"
    },
    {
      "inputs": [
        {
          "internalType": "bytes16",
          "name": "_batchId",
          "type": "bytes16"
        },
        {
          "internalType": "string",
          "name": "_ewaybillNo",
          "type": "string"
        },
        {
          "internalType": "string",
          "name": "_currentLocation",
          "type": "string"
        }
      ],
      "name": "createBatch",
      "outputs": [],
      "stateMutability": "nonpayable",
      "type": "function"
    },
    {
      "inputs": [],
      "name": "getAllBatches",
      "outputs": [
        {
          "components": [
            {
              "internalType": "bytes16",
              "name": "batchId",
              "type": "bytes16"
            },
            {
              "internalType": "address",
              "name": "creator",
              "type": "address"
            },
            {
              "internalType": "address",
              "name": "currentHolder",
              "type": "address"
            },
            {
              "internalType": "address",
              "name": "intendedRecipient",
              "type": "address"
            },
            {
              "internalType": "string",
              "name": "ewaybillNo",
              "type": "string"
            },
            {
              "internalType": "string",
              "name": "currentLocation",
              "type": "string"
            },
            {
              "internalType": "enum SupplyChain.Status",
              "name": "status",
              "type": "uint8"
            },
            {
              "internalType": "uint256",
              "name": "createdAt",
              "type": "uint256"
            },
            {
              "internalType": "uint256",
              "name": "updatedAt",
              "type": "uint256"
            }
          ],
          "internalType": "struct SupplyChain.Batch[]",
          "name": "",
          "type": "tuple[]"
        }
      ],
      "stateMutability": "view",
      "type": "function"
    },
    {
      "inputs": [
        {
          "internalType": "bytes16",
          "name": "_batchId",
          "type": "bytes16"
        }
      ],
      "name": "getBatch",
      "outputs": [
        {
          "components": [
            {
              "internalType": "bytes16",
              "name": "batchId",
              "type": "bytes16"
            },
            {
              "internalType": "address",
              "name": "creator",
              "type": "address"
            },
            {
              "internalType": "address",
              "name": "currentHolder",
              "type": "address"
            },
            {
              "internalType": "address",
              "name": "intendedRecipient",
              "type": "address"
            },
            {
              "internalType": "string",
              "name": "ewaybillNo",
              "type": "string"
            },
            {
              "internalType": "string",
              "name": "currentLocation",
              "type": "string"
            },
            {
              "internalType": "enum SupplyChain.Status",
              "name": "status",
              "type": "uint8"
            },
            {
              "internalType": "uint256",
              "name": "createdAt",
              "type": "uint256"
            },
            {
              "internalType": "uint256",
              "name": "updatedAt",
              "type": "uint256"
            }
          ],
          "internalType": "struct SupplyChain.Batch",
          "name": "",
          "type": "tuple"
        }
      ],
      "stateMutability": "view",
      "type": "function"
    },
    {
      "inputs": [
        {
          "internalType": "bytes16",
          "name": "_batchId",
          "type": "bytes16"
        }
      ],
      "name": "getBatchHistory",
      "outputs": [
        {
          "components": [
            {
              "internalType": "uint256",
              "name": "timestamp",
              "type": "uint256"
            },
            {
              "internalType": "string",
              "name": "eventDescription",
              "type": "string"
            },
            {
              "internalType": "string",
              "name": "location",
              "type": "string"
            },
            {
              "internalType": "address",
              "name": "actor",
              "type": "address"
            }
          ],
          "internalType": "struct SupplyChain.HistoryEvent[]",
          "name": "",
          "type": "tuple[]"
        }
      ],
      "stateMutability": "view",
      "type": "function"
    },
    {
      "inputs": [
        {
          "internalType": "address",
          "name": "_user",
          "type": "address"
        }
      ],
      "name": "getUserRole",
      "outputs": [
        {
          "internalType": "string",
          "name": "",
          "type": "string"
        }
      ],
      "stateMutability": "view",
      "type": "function"
    },
    {
      "inputs": [
        {
          "internalType": "address",
          "name": "_distributor",
          "type": "address"
        }
      ],
      "name": "grantDistributorRole",
      "outputs": [],
      "stateMutability": "nonpayable",
      "type": "function"
    },
    {
      "inputs": [
        {
          "internalType": "address",
          "name": "_manufacturer",
          "type": "address"
        }
      ],
      "name": "grantManufacturerRole",
      "outputs": [],
      "stateMutability": "nonpayable",
      "type": "function"
    },
    {
      "inputs": [
        {
          "internalType": "address",
          "name": "_retailer",
          "type": "address"
        }
      ],
      "name": "grantRetailerRole",
      "outputs": [],
      "stateMutability": "nonpayable",
      "type": "function"
    },
    {
      "inputs": [
        {
          "internalType": "address",
          "name": "",
          "type": "address"
        }
      ],
      "name": "isDistributor",
      "outputs": [
        {
          "internalType": "bool",
          "name": "",
          "type": "bool"
        }
      ],
      "stateMutability": "view",
      "type": "function"
    },
    {
      "inputs": [
        {
          "internalType": "address",
          "name": "",
          "type": "address"
        }
      ],
      "name": "isManufacturer",
      "outputs": [
        {
          "internalType": "bool",
          "name": "",
          "type": "bool"
        }
      ],
      "stateMutability": "view",
      "type": "function"
    },
    {
      "inputs": [
        {
          "internalType": "address",
          "name": "",
          "type": "address"
        }
      ],
      "name": "isRetailer",
      "outputs": [
        {
          "internalType": "bool",
          "name": "",
          "type": "bool"
        }
      ],
      "stateMutability": "view",
      "type": "function"
    },
    {
      "inputs": [
        {
          "internalType": "bytes16",
          "name": "",
          "type": "bytes16"
        }
      ],
      "name": "products",
      "outputs": [
        {
          "internalType": "bytes16",
          "name": "batchId",
          "type": "bytes16"
        },
        {
          "internalType": "address",
          "name": "creator",
          "type": "address"
        },
        {
          "internalType": "address",
          "name": "currentHolder",
          "type": "address"
        },
        {
          "internalType": "address",
          "name": "intendedRecipient",
          "type": "address"
        },
        {
          "internalType": "string",
          "name": "ewaybillNo",
          "type": "string"
        },
        {
          "internalType": "string",
          "name": "currentLocation",
          "type": "string"
        },
        {
          "internalType": "enum SupplyChain.Status",
          "name": "status",
          "type": "uint8"
        },
        {
          "internalType": "uint256",
          "name": "createdAt",
          "type": "uint256"
        },
        {
          "internalType": "uint256",
          "name": "updatedAt",
          "type": "uint256"
        }
      ],
      "stateMutability": "view",
      "type": "function"
    },
    {
      "inputs": [
        {
          "internalType": "bytes16",
          "name": "_batchId",
          "type": "bytes16"
        },
        {
          "internalType": "string",
          "name": "_currentLocation",
          "type": "string"
        }
      ],
      "name": "receiveBatch",
      "outputs": [],
      "stateMutability": "nonpayable",
      "type": "function"
    },
    {
      "inputs": [
        {
          "internalType": "address",
          "name": "_distributor",
          "type": "address"
        }
      ],
      "name": "revokeDistributorRole",
      "outputs": [],
      "stateMutability": "nonpayable",
      "type": "function"
    },
    {
      "inputs": [
        {
          "internalType": "address",
          "name": "_retailer",
          "type": "address"
        }
      ],
      "name": "revokeRetailerRole",
      "outputs": [],
      "stateMutability": "nonpayable",
      "type": "function"
    },
    {
      "inputs": [
        {
          "internalType": "bytes16",
          "name": "_batchId",
          "type": "bytes16"
        },
        {
          "internalType": "address",
          "name": "_recipient",
          "type": "address"
        }
      ],
      "name": "transferBatch",
      "outputs": [],
      "stateMutability": "nonpayable",
      "type": "function"
    }
  ],
  "bytecode": "0x60806040523480156200001157600080fd5b5060016000803373ffffffffffffffffffffffffffffffffffffffff1673ffffffffffffffffffffffffffffffffffffffff16815260200190815260200160002060006101000a81548160ff0219169083151502179055503373ffffffffffffffffffffffffffffffffffffffff167fb710f7d3e79cb091613cfea70444ea824ad23f2b1297bdea427bc6f097e346a8604051620000af906200011e565b60405180910390a262000140565b600082825260208201905092915050565b7f4d616e7566616374757265720000000000000000000000000000000000000000600082015250565b600062000106600c83620000bd565b91506200011382620000ce565b602082019050919050565b600060208201905081810360008301526200013981620000f7565b9050919050565b61482780620001506000396000f3fe608060405234801561001057600080fd5b50600436106101165760003560e01c80636e5d90d3116100a25780638f0c86fa116100715780638f0c86fa1461031e578063df7c4c391461034e578063e655806e1461036a578063e80e076b1461039a578063f9f806e1146103b857610116565b80636e5d90d31461026757806370dad0bc1461029a5780637e485fcf146102ca5780638bba2a0a1461030257610116565b806327820851116100e957806327820851146101b35780634fb810fb146101e357806355c4281e146101ff5780635da09b881461021b57806366ea9f001461024b57610116565b806309d612c61461011b57806317485f421461014b57806317d4a4911461016757806318c8ea3014610197575b600080fd5b61013560048036038101906101309190613290565b6103d4565b60405161014291906132eb565b60405180910390f35b61016560048036038101906101609190613306565b610662565b005b610181600480360381019061017c9190613306565b6107cd565b60405161018e91906132eb565b60405180910390f35b6101b160048036038101906101ac9190613306565b6107ed565b005b6101cd60048036038101906101c89190613306565b610958565b6040516101da91906133c3565b60405180910390f35b6101fd60048036038101906101f8919061343d565b610b44565b005b61021960048036038101906102149190613306565b6114e1565b005b61023560048036038101906102309190613306565b6115c0565b60405161024291906132eb565b60405180910390f35b610265600480360381019061026091906135b2565b6115e0565b005b610281600480360381019061027c9190613673565b611bb0565b60405161029194939291906136d1565b60405180910390f35b6102b460048036038101906102af9190613724565b611d2d565b6040516102c191906138e5565b60405180910390f35b6102e460048036038101906102df9190613724565b611f49565b6040516102f99998979695949392919061398d565b60405180910390f35b61031c60048036038101906103179190613306565b612121565b005b61033860048036038101906103339190613306565b61228b565b60405161034591906132eb565b60405180910390f35b61036860048036038101906103639190613a28565b6122ab565b005b610384600480360381019061037f9190613724565b6128aa565b6040516103919190613b6e565b60405180910390f35b6103a2612c31565b6040516103af9190613d1e565b60405180910390f35b6103d260048036038101906103cd9190613306565b613000565b005b60008173ffffffffffffffffffffffffffffffffffffffff168373ffffffffffffffffffffffffffffffffffffffff1603610412576000905061065c565b6000808473ffffffffffffffffffffffffffffffffffffffff1673ffffffffffffffffffffffffffffffffffffffff16815260200190815260200160002060009054906101000a900460ff16156104b757600160008373ffffffffffffffffffffffffffffffffffffffff1673ffffffffffffffffffffffffffffffffffffffff16815260200190815260200160002060009054906101000a900460ff16905061065c565b600160008473ffffffffffffffffffffffffffffffffffffffff1673ffffffffffffffffffffffffffffffffffffffff16815260200190815260200160002060009054906101000a900460ff16156105b157600160008373ffffffffffffffffffffffffffffffffffffffff1673ffffffffffffffffffffffffffffffffffffffff16815260200190815260200160002060009054906101000a900460ff16806105aa5750600260008373ffffffffffffffffffffffffffffffffffffffff1673ffffffffffffffffffffffffffffffffffffffff16815260200190815260200160002060009054906101000a900460ff165b905061065c565b600260008473ffffffffffffffffffffffffffffffffffffffff1673ffffffffffffffffffffffffffffffffffffffff16815260200190815260200160002060009054906101000a900460ff161561065757600260008373ffffffffffffffffffffffffffffffffffffffff1673ffffffffffffffffffffffffffffffffffffffff16815260200190815260200160002060009054906101000a900460ff16905061065c565b600090505b92915050565b6000803373ffffffffffffffffffffffffffffffffffffffff1673ffffffffffffffffffffffffffffffffffffffff16815260200190815260200160002060009054906101000a900460ff166106ed576040517f08c379a00000000000000000000000000000000000000000000000000000000081526004016106e490613d8c565b60405180910390fd5b600073ffffffffffffffffffffffffffffffffffffffff168173ffffffffffffffffffffffffffffffffffffffff160361072657600080fd5b6000600260008373ffffffffffffffffffffffffffffffffffffffff1673ffffffffffffffffffffffffffffffffffffffff16815260200190815260200160002060006101000a81548160ff0219169083151502179055508073ffffffffffffffffffffffffffffffffffffffff167f9f43a01c0d4ff5aff09b3b9b472df707ceefd3f948f8942f10fa1562a89213046040516107c290613df8565b60405180910390a250565b60006020528060005260406000206000915054906101000a900460ff1681565b6000803373ffffffffffffffffffffffffffffffffffffffff1673ffffffffffffffffffffffffffffffffffffffff16815260200190815260200160002060009054906101000a900460ff16610878576040517f08c379a000000000000000000000000000000000000000000000000000000000815260040161086f90613d8c565b60405180910390fd5b600073ffffffffffffffffffffffffffffffffffffffff168173ffffffffffffffffffffffffffffffffffffffff16036108b157600080fd5b6000600160008373ffffffffffffffffffffffffffffffffffffffff1673ffffffffffffffffffffffffffffffffffffffff16815260200190815260200160002060006101000a81548160ff0219169083151502179055508073ffffffffffffffffffffffffffffffffffffffff167f9f43a01c0d4ff5aff09b3b9b472df707ceefd3f948f8942f10fa1562a892130460405161094d90613e64565b60405180910390a250565b60606000808373ffffffffffffffffffffffffffffffffffffffff1673ffffffffffffffffffffffffffffffffffffffff16815260200190815260200160002060009054906101000a900460ff16156109e8576040518060400160405280600c81526020017f6d616e75666163747572657200000000000000000000000000000000000000008152509050610b3f565b600160008373ffffffffffffffffffffffffffffffffffffffff1673ffffffffffffffffffffffffffffffffffffffff16815260200190815260200160002060009054906101000a900460ff1615610a77576040518060400160405280600b81526020017f6469737472696275746f720000000000000000000000000000000000000000008152509050610b3f565b600260008373ffffffffffffffffffffffffffffffffffffffff1673ffffffffffffffffffffffffffffffffffffffff16815260200190815260200160002060009054906101000a900460ff1615610b06576040518060400160405280600881526020017f72657461696c65720000000000000000000000000000000000000000000000008152509050610b3f565b6040518060400160405280600481526020017f6e6f6e650000000000000000000000000000000000000000000000000000000081525090505b919050565b81600060036000836fffffffffffffffffffffffffffffffff19166fffffffffffffffffffffffffffffffff191681526020019081526020016000206007015403610bc4576040517f08c379a0000000000000000000000000000000000000000000000000000000008152600401610bbb90613ed0565b60405180910390fd5b8260036000826fffffffffffffffffffffffffffffffff19166fffffffffffffffffffffffffffffffff1916815260200190815260200160002060020160009054906101000a900473ffffffffffffffffffffffffffffffffffffffff1673ffffffffffffffffffffffffffffffffffffffff163373ffffffffffffffffffffffffffffffffffffffff1614610c8f576040517f08c379a0000000000000000000000000000000000000000000000000000000008152600401610c8690613f3c565b60405180910390fd5b6000803373ffffffffffffffffffffffffffffffffffffffff1673ffffffffffffffffffffffffffffffffffffffff16815260200190815260200160002060009054906101000a900460ff1680610d2f5750600160003373ffffffffffffffffffffffffffffffffffffffff1673ffffffffffffffffffffffffffffffffffffffff16815260200190815260200160002060009054906101000a900460ff165b80610d835750600260003373ffffffffffffffffffffffffffffffffffffffff1673ffffffffffffffffffffffffffffffffffffffff16815260200190815260200160002060009054906101000a900460ff165b610dc2576040517f08c379a0000000000000000000000000000000000000000000000000000000008152600401610db990613fce565b60405180910390fd5b600073ffffffffffffffffffffffffffffffffffffffff168373ffffffffffffffffffffffffffffffffffffffff1603610e31576040517f08c379a0000000000000000000000000000000000000000000000000000000008152600401610e2890614060565b60405180910390fd5b3373ffffffffffffffffffffffffffffffffffffffff168373ffffffffffffffffffffffffffffffffffffffff1603610e9f576040517f08c379a0000000000000000000000000000000000000000000000000000000008152600401610e96906140cc565b60405180910390fd5b6000803373ffffffffffffffffffffffffffffffffffffffff1673ffffffffffffffffffffffffffffffffffffffff16815260200190815260200160002060009054906101000a900460ff1615610f8157600160008473ffffffffffffffffffffffffffffffffffffffff1673ffffffffffffffffffffffffffffffffffffffff16815260200190815260200160002060009054906101000a900460ff16610f7c576040517f08c379a0000000000000000000000000000000000000000000000000000000008152600401610f739061415e565b60405180910390fd5b611199565b600160003373ffffffffffffffffffffffffffffffffffffffff1673ffffffffffffffffffffffffffffffffffffffff16815260200190815260200160002060009054906101000a900460ff16156110b857600160008473ffffffffffffffffffffffffffffffffffffffff1673ffffffffffffffffffffffffffffffffffffffff16815260200190815260200160002060009054906101000a900460ff16806110745750600260008473ffffffffffffffffffffffffffffffffffffffff1673ffffffffffffffffffffffffffffffffffffffff16815260200190815260200160002060009054906101000a900460ff165b6110b3576040517f08c379a00000000000000000000000000000000000000000000000000000000081526004016110aa906141f0565b60405180910390fd5b611198565b600260003373ffffffffffffffffffffffffffffffffffffffff1673ffffffffffffffffffffffffffffffffffffffff16815260200190815260200160002060009054906101000a900460ff161561119757600260008473ffffffffffffffffffffffffffffffffffffffff1673ffffffffffffffffffffffffffffffffffffffff16815260200190815260200160002060009054906101000a900460ff16611196576040517f08c379a000000000000000000000000000000000000000000000000000000000815260040161118d90614282565b60405180910390fd5b5b5b5b600060036000866fffffffffffffffffffffffffffffffff19166fffffffffffffffffffffffffffffffff191681526020019081526020016000209050838160030160006101000a81548173ffffffffffffffffffffffffffffffffffffffff021916908373ffffffffffffffffffffffffffffffffffffffff16021790555060008160020160006101000a81548173ffffffffffffffffffffffffffffffffffffffff021916908373ffffffffffffffffffffffffffffffffffffffff16021790555060018160060160006101000a81548160ff0219169083600281111561128557611284613916565b5b021790555042816008018190555060056000866fffffffffffffffffffffffffffffffff19166fffffffffffffffffffffffffffffffff1916815260200190815260200160002060405180608001604052804281526020016040518060400160405280601a81526020017f4261746368205472616e7366657228496e205472616e736974290000000000008152508152602001836005018054611327906142d1565b80601f0160208091040260200160405190810160405280929190818152602001828054611353906142d1565b80156113a05780601f10611375576101008083540402835291602001916113a0565b820191906000526020600020905b81548152906001019060200180831161138357829003601f168201915b505050505081526020013373ffffffffffffffffffffffffffffffffffffffff16815250908060018154018082558091505060019003906000526020600020906004020160009091909190915060008201518160000155602082015181600101908161140c91906144ae565b50604082015181600201908161142291906144ae565b5060608201518160030160006101000a81548173ffffffffffffffffffffffffffffffffffffffff021916908373ffffffffffffffffffffffffffffffffffffffff16021790555050508373ffffffffffffffffffffffffffffffffffffffff163373ffffffffffffffffffffffffffffffffffffffff16866fffffffffffffffffffffffffffffffff19167fc26a75d42f427e3bc6902bd22f0f229d7db0dffd0283b57ebe4ad781b751f31660405160405180910390a45050505050565b600073ffffffffffffffffffffffffffffffffffffffff168173ffffffffffffffffffffffffffffffffffffffff160361151a57600080fd5b60016000808373ffffffffffffffffffffffffffffffffffffffff1673ffffffffffffffffffffffffffffffffffffffff16815260200190815260200160002060006101000a81548160ff0219169083151502179055508073ffffffffffffffffffffffffffffffffffffffff167fb710f7d3e79cb091613cfea70444ea824ad23f2b1297bdea427bc6f097e346a86040516115b5906145cc565b60405180910390a250565b60026020528060005260406000206000915054906101000a900460ff1681565b6000803373ffffffffffffffffffffffffffffffffffffffff1673ffffffffffffffffffffffffffffffffffffffff16815260200190815260200160002060009054906101000a900460ff1661166b576040517f08c379a000000000000000000000000000000000000000000000000000000000815260040161166290613d8c565b60405180910390fd5b600060801b6fffffffffffffffffffffffffffffffff1916836fffffffffffffffffffffffffffffffff1916036116d7576040517f08c379a00000000000000000000000000000000000000000000000000000000081526004016116ce90614638565b60405180910390fd5b600060036000856fffffffffffffffffffffffffffffffff19166fffffffffffffffffffffffffffffffff191681526020019081526020016000206007015414611756576040517f08c379a000000000000000000000000000000000000000000000000000000000815260040161174d906146a4565b60405180910390fd5b604051806101200160405280846fffffffffffffffffffffffffffffffff191681526020013373ffffffffffffffffffffffffffffffffffffffff1681526020013373ffffffffffffffffffffffffffffffffffffffff168152602001600073ffffffffffffffffffffffffffffffffffffffff1681526020018381526020018281526020016002808111156117ef576117ee613916565b5b81526020014281526020014281525060036000856fffffffffffffffffffffffffffffffff19166fffffffffffffffffffffffffffffffff1916815260200190815260200160002060008201518160000160006101000a8154816fffffffffffffffffffffffffffffffff021916908360801c021790555060208201518160010160006101000a81548173ffffffffffffffffffffffffffffffffffffffff021916908373ffffffffffffffffffffffffffffffffffffffff16021790555060408201518160020160006101000a81548173ffffffffffffffffffffffffffffffffffffffff021916908373ffffffffffffffffffffffffffffffffffffffff16021790555060608201518160030160006101000a81548173ffffffffffffffffffffffffffffffffffffffff021916908373ffffffffffffffffffffffffffffffffffffffff160217905550608082015181600401908161195191906144ae565b5060a082015181600501908161196791906144ae565b5060c08201518160060160006101000a81548160ff0219169083600281111561199357611992613916565b5b021790555060e08201518160070155610100820151816008015590505060048390806001815401808255809150506001900390600052602060002090600291828204019190066010029091909190916101000a8154816fffffffffffffffffffffffffffffffff021916908360801c021790555060056000846fffffffffffffffffffffffffffffffff19166fffffffffffffffffffffffffffffffff1916815260200190815260200160002060405180608001604052804281526020016040518060400160405280601d81526020017f42617463682043726561746564206279204d616e75666163747572657200000081525081526020018381526020013373ffffffffffffffffffffffffffffffffffffffff168152509080600181540180825580915050600190039060005260206000209060040201600090919091909150600082015181600001556020820151816001019081611af491906144ae565b506040820151816002019081611b0a91906144ae565b5060608201518160030160006101000a81548173ffffffffffffffffffffffffffffffffffffffff021916908373ffffffffffffffffffffffffffffffffffffffff16021790555050503373ffffffffffffffffffffffffffffffffffffffff16836fffffffffffffffffffffffffffffffff19167f73f2f08f2249372fd110ba62c104c8af385e7b78777e92d90806c8488d1692a860405160405180910390a3505050565b60056020528160005260406000208181548110611bcc57600080fd5b906000526020600020906004020160009150915050806000015490806001018054611bf6906142d1565b80601f0160208091040260200160405190810160405280929190818152602001828054611c22906142d1565b8015611c6f5780601f10611c4457610100808354040283529160200191611c6f565b820191906000526020600020905b815481529060010190602001808311611c5257829003601f168201915b505050505090806002018054611c84906142d1565b80601f0160208091040260200160405190810160405280929190818152602001828054611cb0906142d1565b8015611cfd5780601f10611cd257610100808354040283529160200191611cfd565b820191906000526020600020905b815481529060010190602001808311611ce057829003601f168201915b5050505050908060030160009054906101000a900473ffffffffffffffffffffffffffffffffffffffff16905084565b606060056000836fffffffffffffffffffffffffffffffff19166fffffffffffffffffffffffffffffffff19168152602001908152602001600020805480602002602001604051908101604052809291908181526020016000905b82821015611f3e578382906000526020600020906004020160405180608001604052908160008201548152602001600182018054611dc5906142d1565b80601f0160208091040260200160405190810160405280929190818152602001828054611df1906142d1565b8015611e3e5780601f10611e1357610100808354040283529160200191611e3e565b820191906000526020600020905b815481529060010190602001808311611e2157829003601f168201915b50505050508152602001600282018054611e57906142d1565b80601f0160208091040260200160405190810160405280929190818152602001828054611e83906142d1565b8015611ed05780601f10611ea557610100808354040283529160200191611ed0565b820191906000526020600020905b815481529060010190602001808311611eb357829003601f168201915b505050505081526020016003820160009054906101000a900473ffffffffffffffffffffffffffffffffffffffff1673ffffffffffffffffffffffffffffffffffffffff1673ffffffffffffffffffffffffffffffffffffffff168152505081526020019060010190611d88565b505050509050919050565b60036020528060005260406000206000915090508060000160009054906101000a900460801b908060010160009054906101000a900473ffffffffffffffffffffffffffffffffffffffff16908060020160009054906101000a900473ffffffffffffffffffffffffffffffffffffffff16908060030160009054906101000a900473ffffffffffffffffffffffffffffffffffffffff1690806004018054611ff1906142d1565b80601f016020809104026020016040519081016040528092919081815260200182805461201d906142d1565b801561206a5780601f1061203f5761010080835404028352916020019161206a565b820191906000526020600020905b81548152906001019060200180831161204d57829003601f168201915b50505050509080600501805461207f906142d1565b80601f01602080910402602001604051908101604052809291908181526020018280546120ab906142d1565b80156120f85780601f106120cd576101008083540402835291602001916120f8565b820191906000526020600020905b8154815290600101906020018083116120db57829003601f168201915b5050505050908060060160009054906101000a900460ff16908060070154908060080154905089565b6000803373ffffffffffffffffffffffffffffffffffffffff1673ffffffffffffffffffffffffffffffffffffffff16815260200190815260200160002060009054906101000a900460ff166121ac576040517f08c379a00000000000000000000000000000000000000000000000000000000081526004016121a390613d8c565b60405180910390fd5b600073ffffffffffffffffffffffffffffffffffffffff168173ffffffffffffffffffffffffffffffffffffffff16036121e557600080fd5b60018060008373ffffffffffffffffffffffffffffffffffffffff1673ffffffffffffffffffffffffffffffffffffffff16815260200190815260200160002060006101000a81548160ff0219169083151502179055508073ffffffffffffffffffffffffffffffffffffffff167fb710f7d3e79cb091613cfea70444ea824ad23f2b1297bdea427bc6f097e346a860405161228090613e64565b60405180910390a250565b60016020528060005260406000206000915054906101000a900460ff1681565b81600060036000836fffffffffffffffffffffffffffffffff19166fffffffffffffffffffffffffffffffff19168152602001908152602001600020600701540361232b576040517f08c379a000000000000000000000000000000000000000000000000000000000815260040161232290613ed0565b60405180910390fd5b6000803373ffffffffffffffffffffffffffffffffffffffff1673ffffffffffffffffffffffffffffffffffffffff16815260200190815260200160002060009054906101000a900460ff16806123cb5750600160003373ffffffffffffffffffffffffffffffffffffffff1673ffffffffffffffffffffffffffffffffffffffff16815260200190815260200160002060009054906101000a900460ff165b8061241f5750600260003373ffffffffffffffffffffffffffffffffffffffff1673ffffffffffffffffffffffffffffffffffffffff16815260200190815260200160002060009054906101000a900460ff165b61245e576040517f08c379a000000000000000000000000000000000000000000000000000000000815260040161245590613fce565b60405180910390fd5b600060036000856fffffffffffffffffffffffffffffffff19166fffffffffffffffffffffffffffffffff1916815260200190815260200160002090508060030160009054906101000a900473ffffffffffffffffffffffffffffffffffffffff1673ffffffffffffffffffffffffffffffffffffffff163373ffffffffffffffffffffffffffffffffffffffff161461252d576040517f08c379a000000000000000000000000000000000000000000000000000000000815260040161252490614736565b60405180910390fd5b6001600281111561254157612540613916565b5b8160060160009054906101000a900460ff16600281111561256557612564613916565b5b146125a5576040517f08c379a000000000000000000000000000000000000000000000000000000000815260040161259c906147a2565b60405180910390fd5b338160020160006101000a81548173ffffffffffffffffffffffffffffffffffffffff021916908373ffffffffffffffffffffffffffffffffffffffff160217905550828160050190816125f991906144ae565b5060008160030160006101000a81548173ffffffffffffffffffffffffffffffffffffffff021916908373ffffffffffffffffffffffffffffffffffffffff16021790555060028160060160006101000a81548160ff0219169083600281111561266657612665613916565b5b021790555042816008018190555060056000856fffffffffffffffffffffffffffffffff19166fffffffffffffffffffffffffffffffff1916815260200190815260200160002060405180608001604052804281526020016040518060400160405280600e81526020017f42617463682052656365697665640000000000000000000000000000000000008152508152602001836005018054612708906142d1565b80601f0160208091040260200160405190810160405280929190818152602001828054612734906142d1565b80156127815780601f1061275657610100808354040283529160200191612781565b820191906000526020600020905b81548152906001019060200180831161276457829003601f168201915b505050505081526020013373ffffffffffffffffffffffffffffffffffffffff1681525090806001815401808255809150506001900390600052602060002090600402016000909190919091506000820151816000015560208201518160010190816127ed91906144ae565b50604082015181600201908161280391906144ae565b5060608201518160030160006101000a81548173ffffffffffffffffffffffffffffffffffffffff021916908373ffffffffffffffffffffffffffffffffffffffff16021790555050503373ffffffffffffffffffffffffffffffffffffffff16846fffffffffffffffffffffffffffffffff19167f7469c2db4895aa5df731f69556ac4557e205b92b3f61a44b20a15e302c6bcfd060405160405180910390a350505050565b6128b261316b565b81600060036000836fffffffffffffffffffffffffffffffff19166fffffffffffffffffffffffffffffffff191681526020019081526020016000206007015403612932576040517f08c379a000000000000000000000000000000000000000000000000000000000815260040161292990613ed0565b60405180910390fd5b60036000846fffffffffffffffffffffffffffffffff19166fffffffffffffffffffffffffffffffff19168152602001908152602001600020604051806101200160405290816000820160009054906101000a900460801b6fffffffffffffffffffffffffffffffff19166fffffffffffffffffffffffffffffffff191681526020016001820160009054906101000a900473ffffffffffffffffffffffffffffffffffffffff1673ffffffffffffffffffffffffffffffffffffffff1673ffffffffffffffffffffffffffffffffffffffff1681526020016002820160009054906101000a900473ffffffffffffffffffffffffffffffffffffffff1673ffffffffffffffffffffffffffffffffffffffff1673ffffffffffffffffffffffffffffffffffffffff1681526020016003820160009054906101000a900473ffffffffffffffffffffffffffffffffffffffff1673ffffffffffffffffffffffffffffffffffffffff1673ffffffffffffffffffffffffffffffffffffffff168152602001600482018054612ac6906142d1565b80601f0160208091040260200160405190810160405280929190818152602001828054612af2906142d1565b8015612b3f5780601f10612b1457610100808354040283529160200191612b3f565b820191906000526020600020905b815481529060010190602001808311612b2257829003601f168201915b50505050508152602001600582018054612b58906142d1565b80601f0160208091040260200160405190810160405280929190818152602001828054612b84906142d1565b8015612bd15780601f10612ba657610100808354040283529160200191612bd1565b820191906000526020600020905b815481529060010190602001808311612bb457829003601f168201915b505050505081526020016006820160009054906101000a900460ff166002811115612bff57612bfe613916565b5b6002811115612c1157612c10613916565b5b815260200160078201548152602001600882015481525050915050919050565b6060600060048054905067ffffffffffffffff811115612c5457612c53613487565b5b604051908082528060200260200182016040528015612c8d57816020015b612c7a61316b565b815260200190600190039081612c725790505b50905060005b600480549050811015612ff8576003600060048381548110612cb857612cb76147c2565b5b90600052602060002090600291828204019190066010029054906101000a900460801b6fffffffffffffffffffffffffffffffff19166fffffffffffffffffffffffffffffffff19168152602001908152602001600020604051806101200160405290816000820160009054906101000a900460801b6fffffffffffffffffffffffffffffffff19166fffffffffffffffffffffffffffffffff191681526020016001820160009054906101000a900473ffffffffffffffffffffffffffffffffffffffff1673ffffffffffffffffffffffffffffffffffffffff1673ffffffffffffffffffffffffffffffffffffffff1681526020016002820160009054906101000a900473ffffffffffffffffffffffffffffffffffffffff1673ffffffffffffffffffffffffffffffffffffffff1673ffffffffffffffffffffffffffffffffffffffff1681526020016003820160009054906101000a900473ffffffffffffffffffffffffffffffffffffffff1673ffffffffffffffffffffffffffffffffffffffff1673ffffffffffffffffffffffffffffffffffffffff168152602001600482018054612e6a906142d1565b80601f0160208091040260200160405190810160405280929190818152602001828054612e96906142d1565b8015612ee35780601f10612eb857610100808354040283529160200191612ee3565b820191906000526020600020905b815481529060010190602001808311612ec657829003601f168201915b50505050508152602001600582018054612efc906142d1565b80601f0160208091040260200160405190810160405280929190818152602001828054612f28906142d1565b8015612f755780601f10612f4a57610100808354040283529160200191612f75565b820191906000526020600020905b815481529060010190602001808311612f5857829003601f168201915b505050505081526020016006820160009054906101000a900460ff166002811115612fa357612fa2613916565b5b6002811115612fb557612fb4613916565b5b815260200160078201548152602001600882015481525050828281518110612fe057612fdf6147c2565b5b60200260200101819052508080600101915050612c93565b508091505090565b6000803373ffffffffffffffffffffffffffffffffffffffff1673ffffffffffffffffffffffffffffffffffffffff16815260200190815260200160002060009054906101000a900460ff1661308b576040517f08c379a000000000000000000000000000000000000000000000000000000000815260040161308290613d8c565b60405180910390fd5b600073ffffffffffffffffffffffffffffffffffffffff168173ffffffffffffffffffffffffffffffffffffffff16036130c457600080fd5b6001600260008373ffffffffffffffffffffffffffffffffffffffff1673ffffffffffffffffffffffffffffffffffffffff16815260200190815260200160002060006101000a81548160ff0219169083151502179055508073ffffffffffffffffffffffffffffffffffffffff167fb710f7d3e79cb091613cfea70444ea824ad23f2b1297bdea427bc6f097e346a860405161316090613df8565b60405180910390a250565b60405180610120016040528060006fffffffffffffffffffffffffffffffff19168152602001600073ffffffffffffffffffffffffffffffffffffffff168152602001600073ffffffffffffffffffffffffffffffffffffffff168152602001600073ffffffffffffffffffffffffffffffffffffffff16815260200160608152602001606081526020016000600281111561320a57613209613916565b5b815260200160008152602001600081525090565b6000604051905090565b600080fd5b600080fd5b600073ffffffffffffffffffffffffffffffffffffffff82169050919050565b600061325d82613232565b9050919050565b61326d81613252565b811461327857600080fd5b50565b60008135905061328a81613264565b92915050565b600080604083850312156132a7576132a6613228565b5b60006132b58582860161327b565b92505060206132c68582860161327b565b9150509250929050565b60008115159050919050565b6132e5816132d0565b82525050565b600060208201905061330060008301846132dc565b92915050565b60006020828403121561331c5761331b613228565b5b600061332a8482850161327b565b91505092915050565b600081519050919050565b600082825260208201905092915050565b60005b8381101561336d578082015181840152602081019050613352565b60008484015250505050565b6000601f19601f8301169050919050565b600061339582613333565b61339f818561333e565b93506133af81856020860161334f565b6133b881613379565b840191505092915050565b600060208201905081810360008301526133dd818461338a565b905092915050565b60007fffffffffffffffffffffffffffffffff0000000000000000000000000000000082169050919050565b61341a816133e5565b811461342557600080fd5b50565b60008135905061343781613411565b92915050565b6000806040838503121561345457613453613228565b5b600061346285828601613428565b92505060206134738582860161327b565b9150509250929050565b600080fd5b600080fd5b7f4e487b7100000000000000000000000000000000000000000000000000000000600052604160045260246000fd5b6134bf82613379565b810181811067ffffffffffffffff821117156134de576134dd613487565b5b80604052505050565b60006134f161321e565b90506134fd82826134b6565b919050565b600067ffffffffffffffff82111561351d5761351c613487565b5b61352682613379565b9050602081019050919050565b82818337600083830152505050565b600061355561355084613502565b6134e7565b90508281526020810184848401111561357157613570613482565b5b61357c848285613533565b509392505050565b600082601f8301126135995761359861347d565b5b81356135a9848260208601613542565b91505092915050565b6000806000606084860312156135cb576135ca613228565b5b60006135d986828701613428565b935050602084013567ffffffffffffffff8111156135fa576135f961322d565b5b61360686828701613584565b925050604084013567ffffffffffffffff8111156136275761362661322d565b5b61363386828701613584565b9150509250925092565b6000819050919050565b6136508161363d565b811461365b57600080fd5b50565b60008135905061366d81613647565b92915050565b6000806040838503121561368a57613689613228565b5b600061369885828601613428565b92505060206136a98582860161365e565b9150509250929050565b6136bc8161363d565b82525050565b6136cb81613252565b82525050565b60006080820190506136e660008301876136b3565b81810360208301526136f8818661338a565b9050818103604083015261370c818561338a565b905061371b60608301846136c2565b95945050505050565b60006020828403121561373a57613739613228565b5b600061374884828501613428565b91505092915050565b600081519050919050565b600082825260208201905092915050565b6000819050602082019050919050565b6137868161363d565b82525050565b600082825260208201905092915050565b60006137a882613333565b6137b2818561378c565b93506137c281856020860161334f565b6137cb81613379565b840191505092915050565b6137df81613252565b82525050565b60006080830160008301516137fd600086018261377d565b5060208301518482036020860152613815828261379d565b9150506040830151848203604086015261382f828261379d565b915050606083015161384460608601826137d6565b508091505092915050565b600061385b83836137e5565b905092915050565b6000602082019050919050565b600061387b82613751565b613885818561375c565b9350836020820285016138978561376d565b8060005b858110156138d357848403895281516138b4858261384f565b94506138bf83613863565b925060208a0199505060018101905061389b565b50829750879550505050505092915050565b600060208201905081810360008301526138ff8184613870565b905092915050565b613910816133e5565b82525050565b7f4e487b7100000000000000000000000000000000000000000000000000000000600052602160045260246000fd5b6003811061395657613955613916565b5b50565b600081905061396782613945565b919050565b600061397782613959565b9050919050565b6139878161396c565b82525050565b6000610120820190506139a3600083018c613907565b6139b0602083018b6136c2565b6139bd604083018a6136c2565b6139ca60608301896136c2565b81810360808301526139dc818861338a565b905081810360a08301526139f0818761338a565b90506139ff60c083018661397e565b613a0c60e08301856136b3565b613a1a6101008301846136b3565b9a9950505050505050505050565b60008060408385031215613a3f57613a3e613228565b5b6000613a4d85828601613428565b925050602083013567ffffffffffffffff811115613a6e57613a6d61322d565b5b613a7a85828601613584565b9150509250929050565b613a8d816133e5565b82525050565b613a9c8161396c565b82525050565b600061012083016000830151613abb6000860182613a84565b506020830151613ace60208601826137d6565b506040830151613ae160408601826137d6565b506060830151613af460608601826137d6565b5060808301518482036080860152613b0c828261379d565b91505060a083015184820360a0860152613b26828261379d565b91505060c0830151613b3b60c0860182613a93565b5060e0830151613b4e60e086018261377d565b50610100830151613b6361010086018261377d565b508091505092915050565b60006020820190508181036000830152613b888184613aa2565b905092915050565b600081519050919050565b600082825260208201905092915050565b6000819050602082019050919050565b600061012083016000830151613bd56000860182613a84565b506020830151613be860208601826137d6565b506040830151613bfb60408601826137d6565b506060830151613c0e60608601826137d6565b5060808301518482036080860152613c26828261379d565b91505060a083015184820360a0860152613c40828261379d565b91505060c0830151613c5560c0860182613a93565b5060e0830151613c6860e086018261377d565b50610100830151613c7d61010086018261377d565b508091505092915050565b6000613c948383613bbc565b905092915050565b6000602082019050919050565b6000613cb482613b90565b613cbe8185613b9b565b935083602082028501613cd085613bac565b8060005b85811015613d0c5784840389528151613ced8582613c88565b9450613cf883613c9c565b925060208a01995050600181019050613cd4565b50829750879550505050505092915050565b60006020820190508181036000830152613d388184613ca9565b905092915050565b7f43616c6c6572206973206e6f742061206d616e75666163747572657200000000600082015250565b6000613d76601c8361333e565b9150613d8182613d40565b602082019050919050565b60006020820190508181036000830152613da581613d69565b9050919050565b7f52657461696c6572000000000000000000000000000000000000000000000000600082015250565b6000613de260088361333e565b9150613ded82613dac565b602082019050919050565b60006020820190508181036000830152613e1181613dd5565b9050919050565b7f4469737472696275746f72000000000000000000000000000000000000000000600082015250565b6000613e4e600b8361333e565b9150613e5982613e18565b602082019050919050565b60006020820190508181036000830152613e7d81613e41565b9050919050565b7f426174636820646f6573206e6f74206578697374000000000000000000000000600082015250565b6000613eba60148361333e565b9150613ec582613e84565b602082019050919050565b60006020820190508181036000830152613ee981613ead565b9050919050565b7f43616c6c6572206973206e6f74207468652063757272656e7420686f6c646572600082015250565b6000613f2660208361333e565b9150613f3182613ef0565b602082019050919050565b60006020820190508181036000830152613f5581613f19565b9050919050565b7f43616c6c657220646f6573206e6f74206861766520616e792076616c6964207260008201527f6f6c650000000000000000000000000000000000000000000000000000000000602082015250565b6000613fb860238361333e565b9150613fc382613f5c565b604082019050919050565b60006020820190508181036000830152613fe781613fab565b9050919050565b7f526563697069656e742063616e6e6f7420626520746865207a65726f2061646460008201527f7265737300000000000000000000000000000000000000000000000000000000602082015250565b600061404a60248361333e565b915061405582613fee565b604082019050919050565b600060208201905081810360008301526140798161403d565b9050919050565b7f43616e6e6f74207472616e7366657220746f20796f757273656c660000000000600082015250565b60006140b6601b8361333e565b91506140c182614080565b602082019050919050565b600060208201905081810360008301526140e5816140a9565b9050919050565b7f4d616e7566616374757265722063616e206f6e6c79207472616e73666572207460008201527f6f206469737472696275746f7273000000000000000000000000000000000000602082015250565b6000614148602e8361333e565b9150614153826140ec565b604082019050919050565b600060208201905081810360008301526141778161413b565b9050919050565b7f4469737472696275746f722063616e206f6e6c79207472616e7366657220746f60008201527f206469737472696275746f7273206f722072657461696c657273000000000000602082015250565b60006141da603a8361333e565b91506141e58261417e565b604082019050919050565b60006020820190508181036000830152614209816141cd565b9050919050565b7f52657461696c65722063616e206f6e6c79207472616e7366657220746f206f7460008201527f6865722072657461696c65727300000000000000000000000000000000000000602082015250565b600061426c602d8361333e565b915061427782614210565b604082019050919050565b6000602082019050818103600083015261429b8161425f565b9050919050565b7f4e487b7100000000000000000000000000000000000000000000000000000000600052602260045260246000fd5b600060028204905060018216806142e957607f821691505b6020821081036142fc576142fb6142a2565b5b50919050565b60008190508160005260206000209050919050565b60006020601f8301049050919050565b600082821b905092915050565b6000600883026143647fffffffffffffffffffffffffffffffffffffffffffffffffffffffffffffffff82614327565b61436e8683614327565b95508019841693508086168417925050509392505050565b6000819050919050565b60006143ab6143a66143a18461363d565b614386565b61363d565b9050919050565b6000819050919050565b6143c583614390565b6143d96143d1826143b2565b848454614334565b825550505050565b600090565b6143ee6143e1565b6143f98184846143bc565b505050565b5b8181101561441d576144126000826143e6565b6001810190506143ff565b5050565b601f8211156144625761443381614302565b61443c84614317565b8101602085101561444b578190505b61445f61445785614317565b8301826143fe565b50505b505050565b600082821c905092915050565b600061448560001984600802614467565b1980831691505092915050565b600061449e8383614474565b9150826002028217905092915050565b6144b782613333565b67ffffffffffffffff8111156144d0576144cf613487565b5b6144da82546142d1565b6144e5828285614421565b600060209050601f8311600181146145185760008415614506578287015190505b6145108582614492565b865550614578565b601f19841661452686614302565b60005b8281101561454e57848901518255600182019150602085019450602081019050614529565b8683101561456b5784890151614567601f891682614474565b8355505b6001600288020188555050505b505050505050565b7f4d616e7566616374757265720000000000000000000000000000000000000000600082015250565b60006145b6600c8361333e565b91506145c182614580565b602082019050919050565b600060208201905081810360008301526145e5816145a9565b9050919050565b7f42617463682049442063616e6e6f7420626520656d7074790000000000000000600082015250565b600061462260188361333e565b915061462d826145ec565b602082019050919050565b6000602082019050818103600083015261465181614615565b9050919050565b7f426174636820494420616c726561647920657869737473000000000000000000600082015250565b600061468e60178361333e565b915061469982614658565b602082019050919050565b600060208201905081810360008301526146bd81614681565b9050919050565b7f43616c6c6572206973206e6f742074686520696e74656e64656420726563697060008201527f69656e7400000000000000000000000000000000000000000000000000000000602082015250565b600061472060248361333e565b915061472b826146c4565b604082019050919050565b6000602082019050818103600083015261474f81614713565b9050919050565b7f4261746368206973206e6f7420696e207472616e736974000000000000000000600082015250565b600061478c60178361333e565b915061479782614756565b602082019050919050565b600060208201905081810360008301526147bb8161477f565b9050919050565b7f4e487b7100000000000000000000000000000000000000000000000000000000600052603260045260246000fdfea26469706673582212205fe2a09e4fe7f332bdea36945a99aa4002a7627dbe7bf3114a62dcea844d26eb64736f6c63430008180033",
  "linkReferences": {},
  "deployedLinkReferences": {}
}