{
  "_format": "hh-sol-artifact-1",
  "contractName": "SupplyChain",
  "sourceName": "contracts/SupplyChain.sol",
  "abi": [
    {
      "inputs": [],
      "stateMutability": "nonpayable",
      "type": "constructor"
    },
    {
      "anonymous": false,
      "inputs": [
        {
          "indexed": true,
          "internalType": "uint256",
          "name": "batchId",
          "type": "uint256"
        },
        {
          "indexed": true,
          "internalType": "address",
          "name": "creator",
          "type": "address"
        },
        {
          "indexed": false,
          "internalType": "uint256",
          "name": "quantity",
          "type": "uint256"
        },
        {
          "indexed": false,
          "internalType": "string",
          "name": "ewaybillNo",
          "type": "string"
        }
      ],
      "name": "BatchCreated",
      "type": "event"
    },
    {
      "anonymous": false,
      "inputs": [
        {
          "indexed": true,
          "internalType": "uint256",
          "name": "batchId",
          "type": "uint256"
        },
        {
          "indexed": true,
          "internalType": "address",
          "name": "receiver",
          "type": "address"
        }
      ],
      "name": "BatchReceived",
      "type": "event"
    },
    {
      "anonymous": false,
      "inputs": [
        {
          "indexed": true,
          "internalType": "uint256",
          "name": "batchId",
          "type": "uint256"
        },
        {
          "indexed": true,
          "internalType": "address",
          "name": "from",
          "type": "address"
        },
        {
          "indexed": true,
          "internalType": "address",
          "name": "to",
          "type": "address"
        }
      ],
      "name": "BatchTransferred",
      "type": "event"
    },
    {
      "anonymous": false,
      "inputs": [
        {
          "indexed": true,
          "internalType": "address",
          "name": "user",
          "type": "address"
        },
        {
          "indexed": false,
          "internalType": "string",
          "name": "role",
          "type": "string"
        }
      ],
      "name": "RoleGranted",
      "type": "event"
    },
    {
      "anonymous": false,
      "inputs": [
        {
          "indexed": true,
          "internalType": "address",
          "name": "user",
          "type": "address"
        },
        {
          "indexed": false,
          "internalType": "string",
          "name": "role",
          "type": "string"
        }
      ],
      "name": "RoleRevoked",
      "type": "event"
    },
    {
      "inputs": [],
      "name": "batchCounter",
      "outputs": [
        {
          "internalType": "uint256",
          "name": "",
          "type": "uint256"
        }
      ],
      "stateMutability": "view",
      "type": "function"
    },
    {
      "inputs": [
        {
          "internalType": "uint256",
          "name": "_quantity",
          "type": "uint256"
        },
        {
          "internalType": "string",
          "name": "_ewaybillNo",
          "type": "string"
        },
        {
          "internalType": "uint256",
          "name": "_originalCost",
          "type": "uint256"
        },
        {
          "internalType": "string",
          "name": "_internalBatchNo",
          "type": "string"
        },
        {
          "internalType": "string",
          "name": "_currentLocation",
          "type": "string"
        }
      ],
      "name": "createBatch",
      "outputs": [],
      "stateMutability": "nonpayable",
      "type": "function"
    },
    {
      "inputs": [
        {
          "internalType": "uint256",
          "name": "_batchId",
          "type": "uint256"
        }
      ],
      "name": "getBatch",
      "outputs": [
        {
          "components": [
            {
              "internalType": "uint256",
              "name": "batchId",
              "type": "uint256"
            },
            {
              "internalType": "address",
              "name": "creator",
              "type": "address"
            },
            {
              "internalType": "address",
              "name": "currentHolder",
              "type": "address"
            },
            {
              "internalType": "string",
              "name": "currentLocation",
              "type": "string"
            },
            {
              "internalType": "enum SupplyChain.Status",
              "name": "status",
              "type": "uint8"
            },
            {
              "internalType": "uint256",
              "name": "quantity",
              "type": "uint256"
            },
            {
              "internalType": "string",
              "name": "ewaybillNo",
              "type": "string"
            },
            {
              "internalType": "uint256",
              "name": "createdAt",
              "type": "uint256"
            },
            {
              "internalType": "uint256",
              "name": "updatedAt",
              "type": "uint256"
            },
            {
              "internalType": "uint256",
              "name": "originalCost",
              "type": "uint256"
            },
            {
              "internalType": "string",
              "name": "internalBatchNo",
              "type": "string"
            }
          ],
          "internalType": "struct SupplyChain.Batch",
          "name": "",
          "type": "tuple"
        }
      ],
      "stateMutability": "view",
      "type": "function"
    },
    {
      "inputs": [],
      "name": "getBatchCount",
      "outputs": [
        {
          "internalType": "uint256",
          "name": "",
          "type": "uint256"
        }
      ],
      "stateMutability": "view",
      "type": "function"
    },
    {
      "inputs": [
        {
          "internalType": "address",
          "name": "_distributor",
          "type": "address"
        }
      ],
      "name": "grantDistributorRole",
      "outputs": [],
      "stateMutability": "nonpayable",
      "type": "function"
    },
    {
      "inputs": [
        {
          "internalType": "address",
          "name": "_manufacturer",
          "type": "address"
        }
      ],
      "name": "grantManufacturerRole",
      "outputs": [],
      "stateMutability": "nonpayable",
      "type": "function"
    },
    {
      "inputs": [
        {
          "internalType": "address",
          "name": "_retailer",
          "type": "address"
        }
      ],
      "name": "grantRetailerRole",
      "outputs": [],
      "stateMutability": "nonpayable",
      "type": "function"
    },
    {
      "inputs": [
        {
          "internalType": "address",
          "name": "",
          "type": "address"
        }
      ],
      "name": "isDistributor",
      "outputs": [
        {
          "internalType": "bool",
          "name": "",
          "type": "bool"
        }
      ],
      "stateMutability": "view",
      "type": "function"
    },
    {
      "inputs": [
        {
          "internalType": "address",
          "name": "",
          "type": "address"
        }
      ],
      "name": "isManufacturer",
      "outputs": [
        {
          "internalType": "bool",
          "name": "",
          "type": "bool"
        }
      ],
      "stateMutability": "view",
      "type": "function"
    },
    {
      "inputs": [
        {
          "internalType": "address",
          "name": "",
          "type": "address"
        }
      ],
      "name": "isRetailer",
      "outputs": [
        {
          "internalType": "bool",
          "name": "",
          "type": "bool"
        }
      ],
      "stateMutability": "view",
      "type": "function"
    },
    {
      "inputs": [],
      "name": "owner",
      "outputs": [
        {
          "internalType": "address",
          "name": "",
          "type": "address"
        }
      ],
      "stateMutability": "view",
      "type": "function"
    },
    {
      "inputs": [
        {
          "internalType": "uint256",
          "name": "",
          "type": "uint256"
        }
      ],
      "name": "products",
      "outputs": [
        {
          "internalType": "uint256",
          "name": "batchId",
          "type": "uint256"
        },
        {
          "internalType": "address",
          "name": "creator",
          "type": "address"
        },
        {
          "internalType": "address",
          "name": "currentHolder",
          "type": "address"
        },
        {
          "internalType": "string",
          "name": "currentLocation",
          "type": "string"
        },
        {
          "internalType": "enum SupplyChain.Status",
          "name": "status",
          "type": "uint8"
        },
        {
          "internalType": "uint256",
          "name": "quantity",
          "type": "uint256"
        },
        {
          "internalType": "string",
          "name": "ewaybillNo",
          "type": "string"
        },
        {
          "internalType": "uint256",
          "name": "createdAt",
          "type": "uint256"
        },
        {
          "internalType": "uint256",
          "name": "updatedAt",
          "type": "uint256"
        },
        {
          "internalType": "uint256",
          "name": "originalCost",
          "type": "uint256"
        },
        {
          "internalType": "string",
          "name": "internalBatchNo",
          "type": "string"
        }
      ],
      "stateMutability": "view",
      "type": "function"
    },
    {
      "inputs": [
        {
          "internalType": "uint256",
          "name": "_batchId",
          "type": "uint256"
        }
      ],
      "name": "receiveBatch",
      "outputs": [],
      "stateMutability": "nonpayable",
      "type": "function"
    },
    {
      "inputs": [
        {
          "internalType": "address",
          "name": "_distributor",
          "type": "address"
        }
      ],
      "name": "revokeDistributorRole",
      "outputs": [],
      "stateMutability": "nonpayable",
      "type": "function"
    },
    {
      "inputs": [
        {
          "internalType": "address",
          "name": "_manufacturer",
          "type": "address"
        }
      ],
      "name": "revokeManufacturerRole",
      "outputs": [],
      "stateMutability": "nonpayable",
      "type": "function"
    },
    {
      "inputs": [
        {
          "internalType": "address",
          "name": "_retailer",
          "type": "address"
        }
      ],
      "name": "revokeRetailerRole",
      "outputs": [],
      "stateMutability": "nonpayable",
      "type": "function"
    },
    {
      "inputs": [
        {
          "internalType": "uint256",
          "name": "_batchId",
          "type": "uint256"
        },
        {
          "internalType": "address",
          "name": "_newHolder",
          "type": "address"
        },
        {
          "internalType": "string",
          "name": "_newLocation",
          "type": "string"
        }
      ],
      "name": "transferBatch",
      "outputs": [],
      "stateMutability": "nonpayable",
      "type": "function"
    }
  ],
  "bytecode": "0x60806040523480156200001157600080fd5b50336000806101000a81548173ffffffffffffffffffffffffffffffffffffffff021916908373ffffffffffffffffffffffffffffffffffffffff16021790555060006001819055506001600260003373ffffffffffffffffffffffffffffffffffffffff1673ffffffffffffffffffffffffffffffffffffffff16815260200190815260200160002060006101000a81548160ff0219169083151502179055503373ffffffffffffffffffffffffffffffffffffffff167fb710f7d3e79cb091613cfea70444ea824ad23f2b1297bdea427bc6f097e346a8604051620000f89062000167565b60405180910390a262000189565b600082825260208201905092915050565b7f4d616e7566616374757265720000000000000000000000000000000000000000600082015250565b60006200014f600c8362000106565b91506200015c8262000117565b602082019050919050565b60006020820190508181036000830152620001828162000140565b9050919050565b6131b080620001996000396000f3fe608060405234801561001057600080fd5b506004361061010b5760003560e01c806368233eef116100a25780638f0c86fa116100715780638f0c86fa146102be578063a8fabfa5146102ee578063c12bcaec1461030c578063e9cee4b914610328578063f9f806e1146103445761010b565b806368233eef1461022c5780637acc0b201461024a5780638bba2a0a146102845780638da5cb5b146102a05761010b565b806355c4281e116100de57806355c4281e146101945780635ac44282146101b05780635bab6fb7146101e05780635da09b88146101fc5761010b565b80630fc7b3431461011057806317485f421461012c57806317d4a4911461014857806318c8ea3014610178575b600080fd5b61012a60048036038101906101259190611f1b565b610360565b005b61014660048036038101906101419190611f1b565b610504565b005b610162600480360381019061015d9190611f1b565b6106a8565b60405161016f9190611f63565b60405180910390f35b610192600480360381019061018d9190611f1b565b6106c8565b005b6101ae60048036038101906101a99190611f1b565b61086c565b005b6101ca60048036038101906101c59190611fb4565b610a10565b6040516101d79190612203565b60405180910390f35b6101fa60048036038101906101f5919061235a565b610d68565b005b61021660048036038101906102119190611f1b565b6110c8565b6040516102239190611f63565b60405180910390f35b6102346110e8565b6040516102419190612438565b60405180910390f35b610264600480360381019061025f9190611fb4565b6110ee565b60405161027b9b9a999897969594939291906124bb565b60405180910390f35b61029e60048036038101906102999190611f1b565b61132d565b005b6102a86114d1565b6040516102b5919061257b565b60405180910390f35b6102d860048036038101906102d39190611f1b565b6114f5565b6040516102e59190611f63565b60405180910390f35b6102f6611515565b6040516103039190612438565b60405180910390f35b61032660048036038101906103219190612596565b61151f565b005b610342600480360381019061033d9190611fb4565b611a5f565b005b61035e60048036038101906103599190611f1b565b611c6d565b005b60008054906101000a900473ffffffffffffffffffffffffffffffffffffffff1673ffffffffffffffffffffffffffffffffffffffff163373ffffffffffffffffffffffffffffffffffffffff16146103ee576040517f08c379a00000000000000000000000000000000000000000000000000000000081526004016103e590612651565b60405180910390fd5b600073ffffffffffffffffffffffffffffffffffffffff168173ffffffffffffffffffffffffffffffffffffffff160361045d576040517f08c379a0000000000000000000000000000000000000000000000000000000008152600401610454906126bd565b60405180910390fd5b6000600260008373ffffffffffffffffffffffffffffffffffffffff1673ffffffffffffffffffffffffffffffffffffffff16815260200190815260200160002060006101000a81548160ff0219169083151502179055508073ffffffffffffffffffffffffffffffffffffffff167f9f43a01c0d4ff5aff09b3b9b472df707ceefd3f948f8942f10fa1562a89213046040516104f990612729565b60405180910390a250565b60008054906101000a900473ffffffffffffffffffffffffffffffffffffffff1673ffffffffffffffffffffffffffffffffffffffff163373ffffffffffffffffffffffffffffffffffffffff1614610592576040517f08c379a000000000000000000000000000000000000000000000000000000000815260040161058990612651565b60405180910390fd5b600073ffffffffffffffffffffffffffffffffffffffff168173ffffffffffffffffffffffffffffffffffffffff1603610601576040517f08c379a00000000000000000000000000000000000000000000000000000000081526004016105f8906126bd565b60405180910390fd5b6000600460008373ffffffffffffffffffffffffffffffffffffffff1673ffffffffffffffffffffffffffffffffffffffff16815260200190815260200160002060006101000a81548160ff0219169083151502179055508073ffffffffffffffffffffffffffffffffffffffff167f9f43a01c0d4ff5aff09b3b9b472df707ceefd3f948f8942f10fa1562a892130460405161069d90612795565b60405180910390a250565b60026020528060005260406000206000915054906101000a900460ff1681565b60008054906101000a900473ffffffffffffffffffffffffffffffffffffffff1673ffffffffffffffffffffffffffffffffffffffff163373ffffffffffffffffffffffffffffffffffffffff1614610756576040517f08c379a000000000000000000000000000000000000000000000000000000000815260040161074d90612651565b60405180910390fd5b600073ffffffffffffffffffffffffffffffffffffffff168173ffffffffffffffffffffffffffffffffffffffff16036107c5576040517f08c379a00000000000000000000000000000000000000000000000000000000081526004016107bc906126bd565b60405180910390fd5b6000600360008373ffffffffffffffffffffffffffffffffffffffff1673ffffffffffffffffffffffffffffffffffffffff16815260200190815260200160002060006101000a81548160ff0219169083151502179055508073ffffffffffffffffffffffffffffffffffffffff167f9f43a01c0d4ff5aff09b3b9b472df707ceefd3f948f8942f10fa1562a892130460405161086190612801565b60405180910390a250565b60008054906101000a900473ffffffffffffffffffffffffffffffffffffffff1673ffffffffffffffffffffffffffffffffffffffff163373ffffffffffffffffffffffffffffffffffffffff16146108fa576040517f08c379a00000000000000000000000000000000000000000000000000000000081526004016108f190612651565b60405180910390fd5b600073ffffffffffffffffffffffffffffffffffffffff168173ffffffffffffffffffffffffffffffffffffffff1603610969576040517f08c379a0000000000000000000000000000000000000000000000000000000008152600401610960906126bd565b60405180910390fd5b6001600260008373ffffffffffffffffffffffffffffffffffffffff1673ffffffffffffffffffffffffffffffffffffffff16815260200190815260200160002060006101000a81548160ff0219169083151502179055508073ffffffffffffffffffffffffffffffffffffffff167fb710f7d3e79cb091613cfea70444ea824ad23f2b1297bdea427bc6f097e346a8604051610a0590612729565b60405180910390a250565b610a18611e11565b816000600560008381526020019081526020016000206007015403610a72576040517f08c379a0000000000000000000000000000000000000000000000000000000008152600401610a699061286d565b60405180910390fd5b6005600084815260200190815260200160002060405180610160016040529081600082015481526020016001820160009054906101000a900473ffffffffffffffffffffffffffffffffffffffff1673ffffffffffffffffffffffffffffffffffffffff1673ffffffffffffffffffffffffffffffffffffffff1681526020016002820160009054906101000a900473ffffffffffffffffffffffffffffffffffffffff1673ffffffffffffffffffffffffffffffffffffffff1673ffffffffffffffffffffffffffffffffffffffff168152602001600382018054610b57906128bc565b80601f0160208091040260200160405190810160405280929190818152602001828054610b83906128bc565b8015610bd05780601f10610ba557610100808354040283529160200191610bd0565b820191906000526020600020905b815481529060010190602001808311610bb357829003601f168201915b505050505081526020016004820160009054906101000a900460ff166002811115610bfe57610bfd61208f565b5b6002811115610c1057610c0f61208f565b5b815260200160058201548152602001600682018054610c2e906128bc565b80601f0160208091040260200160405190810160405280929190818152602001828054610c5a906128bc565b8015610ca75780601f10610c7c57610100808354040283529160200191610ca7565b820191906000526020600020905b815481529060010190602001808311610c8a57829003601f168201915b50505050508152602001600782015481526020016008820154815260200160098201548152602001600a82018054610cde906128bc565b80601f0160208091040260200160405190810160405280929190818152602001828054610d0a906128bc565b8015610d575780601f10610d2c57610100808354040283529160200191610d57565b820191906000526020600020905b815481529060010190602001808311610d3a57829003601f168201915b505050505081525050915050919050565b600260003373ffffffffffffffffffffffffffffffffffffffff1673ffffffffffffffffffffffffffffffffffffffff16815260200190815260200160002060009054906101000a900460ff16610df4576040517f08c379a0000000000000000000000000000000000000000000000000000000008152600401610deb90612939565b60405180910390fd5b60008511610e37576040517f08c379a0000000000000000000000000000000000000000000000000000000008152600401610e2e906129cb565b60405180910390fd5b6000845111610e7b576040517f08c379a0000000000000000000000000000000000000000000000000000000008152600401610e7290612a5d565b60405180910390fd5b60016000815480929190610e8e90612aac565b9190505550600060015490506040518061016001604052808281526020013373ffffffffffffffffffffffffffffffffffffffff1681526020013373ffffffffffffffffffffffffffffffffffffffff168152602001838152602001600280811115610efd57610efc61208f565b5b815260200187815260200186815260200142815260200142815260200185815260200184815250600560008381526020019081526020016000206000820151816000015560208201518160010160006101000a81548173ffffffffffffffffffffffffffffffffffffffff021916908373ffffffffffffffffffffffffffffffffffffffff16021790555060408201518160020160006101000a81548173ffffffffffffffffffffffffffffffffffffffff021916908373ffffffffffffffffffffffffffffffffffffffff1602179055506060820151816003019081610fe49190612ca0565b5060808201518160040160006101000a81548160ff021916908360028111156110105761100f61208f565b5b021790555060a0820151816005015560c08201518160060190816110349190612ca0565b5060e082015181600701556101008201518160080155610120820151816009015561014082015181600a01908161106b9190612ca0565b509050503373ffffffffffffffffffffffffffffffffffffffff16817f42d55efc71ff29a5dba03598254792f23970b6c957b980c6d0250a8e9476ff3a88886040516110b8929190612d72565b60405180910390a3505050505050565b60046020528060005260406000206000915054906101000a900460ff1681565b60015481565b60056020528060005260406000206000915090508060000154908060010160009054906101000a900473ffffffffffffffffffffffffffffffffffffffff16908060020160009054906101000a900473ffffffffffffffffffffffffffffffffffffffff1690806003018054611163906128bc565b80601f016020809104026020016040519081016040528092919081815260200182805461118f906128bc565b80156111dc5780601f106111b1576101008083540402835291602001916111dc565b820191906000526020600020905b8154815290600101906020018083116111bf57829003601f168201915b5050505050908060040160009054906101000a900460ff169080600501549080600601805461120a906128bc565b80601f0160208091040260200160405190810160405280929190818152602001828054611236906128bc565b80156112835780601f1061125857610100808354040283529160200191611283565b820191906000526020600020905b81548152906001019060200180831161126657829003601f168201915b50505050509080600701549080600801549080600901549080600a0180546112aa906128bc565b80601f01602080910402602001604051908101604052809291908181526020018280546112d6906128bc565b80156113235780601f106112f857610100808354040283529160200191611323565b820191906000526020600020905b81548152906001019060200180831161130657829003601f168201915b505050505090508b565b60008054906101000a900473ffffffffffffffffffffffffffffffffffffffff1673ffffffffffffffffffffffffffffffffffffffff163373ffffffffffffffffffffffffffffffffffffffff16146113bb576040517f08c379a00000000000000000000000000000000000000000000000000000000081526004016113b290612651565b60405180910390fd5b600073ffffffffffffffffffffffffffffffffffffffff168173ffffffffffffffffffffffffffffffffffffffff160361142a576040517f08c379a0000000000000000000000000000000000000000000000000000000008152600401611421906126bd565b60405180910390fd5b6001600360008373ffffffffffffffffffffffffffffffffffffffff1673ffffffffffffffffffffffffffffffffffffffff16815260200190815260200160002060006101000a81548160ff0219169083151502179055508073ffffffffffffffffffffffffffffffffffffffff167fb710f7d3e79cb091613cfea70444ea824ad23f2b1297bdea427bc6f097e346a86040516114c690612801565b60405180910390a250565b60008054906101000a900473ffffffffffffffffffffffffffffffffffffffff1681565b60036020528060005260406000206000915054906101000a900460ff1681565b6000600154905090565b826000600560008381526020019081526020016000206007015403611579576040517f08c379a00000000000000000000000000000000000000000000000000000000081526004016115709061286d565b60405180910390fd5b836005600082815260200190815260200160002060020160009054906101000a900473ffffffffffffffffffffffffffffffffffffffff1673ffffffffffffffffffffffffffffffffffffffff163373ffffffffffffffffffffffffffffffffffffffff161461161e576040517f08c379a000000000000000000000000000000000000000000000000000000000815260040161161590612e14565b60405180910390fd5b600073ffffffffffffffffffffffffffffffffffffffff168473ffffffffffffffffffffffffffffffffffffffff160361168d576040517f08c379a000000000000000000000000000000000000000000000000000000000815260040161168490612e80565b60405180910390fd5b60006005600087815260200190815260200160002090506002808111156116b7576116b661208f565b5b8160040160009054906101000a900460ff1660028111156116db576116da61208f565b5b1461171b576040517f08c379a000000000000000000000000000000000000000000000000000000000815260040161171290612f12565b60405180910390fd5b600260003373ffffffffffffffffffffffffffffffffffffffff1673ffffffffffffffffffffffffffffffffffffffff16815260200190815260200160002060009054906101000a900460ff16156117fe57600360008673ffffffffffffffffffffffffffffffffffffffff1673ffffffffffffffffffffffffffffffffffffffff16815260200190815260200160002060009054906101000a900460ff166117f9576040517f08c379a00000000000000000000000000000000000000000000000000000000081526004016117f090612fa4565b60405180910390fd5b611971565b600360003373ffffffffffffffffffffffffffffffffffffffff1673ffffffffffffffffffffffffffffffffffffffff16815260200190815260200160002060009054906101000a900460ff161561193557600360008673ffffffffffffffffffffffffffffffffffffffff1673ffffffffffffffffffffffffffffffffffffffff16815260200190815260200160002060009054906101000a900460ff16806118f15750600460008673ffffffffffffffffffffffffffffffffffffffff1673ffffffffffffffffffffffffffffffffffffffff16815260200190815260200160002060009054906101000a900460ff165b611930576040517f08c379a00000000000000000000000000000000000000000000000000000000081526004016119279061305c565b60405180910390fd5b611970565b6040517f08c379a0000000000000000000000000000000000000000000000000000000008152600401611967906130ee565b60405180910390fd5b5b848160020160006101000a81548173ffffffffffffffffffffffffffffffffffffffff021916908373ffffffffffffffffffffffffffffffffffffffff160217905550838160030190816119c59190612ca0565b5060018160040160006101000a81548160ff021916908360028111156119ee576119ed61208f565b5b02179055504281600801819055508473ffffffffffffffffffffffffffffffffffffffff163373ffffffffffffffffffffffffffffffffffffffff16877fb9f31d1b8db0327a09cde76de6662ee23a4ecd72fbb0411cdfa7969fed7abe4460405160405180910390a4505050505050565b806000600560008381526020019081526020016000206007015403611ab9576040517f08c379a0000000000000000000000000000000000000000000000000000000008152600401611ab09061286d565b60405180910390fd5b816005600082815260200190815260200160002060020160009054906101000a900473ffffffffffffffffffffffffffffffffffffffff1673ffffffffffffffffffffffffffffffffffffffff163373ffffffffffffffffffffffffffffffffffffffff1614611b5e576040517f08c379a0000000000000000000000000000000000000000000000000000000008152600401611b5590612e14565b60405180910390fd5b600060056000858152602001908152602001600020905060016002811115611b8957611b8861208f565b5b8160040160009054906101000a900460ff166002811115611bad57611bac61208f565b5b14611bed576040517f08c379a0000000000000000000000000000000000000000000000000000000008152600401611be49061315a565b60405180910390fd5b60028160040160006101000a81548160ff02191690836002811115611c1557611c1461208f565b5b02179055504281600801819055503373ffffffffffffffffffffffffffffffffffffffff16847f3ee410ca09d61e8af6049b2d9a91a1bc39d01bdeffbac1a042c97c176ecc4c2460405160405180910390a350505050565b60008054906101000a900473ffffffffffffffffffffffffffffffffffffffff1673ffffffffffffffffffffffffffffffffffffffff163373ffffffffffffffffffffffffffffffffffffffff1614611cfb576040517f08c379a0000000000000000000000000000000000000000000000000000000008152600401611cf290612651565b60405180910390fd5b600073ffffffffffffffffffffffffffffffffffffffff168173ffffffffffffffffffffffffffffffffffffffff1603611d6a576040517f08c379a0000000000000000000000000000000000000000000000000000000008152600401611d61906126bd565b60405180910390fd5b6001600460008373ffffffffffffffffffffffffffffffffffffffff1673ffffffffffffffffffffffffffffffffffffffff16815260200190815260200160002060006101000a81548160ff0219169083151502179055508073ffffffffffffffffffffffffffffffffffffffff167fb710f7d3e79cb091613cfea70444ea824ad23f2b1297bdea427bc6f097e346a8604051611e0690612795565b60405180910390a250565b60405180610160016040528060008152602001600073ffffffffffffffffffffffffffffffffffffffff168152602001600073ffffffffffffffffffffffffffffffffffffffff1681526020016060815260200160006002811115611e7957611e7861208f565b5b81526020016000815260200160608152602001600081526020016000815260200160008152602001606081525090565b6000604051905090565b600080fd5b600080fd5b600073ffffffffffffffffffffffffffffffffffffffff82169050919050565b6000611ee882611ebd565b9050919050565b611ef881611edd565b8114611f0357600080fd5b50565b600081359050611f1581611eef565b92915050565b600060208284031215611f3157611f30611eb3565b5b6000611f3f84828501611f06565b91505092915050565b60008115159050919050565b611f5d81611f48565b82525050565b6000602082019050611f786000830184611f54565b92915050565b6000819050919050565b611f9181611f7e565b8114611f9c57600080fd5b50565b600081359050611fae81611f88565b92915050565b600060208284031215611fca57611fc9611eb3565b5b6000611fd884828501611f9f565b91505092915050565b611fea81611f7e565b82525050565b611ff981611edd565b82525050565b600081519050919050565b600082825260208201905092915050565b60005b8381101561203957808201518184015260208101905061201e565b60008484015250505050565b6000601f19601f8301169050919050565b600061206182611fff565b61206b818561200a565b935061207b81856020860161201b565b61208481612045565b840191505092915050565b7f4e487b7100000000000000000000000000000000000000000000000000000000600052602160045260246000fd5b600381106120cf576120ce61208f565b5b50565b60008190506120e0826120be565b919050565b60006120f0826120d2565b9050919050565b612100816120e5565b82525050565b60006101608301600083015161211f6000860182611fe1565b5060208301516121326020860182611ff0565b5060408301516121456040860182611ff0565b506060830151848203606086015261215d8282612056565b915050608083015161217260808601826120f7565b5060a083015161218560a0860182611fe1565b5060c083015184820360c086015261219d8282612056565b91505060e08301516121b260e0860182611fe1565b506101008301516121c7610100860182611fe1565b506101208301516121dc610120860182611fe1565b506101408301518482036101408601526121f68282612056565b9150508091505092915050565b6000602082019050818103600083015261221d8184612106565b905092915050565b600080fd5b600080fd5b7f4e487b7100000000000000000000000000000000000000000000000000000000600052604160045260246000fd5b61226782612045565b810181811067ffffffffffffffff821117156122865761228561222f565b5b80604052505050565b6000612299611ea9565b90506122a5828261225e565b919050565b600067ffffffffffffffff8211156122c5576122c461222f565b5b6122ce82612045565b9050602081019050919050565b82818337600083830152505050565b60006122fd6122f8846122aa565b61228f565b9050828152602081018484840111156123195761231861222a565b5b6123248482856122db565b509392505050565b600082601f83011261234157612340612225565b5b81356123518482602086016122ea565b91505092915050565b600080600080600060a0868803121561237657612375611eb3565b5b600061238488828901611f9f565b955050602086013567ffffffffffffffff8111156123a5576123a4611eb8565b5b6123b18882890161232c565b94505060406123c288828901611f9f565b935050606086013567ffffffffffffffff8111156123e3576123e2611eb8565b5b6123ef8882890161232c565b925050608086013567ffffffffffffffff8111156124105761240f611eb8565b5b61241c8882890161232c565b9150509295509295909350565b61243281611f7e565b82525050565b600060208201905061244d6000830184612429565b92915050565b61245c81611edd565b82525050565b600082825260208201905092915050565b600061247e82611fff565b6124888185612462565b935061249881856020860161201b565b6124a181612045565b840191505092915050565b6124b5816120e5565b82525050565b6000610160820190506124d1600083018e612429565b6124de602083018d612453565b6124eb604083018c612453565b81810360608301526124fd818b612473565b905061250c608083018a6124ac565b61251960a0830189612429565b81810360c083015261252b8188612473565b905061253a60e0830187612429565b612548610100830186612429565b612556610120830185612429565b8181036101408301526125698184612473565b90509c9b505050505050505050505050565b60006020820190506125906000830184612453565b92915050565b6000806000606084860312156125af576125ae611eb3565b5b60006125bd86828701611f9f565b93505060206125ce86828701611f06565b925050604084013567ffffffffffffffff8111156125ef576125ee611eb8565b5b6125fb8682870161232c565b9150509250925092565b7f43616c6c6572206973206e6f7420746865206f776e6572000000000000000000600082015250565b600061263b601783612462565b915061264682612605565b602082019050919050565b6000602082019050818103600083015261266a8161262e565b9050919050565b7f496e76616c696420616464726573730000000000000000000000000000000000600082015250565b60006126a7600f83612462565b91506126b282612671565b602082019050919050565b600060208201905081810360008301526126d68161269a565b9050919050565b7f4d616e7566616374757265720000000000000000000000000000000000000000600082015250565b6000612713600c83612462565b915061271e826126dd565b602082019050919050565b6000602082019050818103600083015261274281612706565b9050919050565b7f52657461696c6572000000000000000000000000000000000000000000000000600082015250565b600061277f600883612462565b915061278a82612749565b602082019050919050565b600060208201905081810360008301526127ae81612772565b9050919050565b7f4469737472696275746f72000000000000000000000000000000000000000000600082015250565b60006127eb600b83612462565b91506127f6826127b5565b602082019050919050565b6000602082019050818103600083015261281a816127de565b9050919050565b7f426174636820646f6573206e6f74206578697374000000000000000000000000600082015250565b6000612857601483612462565b915061286282612821565b602082019050919050565b600060208201905081810360008301526128868161284a565b9050919050565b7f4e487b7100000000000000000000000000000000000000000000000000000000600052602260045260246000fd5b600060028204905060018216806128d457607f821691505b6020821081036128e7576128e661288d565b5b50919050565b7f43616c6c6572206973206e6f742061206d616e75666163747572657200000000600082015250565b6000612923601c83612462565b915061292e826128ed565b602082019050919050565b6000602082019050818103600083015261295281612916565b9050919050565b7f5175616e74697479206d7573742062652067726561746572207468616e207a6560008201527f726f000000000000000000000000000000000000000000000000000000000000602082015250565b60006129b5602283612462565b91506129c082612959565b604082019050919050565b600060208201905081810360008301526129e4816129a8565b9050919050565b7f452d7761792062696c6c206e756d6265722063616e6e6f7420626520656d707460008201527f7900000000000000000000000000000000000000000000000000000000000000602082015250565b6000612a47602183612462565b9150612a52826129eb565b604082019050919050565b60006020820190508181036000830152612a7681612a3a565b9050919050565b7f4e487b7100000000000000000000000000000000000000000000000000000000600052601160045260246000fd5b6000612ab782611f7e565b91507fffffffffffffffffffffffffffffffffffffffffffffffffffffffffffffffff8203612ae957612ae8612a7d565b5b600182019050919050565b60008190508160005260206000209050919050565b60006020601f8301049050919050565b600082821b905092915050565b600060088302612b567fffffffffffffffffffffffffffffffffffffffffffffffffffffffffffffffff82612b19565b612b608683612b19565b95508019841693508086168417925050509392505050565b6000819050919050565b6000612b9d612b98612b9384611f7e565b612b78565b611f7e565b9050919050565b6000819050919050565b612bb783612b82565b612bcb612bc382612ba4565b848454612b26565b825550505050565b600090565b612be0612bd3565b612beb818484612bae565b505050565b5b81811015612c0f57612c04600082612bd8565b600181019050612bf1565b5050565b601f821115612c5457612c2581612af4565b612c2e84612b09565b81016020851015612c3d578190505b612c51612c4985612b09565b830182612bf0565b50505b505050565b600082821c905092915050565b6000612c7760001984600802612c59565b1980831691505092915050565b6000612c908383612c66565b9150826002028217905092915050565b612ca982611fff565b67ffffffffffffffff811115612cc257612cc161222f565b5b612ccc82546128bc565b612cd7828285612c13565b600060209050601f831160018114612d0a5760008415612cf8578287015190505b612d028582612c84565b865550612d6a565b601f198416612d1886612af4565b60005b82811015612d4057848901518255600182019150602085019450602081019050612d1b565b86831015612d5d5784890151612d59601f891682612c66565b8355505b6001600288020188555050505b505050505050565b6000604082019050612d876000830185612429565b8181036020830152612d998184612473565b90509392505050565b7f43616c6c6572206973206e6f74207468652063757272656e7420686f6c64657260008201527f206f662074686520626174636800000000000000000000000000000000000000602082015250565b6000612dfe602d83612462565b9150612e0982612da2565b604082019050919050565b60006020820190508181036000830152612e2d81612df1565b9050919050565b7f496e76616c6964206e657720686f6c6465722061646472657373000000000000600082015250565b6000612e6a601a83612462565b9150612e7582612e34565b602082019050919050565b60006020820190508181036000830152612e9981612e5d565b9050919050565b7f4261746368206d75737420626520696e2027526563656976656427207374617460008201527f6520746f206265207472616e7366657272656400000000000000000000000000602082015250565b6000612efc603383612462565b9150612f0782612ea0565b604082019050919050565b60006020820190508181036000830152612f2b81612eef565b9050919050565b7f4d616e7566616374757265722063616e206f6e6c79207472616e73666572207460008201527f6f2061206469737472696275746f720000000000000000000000000000000000602082015250565b6000612f8e602f83612462565b9150612f9982612f32565b604082019050919050565b60006020820190508181036000830152612fbd81612f81565b9050919050565b7f4469737472696275746f722063616e206f6e6c79207472616e7366657220746f60008201527f20616e6f74686572206469737472696275746f72206f7220612072657461696c60208201527f6572000000000000000000000000000000000000000000000000000000000000604082015250565b6000613046604283612462565b915061305182612fc4565b606082019050919050565b6000602082019050818103600083015261307581613039565b9050919050565b7f52657461696c6572732063616e6e6f74207472616e736665722062617463686560008201527f7300000000000000000000000000000000000000000000000000000000000000602082015250565b60006130d8602183612462565b91506130e38261307c565b604082019050919050565b60006020820190508181036000830152613107816130cb565b9050919050565b7f4261746368206973206e6f7420696e207472616e736974000000000000000000600082015250565b6000613144601783612462565b915061314f8261310e565b602082019050919050565b6000602082019050818103600083015261317381613137565b905091905056fea26469706673582212204f81c7e3896485cf0664915a6217fde1ddec7d3e824a7833172299083a23bcb564736f6c63430008180033",
  "linkReferences": {},
  "deployedLinkReferences": {}
}