{
  "_format": "hh-sol-artifact-1",
  "contractName": "SupplyChain",
  "sourceName": "contracts/SupplyChain.sol",
  "abi": [
    {
      "inputs": [],
      "stateMutability": "nonpayable",
      "type": "constructor"
    },
    {
      "anonymous": false,
      "inputs": [
        {
          "indexed": true,
          "internalType": "uint256",
          "name": "batchId",
          "type": "uint256"
        },
        {
          "indexed": true,
          "internalType": "address",
          "name": "creator",
          "type": "address"
        },
        {
          "indexed": false,
          "internalType": "uint256",
          "name": "quantity",
          "type": "uint256"
        },
        {
          "indexed": false,
          "internalType": "string",
          "name": "ewaybillNo",
          "type": "string"
        }
      ],
      "name": "BatchCreated",
      "type": "event"
    },
    {
      "anonymous": false,
      "inputs": [
        {
          "indexed": true,
          "internalType": "uint256",
          "name": "batchId",
          "type": "uint256"
        },
        {
          "indexed": true,
          "internalType": "address",
          "name": "receiver",
          "type": "address"
        }
      ],
      "name": "BatchReceived",
      "type": "event"
    },
    {
      "anonymous": false,
      "inputs": [
        {
          "indexed": true,
          "internalType": "uint256",
          "name": "batchId",
          "type": "uint256"
        },
        {
          "indexed": true,
          "internalType": "address",
          "name": "from",
          "type": "address"
        },
        {
          "indexed": true,
          "internalType": "address",
          "name": "to",
          "type": "address"
        }
      ],
      "name": "BatchTransferred",
      "type": "event"
    },
    {
      "anonymous": false,
      "inputs": [
        {
          "indexed": true,
          "internalType": "address",
          "name": "user",
          "type": "address"
        },
        {
          "indexed": false,
          "internalType": "string",
          "name": "role",
          "type": "string"
        }
      ],
      "name": "RoleGranted",
      "type": "event"
    },
    {
      "anonymous": false,
      "inputs": [
        {
          "indexed": true,
          "internalType": "address",
          "name": "user",
          "type": "address"
        },
        {
          "indexed": false,
          "internalType": "string",
          "name": "role",
          "type": "string"
        }
      ],
      "name": "RoleRevoked",
      "type": "event"
    },
    {
      "inputs": [],
      "name": "batchCounter",
      "outputs": [
        {
          "internalType": "uint256",
          "name": "",
          "type": "uint256"
        }
      ],
      "stateMutability": "view",
      "type": "function"
    },
    {
      "inputs": [
        {
          "internalType": "uint256",
          "name": "_quantity",
          "type": "uint256"
        },
        {
          "internalType": "string",
          "name": "_ewaybillNo",
          "type": "string"
        }
      ],
      "name": "createBatch",
      "outputs": [],
      "stateMutability": "nonpayable",
      "type": "function"
    },
    {
      "inputs": [
        {
          "internalType": "uint256",
          "name": "_batchId",
          "type": "uint256"
        }
      ],
      "name": "getBatch",
      "outputs": [
        {
          "components": [
            {
              "internalType": "uint256",
              "name": "batchId",
              "type": "uint256"
            },
            {
              "internalType": "address",
              "name": "creator",
              "type": "address"
            },
            {
              "internalType": "address",
              "name": "currentHolder",
              "type": "address"
            },
            {
              "internalType": "uint256",
              "name": "quantity",
              "type": "uint256"
            },
            {
              "internalType": "string",
              "name": "ewaybillNo",
              "type": "string"
            },
            {
              "internalType": "enum SupplyChain.Status",
              "name": "status",
              "type": "uint8"
            },
            {
              "internalType": "uint256",
              "name": "createdAt",
              "type": "uint256"
            },
            {
              "internalType": "uint256",
              "name": "updatedAt",
              "type": "uint256"
            }
          ],
          "internalType": "struct SupplyChain.Batch",
          "name": "",
          "type": "tuple"
        }
      ],
      "stateMutability": "view",
      "type": "function"
    },
    {
      "inputs": [],
      "name": "getBatchCount",
      "outputs": [
        {
          "internalType": "uint256",
          "name": "",
          "type": "uint256"
        }
      ],
      "stateMutability": "view",
      "type": "function"
    },
    {
      "inputs": [
        {
          "internalType": "address",
          "name": "_distributor",
          "type": "address"
        }
      ],
      "name": "grantDistributorRole",
      "outputs": [],
      "stateMutability": "nonpayable",
      "type": "function"
    },
    {
      "inputs": [
        {
          "internalType": "address",
          "name": "_retailer",
          "type": "address"
        }
      ],
      "name": "grantRetailerRole",
      "outputs": [],
      "stateMutability": "nonpayable",
      "type": "function"
    },
    {
      "inputs": [
        {
          "internalType": "address",
          "name": "",
          "type": "address"
        }
      ],
      "name": "isDistributor",
      "outputs": [
        {
          "internalType": "bool",
          "name": "",
          "type": "bool"
        }
      ],
      "stateMutability": "view",
      "type": "function"
    },
    {
      "inputs": [
        {
          "internalType": "address",
          "name": "",
          "type": "address"
        }
      ],
      "name": "isRetailer",
      "outputs": [
        {
          "internalType": "bool",
          "name": "",
          "type": "bool"
        }
      ],
      "stateMutability": "view",
      "type": "function"
    },
    {
      "inputs": [],
      "name": "owner",
      "outputs": [
        {
          "internalType": "address",
          "name": "",
          "type": "address"
        }
      ],
      "stateMutability": "view",
      "type": "function"
    },
    {
      "inputs": [
        {
          "internalType": "uint256",
          "name": "",
          "type": "uint256"
        }
      ],
      "name": "products",
      "outputs": [
        {
          "internalType": "uint256",
          "name": "batchId",
          "type": "uint256"
        },
        {
          "internalType": "address",
          "name": "creator",
          "type": "address"
        },
        {
          "internalType": "address",
          "name": "currentHolder",
          "type": "address"
        },
        {
          "internalType": "uint256",
          "name": "quantity",
          "type": "uint256"
        },
        {
          "internalType": "string",
          "name": "ewaybillNo",
          "type": "string"
        },
        {
          "internalType": "enum SupplyChain.Status",
          "name": "status",
          "type": "uint8"
        },
        {
          "internalType": "uint256",
          "name": "createdAt",
          "type": "uint256"
        },
        {
          "internalType": "uint256",
          "name": "updatedAt",
          "type": "uint256"
        }
      ],
      "stateMutability": "view",
      "type": "function"
    },
    {
      "inputs": [
        {
          "internalType": "uint256",
          "name": "_batchId",
          "type": "uint256"
        }
      ],
      "name": "receiveBatch",
      "outputs": [],
      "stateMutability": "nonpayable",
      "type": "function"
    },
    {
      "inputs": [
        {
          "internalType": "address",
          "name": "_distributor",
          "type": "address"
        }
      ],
      "name": "revokeDistributorRole",
      "outputs": [],
      "stateMutability": "nonpayable",
      "type": "function"
    },
    {
      "inputs": [
        {
          "internalType": "address",
          "name": "_retailer",
          "type": "address"
        }
      ],
      "name": "revokeRetailerRole",
      "outputs": [],
      "stateMutability": "nonpayable",
      "type": "function"
    },
    {
      "inputs": [
        {
          "internalType": "uint256",
          "name": "_batchId",
          "type": "uint256"
        },
        {
          "internalType": "address",
          "name": "_newHolder",
          "type": "address"
        }
      ],
      "name": "transferBatch",
      "outputs": [],
      "stateMutability": "nonpayable",
      "type": "function"
    }
  ],
  "bytecode": "0x608060405234801561001057600080fd5b50336000806101000a81548173ffffffffffffffffffffffffffffffffffffffff021916908373ffffffffffffffffffffffffffffffffffffffff1602179055506000600181905550612636806100686000396000f3fe608060405234801561001057600080fd5b50600436106100ea5760003560e01c80637acc0b201161008c5780638f0c86fa116100665780638f0c86fa1461024e578063a8fabfa51461027e578063e9cee4b91461029c578063f9f806e1146102b8576100ea565b80637acc0b20146101dd5780638bba2a0a146102145780638da5cb5b14610230576100ea565b80635ac44282116100c85780635ac44282146101435780635da09b8814610173578063621f2b0e146101a357806368233eef146101bf576100ea565b806317485f42146100ef57806318c8ea301461010b5780634b68c00114610127575b600080fd5b610109600480360381019061010491906116ed565b6102d4565b005b610125600480360381019061012091906116ed565b610478565b005b610141600480360381019061013c9190611896565b61061c565b005b61015d600480360381019061015891906118f2565b610930565b60405161016a9190611ae3565b60405180910390f35b61018d600480360381019061018891906116ed565b610b5a565b60405161019a9190611b20565b60405180910390f35b6101bd60048036038101906101b89190611b3b565b610b7a565b005b6101c7610f31565b6040516101d49190611b8a565b60405180910390f35b6101f760048036038101906101f291906118f2565b610f37565b60405161020b989796959493929190611c0d565b60405180910390f35b61022e600480360381019061022991906116ed565b611054565b005b6102386111f8565b6040516102459190611c92565b60405180910390f35b610268600480360381019061026391906116ed565b61121c565b6040516102759190611b20565b60405180910390f35b61028661123c565b6040516102939190611b8a565b60405180910390f35b6102b660048036038101906102b191906118f2565b611246565b005b6102d260048036038101906102cd91906116ed565b611454565b005b60008054906101000a900473ffffffffffffffffffffffffffffffffffffffff1673ffffffffffffffffffffffffffffffffffffffff163373ffffffffffffffffffffffffffffffffffffffff1614610362576040517f08c379a000000000000000000000000000000000000000000000000000000000815260040161035990611cf9565b60405180910390fd5b600073ffffffffffffffffffffffffffffffffffffffff168173ffffffffffffffffffffffffffffffffffffffff16036103d1576040517f08c379a00000000000000000000000000000000000000000000000000000000081526004016103c890611d65565b60405180910390fd5b6000600360008373ffffffffffffffffffffffffffffffffffffffff1673ffffffffffffffffffffffffffffffffffffffff16815260200190815260200160002060006101000a81548160ff0219169083151502179055508073ffffffffffffffffffffffffffffffffffffffff167f9f43a01c0d4ff5aff09b3b9b472df707ceefd3f948f8942f10fa1562a892130460405161046d90611dd1565b60405180910390a250565b60008054906101000a900473ffffffffffffffffffffffffffffffffffffffff1673ffffffffffffffffffffffffffffffffffffffff163373ffffffffffffffffffffffffffffffffffffffff1614610506576040517f08c379a00000000000000000000000000000000000000000000000000000000081526004016104fd90611cf9565b60405180910390fd5b600073ffffffffffffffffffffffffffffffffffffffff168173ffffffffffffffffffffffffffffffffffffffff1603610575576040517f08c379a000000000000000000000000000000000000000000000000000000000815260040161056c90611d65565b60405180910390fd5b6000600260008373ffffffffffffffffffffffffffffffffffffffff1673ffffffffffffffffffffffffffffffffffffffff16815260200190815260200160002060006101000a81548160ff0219169083151502179055508073ffffffffffffffffffffffffffffffffffffffff167f9f43a01c0d4ff5aff09b3b9b472df707ceefd3f948f8942f10fa1562a892130460405161061190611e3d565b60405180910390a250565b60008054906101000a900473ffffffffffffffffffffffffffffffffffffffff1673ffffffffffffffffffffffffffffffffffffffff163373ffffffffffffffffffffffffffffffffffffffff16146106aa576040517f08c379a00000000000000000000000000000000000000000000000000000000081526004016106a190611cf9565b60405180910390fd5b600082116106ed576040517f08c379a00000000000000000000000000000000000000000000000000000000081526004016106e490611ecf565b60405180910390fd5b6000815111610731576040517f08c379a000000000000000000000000000000000000000000000000000000000815260040161072890611f61565b60405180910390fd5b6001600081548092919061074490611fb0565b9190505550600060015490506040518061010001604052808281526020013373ffffffffffffffffffffffffffffffffffffffff1681526020013373ffffffffffffffffffffffffffffffffffffffff1681526020018481526020018381526020016002808111156107b9576107b86119bc565b5b815260200142815260200142815250600460008381526020019081526020016000206000820151816000015560208201518160010160006101000a81548173ffffffffffffffffffffffffffffffffffffffff021916908373ffffffffffffffffffffffffffffffffffffffff16021790555060408201518160020160006101000a81548173ffffffffffffffffffffffffffffffffffffffff021916908373ffffffffffffffffffffffffffffffffffffffff1602179055506060820151816003015560808201518160040190816108929190612204565b5060a08201518160050160006101000a81548160ff021916908360028111156108be576108bd6119bc565b5b021790555060c0820151816006015560e082015181600701559050503373ffffffffffffffffffffffffffffffffffffffff16817f42d55efc71ff29a5dba03598254792f23970b6c957b980c6d0250a8e9476ff3a85856040516109239291906122d6565b60405180910390a3505050565b6109386115f8565b816000600460008381526020019081526020016000206006015403610992576040517f08c379a000000000000000000000000000000000000000000000000000000000815260040161098990612352565b60405180910390fd5b6004600084815260200190815260200160002060405180610100016040529081600082015481526020016001820160009054906101000a900473ffffffffffffffffffffffffffffffffffffffff1673ffffffffffffffffffffffffffffffffffffffff1673ffffffffffffffffffffffffffffffffffffffff1681526020016002820160009054906101000a900473ffffffffffffffffffffffffffffffffffffffff1673ffffffffffffffffffffffffffffffffffffffff1673ffffffffffffffffffffffffffffffffffffffff16815260200160038201548152602001600482018054610a8190612027565b80601f0160208091040260200160405190810160405280929190818152602001828054610aad90612027565b8015610afa5780601f10610acf57610100808354040283529160200191610afa565b820191906000526020600020905b815481529060010190602001808311610add57829003601f168201915b505050505081526020016005820160009054906101000a900460ff166002811115610b2857610b276119bc565b5b6002811115610b3a57610b396119bc565b5b815260200160068201548152602001600782015481525050915050919050565b60036020528060005260406000206000915054906101000a900460ff1681565b816000600460008381526020019081526020016000206006015403610bd4576040517f08c379a0000000000000000000000000000000000000000000000000000000008152600401610bcb90612352565b60405180910390fd5b826004600082815260200190815260200160002060020160009054906101000a900473ffffffffffffffffffffffffffffffffffffffff1673ffffffffffffffffffffffffffffffffffffffff163373ffffffffffffffffffffffffffffffffffffffff1614610c79576040517f08c379a0000000000000000000000000000000000000000000000000000000008152600401610c70906123e4565b60405180910390fd5b600073ffffffffffffffffffffffffffffffffffffffff168373ffffffffffffffffffffffffffffffffffffffff1603610ce8576040517f08c379a0000000000000000000000000000000000000000000000000000000008152600401610cdf90612450565b60405180910390fd5b600260008473ffffffffffffffffffffffffffffffffffffffff1673ffffffffffffffffffffffffffffffffffffffff16815260200190815260200160002060009054906101000a900460ff1680610d895750600360008473ffffffffffffffffffffffffffffffffffffffff1673ffffffffffffffffffffffffffffffffffffffff16815260200190815260200160002060009054906101000a900460ff165b610dc8576040517f08c379a0000000000000000000000000000000000000000000000000000000008152600401610dbf906124e2565b60405180910390fd5b6000600460008681526020019081526020016000209050600280811115610df257610df16119bc565b5b8160050160009054906101000a900460ff166002811115610e1657610e156119bc565b5b14610e56576040517f08c379a0000000000000000000000000000000000000000000000000000000008152600401610e4d90612574565b60405180910390fd5b838160020160006101000a81548173ffffffffffffffffffffffffffffffffffffffff021916908373ffffffffffffffffffffffffffffffffffffffff16021790555060018160050160006101000a81548160ff02191690836002811115610ec157610ec06119bc565b5b02179055504281600701819055508373ffffffffffffffffffffffffffffffffffffffff163373ffffffffffffffffffffffffffffffffffffffff16867fb9f31d1b8db0327a09cde76de6662ee23a4ecd72fbb0411cdfa7969fed7abe4460405160405180910390a45050505050565b60015481565b60046020528060005260406000206000915090508060000154908060010160009054906101000a900473ffffffffffffffffffffffffffffffffffffffff16908060020160009054906101000a900473ffffffffffffffffffffffffffffffffffffffff1690806003015490806004018054610fb290612027565b80601f0160208091040260200160405190810160405280929190818152602001828054610fde90612027565b801561102b5780601f106110005761010080835404028352916020019161102b565b820191906000526020600020905b81548152906001019060200180831161100e57829003601f168201915b5050505050908060050160009054906101000a900460ff16908060060154908060070154905088565b60008054906101000a900473ffffffffffffffffffffffffffffffffffffffff1673ffffffffffffffffffffffffffffffffffffffff163373ffffffffffffffffffffffffffffffffffffffff16146110e2576040517f08c379a00000000000000000000000000000000000000000000000000000000081526004016110d990611cf9565b60405180910390fd5b600073ffffffffffffffffffffffffffffffffffffffff168173ffffffffffffffffffffffffffffffffffffffff1603611151576040517f08c379a000000000000000000000000000000000000000000000000000000000815260040161114890611d65565b60405180910390fd5b6001600260008373ffffffffffffffffffffffffffffffffffffffff1673ffffffffffffffffffffffffffffffffffffffff16815260200190815260200160002060006101000a81548160ff0219169083151502179055508073ffffffffffffffffffffffffffffffffffffffff167fb710f7d3e79cb091613cfea70444ea824ad23f2b1297bdea427bc6f097e346a86040516111ed90611e3d565b60405180910390a250565b60008054906101000a900473ffffffffffffffffffffffffffffffffffffffff1681565b60026020528060005260406000206000915054906101000a900460ff1681565b6000600154905090565b8060006004600083815260200190815260200160002060060154036112a0576040517f08c379a000000000000000000000000000000000000000000000000000000000815260040161129790612352565b60405180910390fd5b816004600082815260200190815260200160002060020160009054906101000a900473ffffffffffffffffffffffffffffffffffffffff1673ffffffffffffffffffffffffffffffffffffffff163373ffffffffffffffffffffffffffffffffffffffff1614611345576040517f08c379a000000000000000000000000000000000000000000000000000000000815260040161133c906123e4565b60405180910390fd5b6000600460008581526020019081526020016000209050600160028111156113705761136f6119bc565b5b8160050160009054906101000a900460ff166002811115611394576113936119bc565b5b146113d4576040517f08c379a00000000000000000000000000000000000000000000000000000000081526004016113cb906125e0565b60405180910390fd5b60028160050160006101000a81548160ff021916908360028111156113fc576113fb6119bc565b5b02179055504281600701819055503373ffffffffffffffffffffffffffffffffffffffff16847f3ee410ca09d61e8af6049b2d9a91a1bc39d01bdeffbac1a042c97c176ecc4c2460405160405180910390a350505050565b60008054906101000a900473ffffffffffffffffffffffffffffffffffffffff1673ffffffffffffffffffffffffffffffffffffffff163373ffffffffffffffffffffffffffffffffffffffff16146114e2576040517f08c379a00000000000000000000000000000000000000000000000000000000081526004016114d990611cf9565b60405180910390fd5b600073ffffffffffffffffffffffffffffffffffffffff168173ffffffffffffffffffffffffffffffffffffffff1603611551576040517f08c379a000000000000000000000000000000000000000000000000000000000815260040161154890611d65565b60405180910390fd5b6001600360008373ffffffffffffffffffffffffffffffffffffffff1673ffffffffffffffffffffffffffffffffffffffff16815260200190815260200160002060006101000a81548160ff0219169083151502179055508073ffffffffffffffffffffffffffffffffffffffff167fb710f7d3e79cb091613cfea70444ea824ad23f2b1297bdea427bc6f097e346a86040516115ed90611dd1565b60405180910390a250565b60405180610100016040528060008152602001600073ffffffffffffffffffffffffffffffffffffffff168152602001600073ffffffffffffffffffffffffffffffffffffffff168152602001600081526020016060815260200160006002811115611667576116666119bc565b5b815260200160008152602001600081525090565b6000604051905090565b600080fd5b600080fd5b600073ffffffffffffffffffffffffffffffffffffffff82169050919050565b60006116ba8261168f565b9050919050565b6116ca816116af565b81146116d557600080fd5b50565b6000813590506116e7816116c1565b92915050565b60006020828403121561170357611702611685565b5b6000611711848285016116d8565b91505092915050565b6000819050919050565b61172d8161171a565b811461173857600080fd5b50565b60008135905061174a81611724565b92915050565b600080fd5b600080fd5b6000601f19601f8301169050919050565b7f4e487b7100000000000000000000000000000000000000000000000000000000600052604160045260246000fd5b6117a38261175a565b810181811067ffffffffffffffff821117156117c2576117c161176b565b5b80604052505050565b60006117d561167b565b90506117e1828261179a565b919050565b600067ffffffffffffffff8211156118015761180061176b565b5b61180a8261175a565b9050602081019050919050565b82818337600083830152505050565b6000611839611834846117e6565b6117cb565b90508281526020810184848401111561185557611854611755565b5b611860848285611817565b509392505050565b600082601f83011261187d5761187c611750565b5b813561188d848260208601611826565b91505092915050565b600080604083850312156118ad576118ac611685565b5b60006118bb8582860161173b565b925050602083013567ffffffffffffffff8111156118dc576118db61168a565b5b6118e885828601611868565b9150509250929050565b60006020828403121561190857611907611685565b5b60006119168482850161173b565b91505092915050565b6119288161171a565b82525050565b611937816116af565b82525050565b600081519050919050565b600082825260208201905092915050565b60005b8381101561197757808201518184015260208101905061195c565b60008484015250505050565b600061198e8261193d565b6119988185611948565b93506119a8818560208601611959565b6119b18161175a565b840191505092915050565b7f4e487b7100000000000000000000000000000000000000000000000000000000600052602160045260246000fd5b600381106119fc576119fb6119bc565b5b50565b6000819050611a0d826119eb565b919050565b6000611a1d826119ff565b9050919050565b611a2d81611a12565b82525050565b600061010083016000830151611a4c600086018261191f565b506020830151611a5f602086018261192e565b506040830151611a72604086018261192e565b506060830151611a85606086018261191f565b5060808301518482036080860152611a9d8282611983565b91505060a0830151611ab260a0860182611a24565b5060c0830151611ac560c086018261191f565b5060e0830151611ad860e086018261191f565b508091505092915050565b60006020820190508181036000830152611afd8184611a33565b905092915050565b60008115159050919050565b611b1a81611b05565b82525050565b6000602082019050611b356000830184611b11565b92915050565b60008060408385031215611b5257611b51611685565b5b6000611b608582860161173b565b9250506020611b71858286016116d8565b9150509250929050565b611b848161171a565b82525050565b6000602082019050611b9f6000830184611b7b565b92915050565b611bae816116af565b82525050565b600082825260208201905092915050565b6000611bd08261193d565b611bda8185611bb4565b9350611bea818560208601611959565b611bf38161175a565b840191505092915050565b611c0781611a12565b82525050565b600061010082019050611c23600083018b611b7b565b611c30602083018a611ba5565b611c3d6040830189611ba5565b611c4a6060830188611b7b565b8181036080830152611c5c8187611bc5565b9050611c6b60a0830186611bfe565b611c7860c0830185611b7b565b611c8560e0830184611b7b565b9998505050505050505050565b6000602082019050611ca76000830184611ba5565b92915050565b7f43616c6c6572206973206e6f7420746865206f776e6572000000000000000000600082015250565b6000611ce3601783611bb4565b9150611cee82611cad565b602082019050919050565b60006020820190508181036000830152611d1281611cd6565b9050919050565b7f496e76616c696420616464726573730000000000000000000000000000000000600082015250565b6000611d4f600f83611bb4565b9150611d5a82611d19565b602082019050919050565b60006020820190508181036000830152611d7e81611d42565b9050919050565b7f52657461696c6572000000000000000000000000000000000000000000000000600082015250565b6000611dbb600883611bb4565b9150611dc682611d85565b602082019050919050565b60006020820190508181036000830152611dea81611dae565b9050919050565b7f4469737472696275746f72000000000000000000000000000000000000000000600082015250565b6000611e27600b83611bb4565b9150611e3282611df1565b602082019050919050565b60006020820190508181036000830152611e5681611e1a565b9050919050565b7f5175616e74697479206d7573742062652067726561746572207468616e207a6560008201527f726f000000000000000000000000000000000000000000000000000000000000602082015250565b6000611eb9602283611bb4565b9150611ec482611e5d565b604082019050919050565b60006020820190508181036000830152611ee881611eac565b9050919050565b7f452d7761792062696c6c206e756d6265722063616e6e6f7420626520656d707460008201527f7900000000000000000000000000000000000000000000000000000000000000602082015250565b6000611f4b602183611bb4565b9150611f5682611eef565b604082019050919050565b60006020820190508181036000830152611f7a81611f3e565b9050919050565b7f4e487b7100000000000000000000000000000000000000000000000000000000600052601160045260246000fd5b6000611fbb8261171a565b91507fffffffffffffffffffffffffffffffffffffffffffffffffffffffffffffffff8203611fed57611fec611f81565b5b600182019050919050565b7f4e487b7100000000000000000000000000000000000000000000000000000000600052602260045260246000fd5b6000600282049050600182168061203f57607f821691505b60208210810361205257612051611ff8565b5b50919050565b60008190508160005260206000209050919050565b60006020601f8301049050919050565b600082821b905092915050565b6000600883026120ba7fffffffffffffffffffffffffffffffffffffffffffffffffffffffffffffffff8261207d565b6120c4868361207d565b95508019841693508086168417925050509392505050565b6000819050919050565b60006121016120fc6120f78461171a565b6120dc565b61171a565b9050919050565b6000819050919050565b61211b836120e6565b61212f61212782612108565b84845461208a565b825550505050565b600090565b612144612137565b61214f818484612112565b505050565b5b818110156121735761216860008261213c565b600181019050612155565b5050565b601f8211156121b85761218981612058565b6121928461206d565b810160208510156121a1578190505b6121b56121ad8561206d565b830182612154565b50505b505050565b600082821c905092915050565b60006121db600019846008026121bd565b1980831691505092915050565b60006121f483836121ca565b9150826002028217905092915050565b61220d8261193d565b67ffffffffffffffff8111156122265761222561176b565b5b6122308254612027565b61223b828285612177565b600060209050601f83116001811461226e576000841561225c578287015190505b61226685826121e8565b8655506122ce565b601f19841661227c86612058565b60005b828110156122a45784890151825560018201915060208501945060208101905061227f565b868310156122c157848901516122bd601f8916826121ca565b8355505b6001600288020188555050505b505050505050565b60006040820190506122eb6000830185611b7b565b81810360208301526122fd8184611bc5565b90509392505050565b7f426174636820646f6573206e6f74206578697374000000000000000000000000600082015250565b600061233c601483611bb4565b915061234782612306565b602082019050919050565b6000602082019050818103600083015261236b8161232f565b9050919050565b7f43616c6c6572206973206e6f74207468652063757272656e7420686f6c64657260008201527f206f662074686520626174636800000000000000000000000000000000000000602082015250565b60006123ce602d83611bb4565b91506123d982612372565b604082019050919050565b600060208201905081810360008301526123fd816123c1565b9050919050565b7f496e76616c6964206e657720686f6c6465722061646472657373000000000000600082015250565b600061243a601a83611bb4565b915061244582612404565b602082019050919050565b600060208201905081810360008301526124698161242d565b9050919050565b7f4e657720686f6c646572206d7573742062652061206469737472696275746f7260008201527f206f722072657461696c65720000000000000000000000000000000000000000602082015250565b60006124cc602c83611bb4565b91506124d782612470565b604082019050919050565b600060208201905081810360008301526124fb816124bf565b9050919050565b7f4261746368206d75737420626520696e2027526563656976656427207374617460008201527f6520746f206265207472616e7366657272656400000000000000000000000000602082015250565b600061255e603383611bb4565b915061256982612502565b604082019050919050565b6000602082019050818103600083015261258d81612551565b9050919050565b7f4261746368206973206e6f7420696e207472616e736974000000000000000000600082015250565b60006125ca601783611bb4565b91506125d582612594565b602082019050919050565b600060208201905081810360008301526125f9816125bd565b905091905056fea264697066735822122030d125dd835bb8dbc871c0fc8d64da1b664fa1e84e9af8a6c7a0f94d70e291b364736f6c63430008180033",
  "linkReferences": {},
  "deployedLinkReferences": {}
}